{"abi":[{"type":"function","name":"ZERO_DELTA","inputs":[],"outputs":[{"name":"","type":"int256","internalType":"BalanceDelta"}],"stateMutability":"view"}],"bytecode":{"object":"0x60846032600b8282823980515f1a607314602657634e487b7160e01b5f525f60045260245ffd5b305f52607381538281f3fe73000000000000000000000000000000000000000030146080604052600436106032575f3560e01c806391cb4669146036575b5f80fd5b603c5f81565b60405190815260200160405180910390f3fea26469706673582212207e46393039f892d2e830b8f9e5604c899f01041b09d0aba8f2481812e064372e64736f6c634300081a0033","linkReferences":{}},"methodIdentifiers":{"ZERO_DELTA()":"91cb4669"},"id":82}