{"abi":[{"type":"constructor","inputs":[{"name":"_manager","type":"address","internalType":"contract IPoolManager"}],"stateMutability":"nonpayable"},{"type":"function","name":"manager","inputs":[],"outputs":[{"name":"","type":"address","internalType":"contract IPoolManager"}],"stateMutability":"view"},{"type":"function","name":"take","inputs":[{"name":"key","type":"tuple","internalType":"struct PoolKey","components":[{"name":"currency0","type":"address","internalType":"Currency"},{"name":"currency1","type":"address","internalType":"Currency"},{"name":"fee","type":"uint24","internalType":"uint24"},{"name":"tickSpacing","type":"int24","internalType":"int24"},{"name":"hooks","type":"address","internalType":"contract IHooks"}]},{"name":"amount0","type":"uint256","internalType":"uint256"},{"name":"amount1","type":"uint256","internalType":"uint256"}],"outputs":[],"stateMutability":"payable"},{"type":"function","name":"unlockCallback","inputs":[{"name":"rawData","type":"bytes","internalType":"bytes"}],"outputs":[{"name":"","type":"bytes","internalType":"bytes"}],"stateMutability":"nonpayable"}],"bytecode":{"object":"0x60a0604052348015600e575f80fd5b506040516112b83803806112b8833981016040819052602b91603b565b6001600160a01b03166080526066565b5f60208284031215604a575f80fd5b81516001600160a01b0381168114605f575f80fd5b9392505050565b6080516112116100a75f395f8181605d015281816101630152818161023b0152818161037c015281816105f20152818161066501526106a501526112115ff3fe608060405260043610610033575f3560e01c8063055419b614610037578063481c6a751461004c57806391dd7346146100a9575b5f80fd5b61004a610045366004610f0b565b6100d5565b005b348015610057575f80fd5b5061007f7f000000000000000000000000000000000000000000000000000000000000000081565b60405173ffffffffffffffffffffffffffffffffffffffff90911681526020015b60405180910390f35b3480156100b4575f80fd5b506100c86100c3366004610f3c565b610221565b6040516100a09190610faa565b604080516080808201835233808352602080840188815284860188815260609586018881528751808501959095529151805173ffffffffffffffffffffffffffffffffffffffff908116868a0152938101518416858801529687015162ffffff16848601529486015160020b60a08401529490920151821660c0820152915160e083015291516101008201527f0000000000000000000000000000000000000000000000000000000000000000909116906348c8949190610120016040516020818303038152906040526040518263ffffffff1660e01b81526004016101bb9190610faa565b5f604051808303815f875af11580156101d6573d5f803e3d5ffd5b505050506040513d5f823e601f3d9081017fffffffffffffffffffffffffffffffffffffffffffffffffffffffffffffffe016820160405261021b9190810190610ffd565b50505050565b60603373ffffffffffffffffffffffffffffffffffffffff7f00000000000000000000000000000000000000000000000000000000000000001614610264575f80fd5b5f610271838501856110af565b60408101519091501561029657602081015151815160408301516102969291906102de565b6060810151156102ba576102ba816020015160200151825f015183606001516102de565b604080515f6020820152016040516020818303038152906040529150505b92915050565b5f805f6102ec868630610624565b925092509250805f14610360576040517f08c379a000000000000000000000000000000000000000000000000000000000815260206004820152601d60248201527f64656c74614265666f7265206973206e6f7420657175616c20746f203000000060448201526064015b60405180910390fd5b6103a373ffffffffffffffffffffffffffffffffffffffff87167f000000000000000000000000000000000000000000000000000000000000000087875f6106d7565b5f805f6103b1898930610624565b9250925092506103c087610845565b6103c99061114f565b600f0b811461045a576040517f08c379a000000000000000000000000000000000000000000000000000000000815260206004820152602d60248201527f64656c74614166746572206973206e6f7420657175616c20746f202d616d6f7560448201527f6e742e746f496e743132382829000000000000000000000000000000000000006064820152608401610357565b86610465878561118b565b14610518576040517f08c379a000000000000000000000000000000000000000000000000000000000815260206004820152604c60248201527f74686520646966666572656e6365206265747765656e207573657242616c416660448201527f74657220616e64207573657242616c4265666f7265206973206e6f742065717560648201527f616c20746f20616d6f756e740000000000000000000000000000000000000000608482015260a401610357565b86610523838761118b565b146105d6576040517f08c379a000000000000000000000000000000000000000000000000000000000815260206004820152604860248201527f74686520646966666572656e6365206265747765656e20706d42616c4265666f60448201527f726520616e6420706d42616c4166746572206973206e6f7420657175616c207460648201527f6f20616d6f756e74000000000000000000000000000000000000000000000000608482015260a401610357565b61061973ffffffffffffffffffffffffffffffffffffffff8a167f00000000000000000000000000000000000000000000000000000000000000008a8a5f61088a565b505050505050505050565b5f808061064773ffffffffffffffffffffffffffffffffffffffff871686610c19565b925061068973ffffffffffffffffffffffffffffffffffffffff87167f0000000000000000000000000000000000000000000000000000000000000000610c19565b91506106cc73ffffffffffffffffffffffffffffffffffffffff7f0000000000000000000000000000000000000000000000000000000000000000168588610ce8565b905093509350939050565b8061076d576040517f0b0d9c0900000000000000000000000000000000000000000000000000000000815273ffffffffffffffffffffffffffffffffffffffff8681166004830152848116602483015260448201849052851690630b0d9c09906064015b5f604051808303815f87803b158015610752575f80fd5b505af1158015610764573d5f803e3d5ffd5b5050505061083e565b8373ffffffffffffffffffffffffffffffffffffffff1663156e29f6846107bd8873ffffffffffffffffffffffffffffffffffffffff1673ffffffffffffffffffffffffffffffffffffffff1690565b6040517fffffffff0000000000000000000000000000000000000000000000000000000060e085901b16815273ffffffffffffffffffffffffffffffffffffffff90921660048301526024820152604481018590526064015f604051808303815f87803b15801561082c575f80fd5b505af1158015610619573d5f803e3d5ffd5b5050505050565b5f6f800000000000000000000000000000008210610886576108867f93dafdf100000000000000000000000000000000000000000000000000000000610da6565b5090565b801561093d578373ffffffffffffffffffffffffffffffffffffffff1663f5298aca846108e08873ffffffffffffffffffffffffffffffffffffffff1673ffffffffffffffffffffffffffffffffffffffff1690565b6040517fffffffff0000000000000000000000000000000000000000000000000000000060e085901b16815273ffffffffffffffffffffffffffffffffffffffff909216600483015260248201526044810185905260640161073b565b73ffffffffffffffffffffffffffffffffffffffff85166109ce578373ffffffffffffffffffffffffffffffffffffffff166311da60b4836040518263ffffffff1660e01b815260040160206040518083038185885af11580156109a3573d5f803e3d5ffd5b50505050506040513d601f19601f820116820180604052508101906109c8919061119e565b5061083e565b6040517fa584119400000000000000000000000000000000000000000000000000000000815273ffffffffffffffffffffffffffffffffffffffff868116600483015285169063a5841194906024015f604051808303815f87803b158015610a34575f80fd5b505af1158015610a46573d5f803e3d5ffd5b5050505073ffffffffffffffffffffffffffffffffffffffff83163014610b0b576040517f23b872dd00000000000000000000000000000000000000000000000000000000815273ffffffffffffffffffffffffffffffffffffffff84811660048301528581166024830152604482018490528616906323b872dd906064016020604051808303815f875af1158015610ae1573d5f803e3d5ffd5b505050506040513d601f19601f82011682018060405250810190610b0591906111b5565b50610ba3565b6040517fa9059cbb00000000000000000000000000000000000000000000000000000000815273ffffffffffffffffffffffffffffffffffffffff85811660048301526024820184905286169063a9059cbb906044016020604051808303815f875af1158015610b7d573d5f803e3d5ffd5b505050506040513d601f19601f82011682018060405250810190610ba191906111b5565b505b8373ffffffffffffffffffffffffffffffffffffffff166311da60b46040518163ffffffff1660e01b81526004016020604051808303815f875af1158015610bed573d5f803e3d5ffd5b505050506040513d601f19601f82011682018060405250810190610c11919061119e565b505050505050565b5f73ffffffffffffffffffffffffffffffffffffffff8316610c53575073ffffffffffffffffffffffffffffffffffffffff8116316102d8565b6040517f70a0823100000000000000000000000000000000000000000000000000000000815273ffffffffffffffffffffffffffffffffffffffff83811660048301528416906370a0823190602401602060405180830381865afa158015610cbd573d5f803e3d5ffd5b505050506040513d601f19601f82011682018060405250810190610ce1919061119e565b90506102d8565b5f8073ffffffffffffffffffffffffffffffffffffffff84165f5273ffffffffffffffffffffffffffffffffffffffff831660205260405f2090508473ffffffffffffffffffffffffffffffffffffffff1663f135baaa826040518263ffffffff1660e01b8152600401610d5e91815260200190565b602060405180830381865afa158015610d79573d5f803e3d5ffd5b505050506040513d601f19601f82011682018060405250810190610d9d919061119e565b95945050505050565b805f5260045ffd5b7f4e487b71000000000000000000000000000000000000000000000000000000005f52604160045260245ffd5b60405160a0810167ffffffffffffffff81118282101715610dfe57610dfe610dae565b60405290565b604051601f82017fffffffffffffffffffffffffffffffffffffffffffffffffffffffffffffffe016810167ffffffffffffffff81118282101715610e4b57610e4b610dae565b604052919050565b73ffffffffffffffffffffffffffffffffffffffff81168114610e74575f80fd5b50565b8035610e8281610e53565b919050565b5f60a08284031215610e97575f80fd5b610e9f610ddb565b90508135610eac81610e53565b81526020820135610ebc81610e53565b6020820152604082013562ffffff81168114610ed6575f80fd5b60408201526060820135600281900b8114610eef575f80fd5b6060820152610f0060808301610e77565b608082015292915050565b5f805f60e08486031215610f1d575f80fd5b610f278585610e87565b9560a0850135955060c0909401359392505050565b5f8060208385031215610f4d575f80fd5b823567ffffffffffffffff811115610f63575f80fd5b8301601f81018513610f73575f80fd5b803567ffffffffffffffff811115610f89575f80fd5b856020828401011115610f9a575f80fd5b6020919091019590945092505050565b602081525f82518060208401528060208501604085015e5f6040828501015260407fffffffffffffffffffffffffffffffffffffffffffffffffffffffffffffffe0601f83011684010191505092915050565b5f6020828403121561100d575f80fd5b815167ffffffffffffffff811115611023575f80fd5b8201601f81018413611033575f80fd5b805167ffffffffffffffff81111561104d5761104d610dae565b61107e60207fffffffffffffffffffffffffffffffffffffffffffffffffffffffffffffffe0601f84011601610e04565b818152856020838501011115611092575f80fd5b8160208401602083015e5f91810160200191909152949350505050565b5f6101008284031280156110c1575f80fd5b506040516080810167ffffffffffffffff811182821017156110e5576110e5610dae565b60405282356110f381610e53565b81526111028460208501610e87565b602082015260c0830135604082015260e090920135606083015250919050565b7f4e487b71000000000000000000000000000000000000000000000000000000005f52601160045260245ffd5b5f81600f0b7fffffffffffffffffffffffffffffffff80000000000000000000000000000000810361118357611183611122565b5f0392915050565b818103818111156102d8576102d8611122565b5f602082840312156111ae575f80fd5b5051919050565b5f602082840312156111c5575f80fd5b815180151581146111d4575f80fd5b939250505056fea2646970667358221220012c3f545888a87b231aaf3689a74bc1cd498f2c2d942d262d67666690206d0164736f6c634300081a0033","linkReferences":{}},"methodIdentifiers":{"manager()":"481c6a75","take((address,address,uint24,int24,address),uint256,uint256)":"055419b6","unlockCallback(bytes)":"91dd7346"},"id":78}