{"abi":[{"type":"constructor","inputs":[{"name":"controllerGasLimit","type":"uint256","internalType":"uint256"}],"stateMutability":"nonpayable"},{"type":"function","name":"allowance","inputs":[{"name":"owner","type":"address","internalType":"address"},{"name":"spender","type":"address","internalType":"address"},{"name":"id","type":"uint256","internalType":"uint256"}],"outputs":[{"name":"amount","type":"uint256","internalType":"uint256"}],"stateMutability":"view"},{"type":"function","name":"approve","inputs":[{"name":"spender","type":"address","internalType":"address"},{"name":"id","type":"uint256","internalType":"uint256"},{"name":"amount","type":"uint256","internalType":"uint256"}],"outputs":[{"name":"","type":"bool","internalType":"bool"}],"stateMutability":"nonpayable"},{"type":"function","name":"balanceOf","inputs":[{"name":"owner","type":"address","internalType":"address"},{"name":"id","type":"uint256","internalType":"uint256"}],"outputs":[{"name":"balance","type":"uint256","internalType":"uint256"}],"stateMutability":"view"},{"type":"function","name":"burn","inputs":[{"name":"from","type":"address","internalType":"address"},{"name":"id","type":"uint256","internalType":"uint256"},{"name":"amount","type":"uint256","internalType":"uint256"}],"outputs":[],"stateMutability":"nonpayable"},{"type":"function","name":"clear","inputs":[{"name":"currency","type":"address","internalType":"Currency"},{"name":"amount","type":"uint256","internalType":"uint256"}],"outputs":[],"stateMutability":"nonpayable"},{"type":"function","name":"collectProtocolFees","inputs":[{"name":"recipient","type":"address","internalType":"address"},{"name":"currency","type":"address","internalType":"Currency"},{"name":"amount","type":"uint256","internalType":"uint256"}],"outputs":[{"name":"amountCollected","type":"uint256","internalType":"uint256"}],"stateMutability":"nonpayable"},{"type":"function","name":"donate","inputs":[{"name":"key","type":"tuple","internalType":"struct PoolKey","components":[{"name":"currency0","type":"address","internalType":"Currency"},{"name":"currency1","type":"address","internalType":"Currency"},{"name":"fee","type":"uint24","internalType":"uint24"},{"name":"tickSpacing","type":"int24","internalType":"int24"},{"name":"hooks","type":"address","internalType":"contract IHooks"}]},{"name":"amount0","type":"uint256","internalType":"uint256"},{"name":"amount1","type":"uint256","internalType":"uint256"},{"name":"hookData","type":"bytes","internalType":"bytes"}],"outputs":[{"name":"delta","type":"int256","internalType":"BalanceDelta"}],"stateMutability":"nonpayable"},{"type":"function","name":"extsload","inputs":[{"name":"slot","type":"bytes32","internalType":"bytes32"}],"outputs":[{"name":"","type":"bytes32","internalType":"bytes32"}],"stateMutability":"view"},{"type":"function","name":"extsload","inputs":[{"name":"startSlot","type":"bytes32","internalType":"bytes32"},{"name":"nSlots","type":"uint256","internalType":"uint256"}],"outputs":[{"name":"","type":"bytes32[]","internalType":"bytes32[]"}],"stateMutability":"view"},{"type":"function","name":"extsload","inputs":[{"name":"slots","type":"bytes32[]","internalType":"bytes32[]"}],"outputs":[{"name":"","type":"bytes32[]","internalType":"bytes32[]"}],"stateMutability":"view"},{"type":"function","name":"exttload","inputs":[{"name":"slots","type":"bytes32[]","internalType":"bytes32[]"}],"outputs":[{"name":"","type":"bytes32[]","internalType":"bytes32[]"}],"stateMutability":"view"},{"type":"function","name":"exttload","inputs":[{"name":"slot","type":"bytes32","internalType":"bytes32"}],"outputs":[{"name":"","type":"bytes32","internalType":"bytes32"}],"stateMutability":"view"},{"type":"function","name":"initialize","inputs":[{"name":"key","type":"tuple","internalType":"struct PoolKey","components":[{"name":"currency0","type":"address","internalType":"Currency"},{"name":"currency1","type":"address","internalType":"Currency"},{"name":"fee","type":"uint24","internalType":"uint24"},{"name":"tickSpacing","type":"int24","internalType":"int24"},{"name":"hooks","type":"address","internalType":"contract IHooks"}]},{"name":"sqrtPriceX96","type":"uint160","internalType":"uint160"},{"name":"hookData","type":"bytes","internalType":"bytes"}],"outputs":[{"name":"tick","type":"int24","internalType":"int24"}],"stateMutability":"nonpayable"},{"type":"function","name":"isOperator","inputs":[{"name":"owner","type":"address","internalType":"address"},{"name":"operator","type":"address","internalType":"address"}],"outputs":[{"name":"isOperator","type":"bool","internalType":"bool"}],"stateMutability":"view"},{"type":"function","name":"mint","inputs":[{"name":"to","type":"address","internalType":"address"},{"name":"id","type":"uint256","internalType":"uint256"},{"name":"amount","type":"uint256","internalType":"uint256"}],"outputs":[],"stateMutability":"nonpayable"},{"type":"function","name":"modifyLiquidity","inputs":[{"name":"key","type":"tuple","internalType":"struct PoolKey","components":[{"name":"currency0","type":"address","internalType":"Currency"},{"name":"currency1","type":"address","internalType":"Currency"},{"name":"fee","type":"uint24","internalType":"uint24"},{"name":"tickSpacing","type":"int24","internalType":"int24"},{"name":"hooks","type":"address","internalType":"contract IHooks"}]},{"name":"params","type":"tuple","internalType":"struct IPoolManager.ModifyLiquidityParams","components":[{"name":"tickLower","type":"int24","internalType":"int24"},{"name":"tickUpper","type":"int24","internalType":"int24"},{"name":"liquidityDelta","type":"int256","internalType":"int256"},{"name":"salt","type":"bytes32","internalType":"bytes32"}]},{"name":"hookData","type":"bytes","internalType":"bytes"}],"outputs":[{"name":"callerDelta","type":"int256","internalType":"BalanceDelta"},{"name":"feesAccrued","type":"int256","internalType":"BalanceDelta"}],"stateMutability":"nonpayable"},{"type":"function","name":"owner","inputs":[],"outputs":[{"name":"","type":"address","internalType":"address"}],"stateMutability":"view"},{"type":"function","name":"protocolFeeController","inputs":[],"outputs":[{"name":"","type":"address","internalType":"contract IProtocolFeeController"}],"stateMutability":"view"},{"type":"function","name":"protocolFeesAccrued","inputs":[{"name":"currency","type":"address","internalType":"Currency"}],"outputs":[{"name":"amount","type":"uint256","internalType":"uint256"}],"stateMutability":"view"},{"type":"function","name":"setOperator","inputs":[{"name":"operator","type":"address","internalType":"address"},{"name":"approved","type":"bool","internalType":"bool"}],"outputs":[{"name":"","type":"bool","internalType":"bool"}],"stateMutability":"nonpayable"},{"type":"function","name":"setProtocolFee","inputs":[{"name":"key","type":"tuple","internalType":"struct PoolKey","components":[{"name":"currency0","type":"address","internalType":"Currency"},{"name":"currency1","type":"address","internalType":"Currency"},{"name":"fee","type":"uint24","internalType":"uint24"},{"name":"tickSpacing","type":"int24","internalType":"int24"},{"name":"hooks","type":"address","internalType":"contract IHooks"}]},{"name":"newProtocolFee","type":"uint24","internalType":"uint24"}],"outputs":[],"stateMutability":"nonpayable"},{"type":"function","name":"setProtocolFeeController","inputs":[{"name":"controller","type":"address","internalType":"contract IProtocolFeeController"}],"outputs":[],"stateMutability":"nonpayable"},{"type":"function","name":"settle","inputs":[],"outputs":[{"name":"paid","type":"uint256","internalType":"uint256"}],"stateMutability":"payable"},{"type":"function","name":"settleFor","inputs":[{"name":"recipient","type":"address","internalType":"address"}],"outputs":[{"name":"paid","type":"uint256","internalType":"uint256"}],"stateMutability":"payable"},{"type":"function","name":"supportsInterface","inputs":[{"name":"interfaceId","type":"bytes4","internalType":"bytes4"}],"outputs":[{"name":"","type":"bool","internalType":"bool"}],"stateMutability":"view"},{"type":"function","name":"swap","inputs":[{"name":"key","type":"tuple","internalType":"struct PoolKey","components":[{"name":"currency0","type":"address","internalType":"Currency"},{"name":"currency1","type":"address","internalType":"Currency"},{"name":"fee","type":"uint24","internalType":"uint24"},{"name":"tickSpacing","type":"int24","internalType":"int24"},{"name":"hooks","type":"address","internalType":"contract IHooks"}]},{"name":"params","type":"tuple","internalType":"struct IPoolManager.SwapParams","components":[{"name":"zeroForOne","type":"bool","internalType":"bool"},{"name":"amountSpecified","type":"int256","internalType":"int256"},{"name":"sqrtPriceLimitX96","type":"uint160","internalType":"uint160"}]},{"name":"hookData","type":"bytes","internalType":"bytes"}],"outputs":[{"name":"swapDelta","type":"int256","internalType":"BalanceDelta"}],"stateMutability":"nonpayable"},{"type":"function","name":"sync","inputs":[{"name":"currency","type":"address","internalType":"Currency"}],"outputs":[],"stateMutability":"nonpayable"},{"type":"function","name":"take","inputs":[{"name":"currency","type":"address","internalType":"Currency"},{"name":"to","type":"address","internalType":"address"},{"name":"amount","type":"uint256","internalType":"uint256"}],"outputs":[],"stateMutability":"nonpayable"},{"type":"function","name":"transfer","inputs":[{"name":"receiver","type":"address","internalType":"address"},{"name":"id","type":"uint256","internalType":"uint256"},{"name":"amount","type":"uint256","internalType":"uint256"}],"outputs":[{"name":"","type":"bool","internalType":"bool"}],"stateMutability":"nonpayable"},{"type":"function","name":"transferFrom","inputs":[{"name":"sender","type":"address","internalType":"address"},{"name":"receiver","type":"address","internalType":"address"},{"name":"id","type":"uint256","internalType":"uint256"},{"name":"amount","type":"uint256","internalType":"uint256"}],"outputs":[{"name":"","type":"bool","internalType":"bool"}],"stateMutability":"nonpayable"},{"type":"function","name":"transferOwnership","inputs":[{"name":"newOwner","type":"address","internalType":"address"}],"outputs":[],"stateMutability":"nonpayable"},{"type":"function","name":"unlock","inputs":[{"name":"data","type":"bytes","internalType":"bytes"}],"outputs":[{"name":"result","type":"bytes","internalType":"bytes"}],"stateMutability":"nonpayable"},{"type":"function","name":"updateDynamicLPFee","inputs":[{"name":"key","type":"tuple","internalType":"struct PoolKey","components":[{"name":"currency0","type":"address","internalType":"Currency"},{"name":"currency1","type":"address","internalType":"Currency"},{"name":"fee","type":"uint24","internalType":"uint24"},{"name":"tickSpacing","type":"int24","internalType":"int24"},{"name":"hooks","type":"address","internalType":"contract IHooks"}]},{"name":"newDynamicLPFee","type":"uint24","internalType":"uint24"}],"outputs":[],"stateMutability":"nonpayable"},{"type":"event","name":"Approval","inputs":[{"name":"owner","type":"address","indexed":true,"internalType":"address"},{"name":"spender","type":"address","indexed":true,"internalType":"address"},{"name":"id","type":"uint256","indexed":true,"internalType":"uint256"},{"name":"amount","type":"uint256","indexed":false,"internalType":"uint256"}],"anonymous":false},{"type":"event","name":"Initialize","inputs":[{"name":"id","type":"bytes32","indexed":true,"internalType":"PoolId"},{"name":"currency0","type":"address","indexed":true,"internalType":"Currency"},{"name":"currency1","type":"address","indexed":true,"internalType":"Currency"},{"name":"fee","type":"uint24","indexed":false,"internalType":"uint24"},{"name":"tickSpacing","type":"int24","indexed":false,"internalType":"int24"},{"name":"hooks","type":"address","indexed":false,"internalType":"contract IHooks"},{"name":"sqrtPriceX96","type":"uint160","indexed":false,"internalType":"uint160"},{"name":"tick","type":"int24","indexed":false,"internalType":"int24"}],"anonymous":false},{"type":"event","name":"ModifyLiquidity","inputs":[{"name":"id","type":"bytes32","indexed":true,"internalType":"PoolId"},{"name":"sender","type":"address","indexed":true,"internalType":"address"},{"name":"tickLower","type":"int24","indexed":false,"internalType":"int24"},{"name":"tickUpper","type":"int24","indexed":false,"internalType":"int24"},{"name":"liquidityDelta","type":"int256","indexed":false,"internalType":"int256"},{"name":"salt","type":"bytes32","indexed":false,"internalType":"bytes32"}],"anonymous":false},{"type":"event","name":"OperatorSet","inputs":[{"name":"owner","type":"address","indexed":true,"internalType":"address"},{"name":"operator","type":"address","indexed":true,"internalType":"address"},{"name":"approved","type":"bool","indexed":false,"internalType":"bool"}],"anonymous":false},{"type":"event","name":"OwnershipTransferred","inputs":[{"name":"user","type":"address","indexed":true,"internalType":"address"},{"name":"newOwner","type":"address","indexed":true,"internalType":"address"}],"anonymous":false},{"type":"event","name":"ProtocolFeeControllerUpdated","inputs":[{"name":"protocolFeeController","type":"address","indexed":true,"internalType":"address"}],"anonymous":false},{"type":"event","name":"ProtocolFeeUpdated","inputs":[{"name":"id","type":"bytes32","indexed":true,"internalType":"PoolId"},{"name":"protocolFee","type":"uint24","indexed":false,"internalType":"uint24"}],"anonymous":false},{"type":"event","name":"Swap","inputs":[{"name":"id","type":"bytes32","indexed":true,"internalType":"PoolId"},{"name":"sender","type":"address","indexed":true,"internalType":"address"},{"name":"amount0","type":"int128","indexed":false,"internalType":"int128"},{"name":"amount1","type":"int128","indexed":false,"internalType":"int128"},{"name":"sqrtPriceX96","type":"uint160","indexed":false,"internalType":"uint160"},{"name":"liquidity","type":"uint128","indexed":false,"internalType":"uint128"},{"name":"tick","type":"int24","indexed":false,"internalType":"int24"},{"name":"fee","type":"uint24","indexed":false,"internalType":"uint24"}],"anonymous":false},{"type":"event","name":"Transfer","inputs":[{"name":"caller","type":"address","indexed":false,"internalType":"address"},{"name":"from","type":"address","indexed":true,"internalType":"address"},{"name":"to","type":"address","indexed":true,"internalType":"address"},{"name":"id","type":"uint256","indexed":true,"internalType":"uint256"},{"name":"amount","type":"uint256","indexed":false,"internalType":"uint256"}],"anonymous":false},{"type":"error","name":"AlreadyUnlocked","inputs":[]},{"type":"error","name":"CurrenciesOutOfOrderOrEqual","inputs":[{"name":"currency0","type":"address","internalType":"address"},{"name":"currency1","type":"address","internalType":"address"}]},{"type":"error","name":"CurrencyNotSettled","inputs":[]},{"type":"error","name":"DelegateCallNotAllowed","inputs":[]},{"type":"error","name":"InvalidCaller","inputs":[]},{"type":"error","name":"ManagerLocked","inputs":[]},{"type":"error","name":"MustClearExactPositiveDelta","inputs":[]},{"type":"error","name":"NonZeroNativeValue","inputs":[]},{"type":"error","name":"PoolNotInitialized","inputs":[]},{"type":"error","name":"ProtocolFeeCannotBeFetched","inputs":[]},{"type":"error","name":"ProtocolFeeTooLarge","inputs":[{"name":"fee","type":"uint24","internalType":"uint24"}]},{"type":"error","name":"SwapAmountCannotBeZero","inputs":[]},{"type":"error","name":"TickSpacingTooLarge","inputs":[{"name":"tickSpacing","type":"int24","internalType":"int24"}]},{"type":"error","name":"TickSpacingTooSmall","inputs":[{"name":"tickSpacing","type":"int24","internalType":"int24"}]},{"type":"error","name":"UnauthorizedDynamicLPFeeUpdate","inputs":[]}],"bytecode":{"object":"0x60c0604052348015600e575f80fd5b50604051616cec380380616cec833981016040819052602b916077565b5f80546001600160a01b031916339081178255604051839282917f8be0079c531659141344cd1fd0a4f28419497f9722a3daafe3b4186f6b6457e0908290a350608052503060a052608d565b5f602082840312156086575f80fd5b5051919050565b60805160a051616c376100b55f395f611f9901525f8181612ea00152612ef70152616c375ff3fe6080604052600436106101f4575f3560e01c80635a6bcfda11610117578063a5841194116100ac578063f135baaa1161007c578063f3cd914c11610062578063f3cd914c14610676578063f5298aca14610695578063fe99049a146106b4575f80fd5b8063f135baaa14610638578063f2fde38b14610657575f80fd5b8063a584119414610595578063b6363cf2146105b4578063dbd035ff146105ed578063f02de3b21461060c575f80fd5b80638161b874116100e75780638161b874146104dc5780638da5cb5b146104fb57806397e8cd4e1461054b5780639bf6645f14610576575f80fd5b80635a6bcfda14610438578063695c5bf51461046c5780637e87ce7d1461049e57806380f0b44c146104bd575f80fd5b80632d7713891161018d57806348c894911161015d57806348c894911461039257806352759651146103be578063558a7297146103dd578063598af9e7146103fc575f80fd5b80632d7713891461031557806335fd631a146103345780633dd45adb14610360578063426a849314610373575f80fd5b806311da60b4116101c857806311da60b4146102b0578063156e29f6146102b85780631e2eaeaf146102d7578063234266d7146102f6575f80fd5b8062fdd58e146101f857806301ffc9a714610241578063095bcdb6146102705780630b0d9c091461028f575b5f80fd5b348015610203575f80fd5b5061022e610212366004615b4b565b600460209081525f928352604080842090915290825290205481565b6040519081526020015b60405180910390f35b34801561024c575f80fd5b5061026061025b366004615b75565b6106d3565b6040519015158152602001610238565b34801561027b575f80fd5b5061026061028a366004615bb4565b61076b565b34801561029a575f80fd5b506102ae6102a9366004615be6565b61083f565b005b61022e6108c9565b3480156102c3575f80fd5b506102ae6102d2366004615bb4565b610927565b3480156102e2575f80fd5b5061022e6102f1366004615c24565b6109ab565b348015610301575f80fd5b5061022e610310366004615dde565b6109b5565b348015610320575f80fd5b506102ae61032f366004615e43565b610aab565b34801561033f575f80fd5b5061035361034e366004615e5e565b610b9e565b6040516102389190615e7e565b61022e61036e366004615e43565b610bdb565b34801561037e575f80fd5b5061026061038d366004615bb4565b610c39565b34801561039d575f80fd5b506103b16103ac366004615ec0565b610caa565b6040516102389190615eff565b3480156103c9575f80fd5b506102ae6103d8366004615f52565b610dfc565b3480156103e8575f80fd5b506102606103f7366004615f93565b610e9e565b348015610407575f80fd5b5061022e610416366004615be6565b600560209081525f938452604080852082529284528284209052825290205481565b348015610443575f80fd5b50610457610452366004615fbd565b610f38565b60408051928352602083019190915201610238565b348015610477575f80fd5b5061048b61048636600461607e565b611136565b60405160029190910b8152602001610238565b3480156104a9575f80fd5b506102ae6104b8366004615f52565b6113e4565b3480156104c8575f80fd5b506102ae6104d7366004615b4b565b6114d5565b3480156104e7575f80fd5b5061022e6104f6366004615be6565b61159a565b348015610506575f80fd5b505f546105269073ffffffffffffffffffffffffffffffffffffffff1681565b60405173ffffffffffffffffffffffffffffffffffffffff9091168152602001610238565b348015610556575f80fd5b5061022e610565366004615e43565b60016020525f908152604090205481565b348015610581575f80fd5b506103536105903660046160c6565b611676565b3480156105a0575f80fd5b506102ae6105af366004615e43565b6116af565b3480156105bf575f80fd5b506102606105ce366004616137565b600360209081525f928352604080842090915290825290205460ff1681565b3480156105f8575f80fd5b506103536106073660046160c6565b611705565b348015610617575f80fd5b506002546105269073ffffffffffffffffffffffffffffffffffffffff1681565b348015610643575f80fd5b5061022e610652366004615c24565b61173c565b348015610662575f80fd5b506102ae610671366004615e43565b611746565b348015610681575f80fd5b5061022e61069036600461616e565b611835565b3480156106a0575f80fd5b506102ae6106af366004615bb4565b6119e7565b3480156106bf575f80fd5b506102606106ce36600461622c565b611a65565b5f7f01ffc9a7000000000000000000000000000000000000000000000000000000007fffffffff000000000000000000000000000000000000000000000000000000008316148061076557507f0f632fb3000000000000000000000000000000000000000000000000000000007fffffffff000000000000000000000000000000000000000000000000000000008316145b92915050565b335f90815260046020908152604080832085845290915281208054839190839061079690849061629c565b909155505073ffffffffffffffffffffffffffffffffffffffff84165f908152600460209081526040808320868452909152812080548492906107da9084906162af565b9091555050604080513380825260208201859052859273ffffffffffffffffffffffffffffffffffffffff8816927f1b3d7edb2e9c0b0e7c525b20aaaef0f5940d2ed71663c7d39266ecafac72885991015b60405180910390a45060015b9392505050565b7fc090fc4683624cfc3884e9d8de5eca132f2d0ec062aff75d43c0465d5ceeab235c61088e5761088e7f54e3ca0d00000000000000000000000000000000000000000000000000000000611c51565b6108a38361089b83611c59565b5f0333611c9e565b6108c473ffffffffffffffffffffffffffffffffffffffff84168383611cfe565b505050565b5f7fc090fc4683624cfc3884e9d8de5eca132f2d0ec062aff75d43c0465d5ceeab235c610919576109197f54e3ca0d00000000000000000000000000000000000000000000000000000000611c51565b61092233611df9565b905090565b7fc090fc4683624cfc3884e9d8de5eca132f2d0ec062aff75d43c0465d5ceeab235c610976576109767f54e3ca0d00000000000000000000000000000000000000000000000000000000611c51565b816109848161089b84611c59565b6109a58473ffffffffffffffffffffffffffffffffffffffff831684611ee2565b50505050565b5f81545f5260205ff35b5f7fc090fc4683624cfc3884e9d8de5eca132f2d0ec062aff75d43c0465d5ceeab235c610a0557610a057f54e3ca0d00000000000000000000000000000000000000000000000000000000611c51565b610a0d611f81565b5f610a2c610a1c8860a0902090565b5f90815260066020526040902090565b9050610a3781611fe9565b6080870151610a609073ffffffffffffffffffffffffffffffffffffffff168888888888612033565b610a6b818787612116565b9150610a78878333612220565b6080870151610aa19073ffffffffffffffffffffffffffffffffffffffff168888888888612248565b5095945050505050565b5f5473ffffffffffffffffffffffffffffffffffffffff163314610b30576040517f08c379a000000000000000000000000000000000000000000000000000000000815260206004820152600c60248201527f554e415554484f52495a4544000000000000000000000000000000000000000060448201526064015b60405180910390fd5b600280547fffffffffffffffffffffffff00000000000000000000000000000000000000001673ffffffffffffffffffffffffffffffffffffffff83169081179091556040517fb4bd8ef53df690b9943d3318996006dbb82a25f54719d8c8035b516a2a5b8acc905f90a250565b6060604051808360051b6020835284602084015260408301925080830190505b85548352602083019250600186019550808310610bbe5781810382f35b5f7fc090fc4683624cfc3884e9d8de5eca132f2d0ec062aff75d43c0465d5ceeab235c610c2b57610c2b7f54e3ca0d00000000000000000000000000000000000000000000000000000000611c51565b61076582611df9565b919050565b335f81815260056020908152604080832073ffffffffffffffffffffffffffffffffffffffff881680855290835281842087855290925280832085905551919285927fb3fd5071835887567a0671151121894ddccc2842f1d10bedad13e0d17cace9a79061082c9087815260200190565b60607fc090fc4683624cfc3884e9d8de5eca132f2d0ec062aff75d43c0465d5ceeab235c15610cfc57610cfc7f5090d6c600000000000000000000000000000000000000000000000000000000611c51565b610d04612320565b6040517f91dd734600000000000000000000000000000000000000000000000000000000815233906391dd734690610d429086908690600401616309565b5f604051808303815f875af1158015610d5d573d5f803e3d5ffd5b505050506040513d5f823e601f3d9081017fffffffffffffffffffffffffffffffffffffffffffffffffffffffffffffffe0168201604052610da2919081019061631c565b90507f7d4b3164c6e45b97e7d87b7125a44c5828d005af88f9d751cfd78729c5d99a0b5c15610df457610df47f5212cba100000000000000000000000000000000000000000000000000000000611c51565b610765612346565b604082015162ffffff1662800000141580610e475750816080015173ffffffffffffffffffffffffffffffffffffffff163373ffffffffffffffffffffffffffffffffffffffff1614155b15610e7557610e757f30d2164100000000000000000000000000000000000000000000000000000000611c51565b610e838162ffffff1661236b565b60a082205f8181526006602052604090206108c490836123aa565b335f81815260036020908152604080832073ffffffffffffffffffffffffffffffffffffffff871680855290835281842080547fffffffffffffffffffffffffffffffffffffffffffffffffffffffffffffff001687151590811790915591519182529293917fceb576d9f15e4e200fdb5096d64d5dfd667e16def20c1eefd14256d8e3faa267910160405180910390a350600192915050565b5f807fc090fc4683624cfc3884e9d8de5eca132f2d0ec062aff75d43c0465d5ceeab235c610f8957610f897f54e3ca0d00000000000000000000000000000000000000000000000000000000611c51565b610f91611f81565b60a086205f818152600660205260409020610fab81611fe9565b6080880151610fd39073ffffffffffffffffffffffffffffffffffffffff1689898989612403565b5f6110476040518060c001604052803373ffffffffffffffffffffffffffffffffffffffff1681526020018a5f015160020b81526020018a6020015160020b81526020016110248b604001516125c4565b600f0b81526060808d015160020b60208301528b015160409091015283906125f9565b945090506110558185612a40565b94503373ffffffffffffffffffffffffffffffffffffffff16837ff208f4912782fd25c7f114ca3723a2d5dd6f3bcc3ac8db5af63baa85f711d5ec8a5f01518b602001518c604001518d606001516040516110d19493929190600294850b81529290930b60208301526040820152606081019190915260800190565b60405180910390a360808901515f906111049073ffffffffffffffffffffffffffffffffffffffff168b8b898c8c612a73565b9096509050801561111e5761111e8a828c60800151612220565b6111298a8733612220565b5050505094509492505050565b5f61113f611f81565b6060850151617fff60029190910b1315611183576060850151611183907fb70024f80000000000000000000000000000000000000000000000000000000090612c45565b600160020b856060015160020b12156111c65760608501516111c6907fe9e905880000000000000000000000000000000000000000000000000000000090612c45565b8451602086015173ffffffffffffffffffffffffffffffffffffffff90811691161061121e578451602086015161121e917f6e6c98300000000000000000000000000000000000000000000000000000000091612c54565b61124f8560400151866080015173ffffffffffffffffffffffffffffffffffffffff16612c9090919063ffffffff16565b611283576080850151611283907fe65af6a00000000000000000000000000000000000000000000000000000000090612d5e565b5f611296866040015162ffffff16612d80565b60808701519091506112c19073ffffffffffffffffffffffffffffffffffffffff1687878787612da5565b60a086205f6112cf88612e7c565b5f8481526006602052604090209092506112ec915088838661302d565b60808901519094506113189073ffffffffffffffffffffffffffffffffffffffff168989878a8a613108565b876020015173ffffffffffffffffffffffffffffffffffffffff16885f015173ffffffffffffffffffffffffffffffffffffffff16837fdd466e674ea557f56295e2d0218a125ea4b4f0f6f3307b95f85e6110838d64388b604001518c606001518d608001518d8b6040516113d195949392919062ffffff959095168552600293840b602086015273ffffffffffffffffffffffffffffffffffffffff928316604086015291166060840152900b608082015260a00190565b60405180910390a4505050949350505050565b60025473ffffffffffffffffffffffffffffffffffffffff16331461142c5761142c7f48f5c3ed00000000000000000000000000000000000000000000000000000000611c51565b6103e9610fff821610623e900062fff00083161016611474576114747fa7abe2f70000000000000000000000000000000000000000000000000000000062ffffff8316612d5e565b60a0822061149682611490835f90815260066020526040902090565b906131e1565b60405162ffffff8316815281907fe9c42593e71f84403b84352cd168d693e2c9fcd1fdbcc3feb21d92b43e6696f99060200160405180910390a2505050565b7fc090fc4683624cfc3884e9d8de5eca132f2d0ec062aff75d43c0465d5ceeab235c611524576115247f54e3ca0d00000000000000000000000000000000000000000000000000000000611c51565b335f90815273ffffffffffffffffffffffffffffffffffffffff8316602052604081205c9061155283611c59565b90508181600f0b14611587576115877fbda73abf00000000000000000000000000000000000000000000000000000000611c51565b6109a584611594836163ce565b33611c9e565b6002545f9073ffffffffffffffffffffffffffffffffffffffff1633146115e4576115e47f48f5c3ed00000000000000000000000000000000000000000000000000000000611c51565b81156115f05781611616565b73ffffffffffffffffffffffffffffffffffffffff83165f908152600160205260409020545b73ffffffffffffffffffffffffffffffffffffffff84165f9081526001602052604081208054929350839290919061164f90849061629c565b90915550610838905073ffffffffffffffffffffffffffffffffffffffff84168583611cfe565b606060405180602082528360208301526040820191508360051b8201855b80355c845260209384019301818410611694575b5081810382f35b6116b7613235565b73ffffffffffffffffffffffffffffffffffffffff81166116d55750565b5f6116f58273ffffffffffffffffffffffffffffffffffffffff166132a2565b90506117018282613351565b5050565b606060405180602082528360208301526040820191508360051b8201855b803554845260209384019301818410156116a857611723565b5f815c5f5260205ff35b5f5473ffffffffffffffffffffffffffffffffffffffff1633146117c6576040517f08c379a000000000000000000000000000000000000000000000000000000000815260206004820152600c60248201527f554e415554484f52495a454400000000000000000000000000000000000000006044820152606401610b27565b5f80547fffffffffffffffffffffffff00000000000000000000000000000000000000001673ffffffffffffffffffffffffffffffffffffffff83169081178255604051909133917f8be0079c531659141344cd1fd0a4f28419497f9722a3daafe3b4186f6b6457e09190a350565b5f7fc090fc4683624cfc3884e9d8de5eca132f2d0ec062aff75d43c0465d5ceeab235c611885576118857f54e3ca0d00000000000000000000000000000000000000000000000000000000611c51565b61188d611f81565b83602001515f036118c1576118c17fbe8b850700000000000000000000000000000000000000000000000000000000611c51565b60a085205f8181526006602052604090206118db81611fe9565b60808701515f90819081906119099073ffffffffffffffffffffffffffffffffffffffff168b8b8b8b6133b1565b80935081955082945050505061198584866040518060a001604052808e6060015160020b81526020018d5f0151151581526020018681526020018d6040015173ffffffffffffffffffffffffffffffffffffffff1681526020018562ffffff168152508c5f015161197e578d60200151613558565b8d51613558565b60808b01519096505f92506119b6915073ffffffffffffffffffffffffffffffffffffffff168a8a888b8b88613669565b909550905080156119d0576119d089828b60800151612220565b6119db898633612220565b50505050949350505050565b7fc090fc4683624cfc3884e9d8de5eca132f2d0ec062aff75d43c0465d5ceeab235c611a3657611a367f54e3ca0d00000000000000000000000000000000000000000000000000000000611c51565b81611a448161159484611c59565b6109a58473ffffffffffffffffffffffffffffffffffffffff831684613804565b5f3373ffffffffffffffffffffffffffffffffffffffff861614801590611abc575073ffffffffffffffffffffffffffffffffffffffff85165f90815260036020908152604080832033845290915290205460ff16155b15611b655773ffffffffffffffffffffffffffffffffffffffff85165f90815260056020908152604080832033845282528083208684529091529020547fffffffffffffffffffffffffffffffffffffffffffffffffffffffffffffffff8114611b6357611b2a838261629c565b73ffffffffffffffffffffffffffffffffffffffff87165f90815260056020908152604080832033845282528083208884529091529020555b505b73ffffffffffffffffffffffffffffffffffffffff85165f90815260046020908152604080832086845290915281208054849290611ba490849061629c565b909155505073ffffffffffffffffffffffffffffffffffffffff84165f90815260046020908152604080832086845290915281208054849290611be89084906162af565b90915550506040805133815260208101849052849173ffffffffffffffffffffffffffffffffffffffff80881692908916917f1b3d7edb2e9c0b0e7c525b20aaaef0f5940d2ed71663c7d39266ecafac728859910160405180910390a45060015b949350505050565b805f5260045ffd5b5f6f800000000000000000000000000000008210611c9a57611c9a7f93dafdf100000000000000000000000000000000000000000000000000000000611c51565b5090565b81600f0b5f03611cad57505050565b5f80611cd073ffffffffffffffffffffffffffffffffffffffff86168486613915565b91509150805f03611ce857611ce361395b565b611cf7565b815f03611cf757611cf76139a9565b5050505050565b5f73ffffffffffffffffffffffffffffffffffffffff8416611d58575f805f8085875af1905080611d5357611d537f8549db5900000000000000000000000000000000000000000000000000000000846139f7565b6109a5565b6040517fa9059cbb00000000000000000000000000000000000000000000000000000000815273ffffffffffffffffffffffffffffffffffffffff8416600482015282602482015260205f6044835f895af13d15601f3d1160015f511416171691505f81525f60208201525f604082015250806109a5576109a57fb12c5f9c00000000000000000000000000000000000000000000000000000000856139f7565b5f7f27e098c505d44ec3574004bca052aabf76bd35004c182099d8c575fb238593b95c73ffffffffffffffffffffffffffffffffffffffff8116611e3f57349150611ec9565b3415611e6e57611e6e7f19d245cf00000000000000000000000000000000000000000000000000000000611c51565b7f1e0745a7db1623981f0b2a5d4232364c00787266eb75ad546f190e6cebe9bd955c5f611eb073ffffffffffffffffffffffffffffffffffffffff84166132a2565b9050611ebc828261629c565b9350611ec6613a2a565b50505b611edc81611ed684611c59565b85611c9e565b50919050565b73ffffffffffffffffffffffffffffffffffffffff83165f90815260046020908152604080832085845290915281208054839290611f219084906162af565b90915550506040805133815260208101839052839173ffffffffffffffffffffffffffffffffffffffff8616915f917f1b3d7edb2e9c0b0e7c525b20aaaef0f5940d2ed71663c7d39266ecafac72885991015b60405180910390a4505050565b3073ffffffffffffffffffffffffffffffffffffffff7f00000000000000000000000000000000000000000000000000000000000000001614611fe757611fe77f0d89438e00000000000000000000000000000000000000000000000000000000611c51565b565b805473ffffffffffffffffffffffffffffffffffffffff165f03612030576120307f486aa30700000000000000000000000000000000000000000000000000000000611c51565b50565b853373ffffffffffffffffffffffffffffffffffffffff82161461210d57602087161561210d5761210b3387878787876040516024016120789695949392919061640a565b604080517fffffffffffffffffffffffffffffffffffffffffffffffffffffffffffffffe08184030181529190526020810180517bffffffffffffffffffffffffffffffffffffffffffffffffffffffff167fb6a8b0fa0000000000000000000000000000000000000000000000000000000017905273ffffffffffffffffffffffffffffffffffffffff891690613a4f565b505b50505050505050565b60038301545f906fffffffffffffffffffffffffffffffff1680820361215f5761215f7fa74f97ab00000000000000000000000000000000000000000000000000000000611c51565b61219661216b85611c59565b5f0361217685611c59565b5f0360809190911b6fffffffffffffffffffffffffffffffff9091161790565b915083156121d8576121cc84700100000000000000000000000000000000836fffffffffffffffffffffffffffffffff16613b42565b60018601805490910190555b82156122185761220c83700100000000000000000000000000000000836fffffffffffffffffffffffffffffffff16613b42565b60028601805490910190555b509392505050565b8251612236906122308460801d90565b83611c9e565b6108c4836020015161223084600f0b90565b853373ffffffffffffffffffffffffffffffffffffffff82161461210d57601087161561210d5761210b33878787878760405160240161228d9695949392919061640a565b604080517fffffffffffffffffffffffffffffffffffffffffffffffffffffffffffffffe08184030181529190526020810180517bffffffffffffffffffffffffffffffffffffffffffffffffffffffff167fe1b4af690000000000000000000000000000000000000000000000000000000017905273ffffffffffffffffffffffffffffffffffffffff891690613a4f565b60017fc090fc4683624cfc3884e9d8de5eca132f2d0ec062aff75d43c0465d5ceeab235d565b5f7fc090fc4683624cfc3884e9d8de5eca132f2d0ec062aff75d43c0465d5ceeab235d565b620f424062ffffff82161115612030576120307f140021130000000000000000000000000000000000000000000000000000000062ffffff8316612d5e565b6123b382611fe9565b81547fffffff000000ffffffffffffffffffffffffffffffffffffffffffffffffffff167cffffff000000000000000000000000000000000000000000000000000060d083901b16175b90915550565b843373ffffffffffffffffffffffffffffffffffffffff8216146125bc575f84604001511380156124375750610800861615155b156124f1576124eb33868686866040516024016124589594939291906164d6565b604080517fffffffffffffffffffffffffffffffffffffffffffffffffffffffffffffffe08184030181529190526020810180517bffffffffffffffffffffffffffffffffffffffffffffffffffffffff167f259982e50000000000000000000000000000000000000000000000000000000017905273ffffffffffffffffffffffffffffffffffffffff881690613a4f565b506125bc565b5f8460400151131580156125085750610200861615155b156125bc5761210d33868686866040516024016125299594939291906164d6565b604080517fffffffffffffffffffffffffffffffffffffffffffffffffffffffffffffffe08184030181529190526020810180517bffffffffffffffffffffffffffffffffffffffffffffffffffffffff167f21d0ee700000000000000000000000000000000000000000000000000000000017905273ffffffffffffffffffffffffffffffffffffffff881690613a4f565b505050505050565b80600f81900b8114610c3457610c347f93dafdf100000000000000000000000000000000000000000000000000000000611c51565b6060810151602082015160408301515f92839290916126188282613bfd565b604080516080810182525f80825260208201819052918101829052606081019190915283600f0b5f146127ea576126518884865f613cc4565b6fffffffffffffffffffffffffffffffff166020830152151581526126798883866001613cc4565b6fffffffffffffffffffffffffffffffff166060830152151560408201525f600f85900b126127af575f6126f7886080015160020b7ffffffffffffffffffffffffffffffffffffffffffffffffffffffffffff276188190058102620d89e8829005820203056001016fffffffffffffffffffffffffffffffff0490565b9050806fffffffffffffffffffffffffffffffff1682602001516fffffffffffffffffffffffffffffffff161115612753576127537fb8e3c3850000000000000000000000000000000000000000000000000000000085612c45565b806fffffffffffffffffffffffffffffffff1682606001516fffffffffffffffffffffffffffffffff1611156127ad576127ad7fb8e3c3850000000000000000000000000000000000000000000000000000000084612c45565b505b8051156127cb5760808701516127cb9060058a01908590613d99565b8060400151156127ea5760808701516127ea9060058a01908490613d99565b5f806127f78a8686613deb565b8a5160a08c015160408051602681019290925260068083018a9052600383018b9052928252603a600c8301205f838301819052602080850182905293819052908152928f01909152812092945090925080612854838a8787613e9f565b9150915061288961286483611c59565b61286d83611c59565b6fffffffffffffffffffffffffffffffff1660809190911b1790565b995050505050505f84600f0b12156128f2578051156128c557600283810b5f90815260048a016020526040812081815560018101829055909101555b8060400151156128f257600282810b5f90815260048a016020526040812081815560018101829055909101555b5082600f0b5f14612a365786545f8061290e8360a01c60020b90565b73ffffffffffffffffffffffffffffffffffffffff8416915091508460020b8260020b121561296a5761296361295d61295861294988613fd0565b61295288613fd0565b8a6142cd565b6125c4565b60801b90565b9750612a32565b8360020b8260020b1215612a0d576129a161298b6129588361295288613fd0565b61286d61295861299a89613fd0565b858b614305565b60038b01549098506129c5906fffffffffffffffffffffffffffffffff1687614331565b60038b0180547fffffffffffffffffffffffffffffffff00000000000000000000000000000000166fffffffffffffffffffffffffffffffff92909216919091179055612a32565b612a2f5f61286d612958612a2089613fd0565b612a2989613fd0565b8b614305565b97505b5050505b5050509250929050565b5f608082811d9084901d01600f83810b9085900b01612a6a612a61836125c4565b61286d836125c4565b95945050505050565b5f8073ffffffffffffffffffffffffffffffffffffffff88163303612a9c57508390505f612c3a565b8491505f86604001511315612b8257610400881615612b7d57612b6e338888888888604051602401612ad3969594939291906165b8565b604080517fffffffffffffffffffffffffffffffffffffffffffffffffffffffffffffffe08184030181529190526020810180517bffffffffffffffffffffffffffffffffffffffffffffffffffffffff167f5a2a81000000000000000000000000000000000000000000000000000000000017905260028a1615155b73ffffffffffffffffffffffffffffffffffffffff8b169190614361565b9050612b7a82826143bb565b91505b612c3a565b610100881615612c3a57612c2b338888888888604051602401612baa969594939291906165b8565b604080517fffffffffffffffffffffffffffffffffffffffffffffffffffffffffffffffe08184030181529190526020810180517bffffffffffffffffffffffffffffffffffffffffffffffffffffffff167f8db2b6520000000000000000000000000000000000000000000000000000000017905260018a161515612b50565b9050612c3782826143bb565b91505b965096945050505050565b815f528060020b60045260245ffd5b825f5273ffffffffffffffffffffffffffffffffffffffff821660045273ffffffffffffffffffffffffffffffffffffffff811660245260445ffd5b5f60808316158015612ca457506008831615155b15612cb057505f610765565b60408316158015612cc357506004831615155b15612ccf57505f610765565b6104008316158015612ce357506002831615155b15612cef57505f610765565b6101008316158015612d0357506001831615155b15612d0f57505f610765565b73ffffffffffffffffffffffffffffffffffffffff831615612d4d57613fff8316151580612d4857506280000062ffffff831614610838565b610838565b5062ffffff16628000001415919050565b815f5273ffffffffffffffffffffffffffffffffffffffff811660045260245ffd5b5f6280000062ffffff831603612d9757505f919050565b611c9a8262ffffff1661236b565b843373ffffffffffffffffffffffffffffffffffffffff8216146125bc576120008616156125bc5761210d3386868686604051602401612de99594939291906166a1565b604080517fffffffffffffffffffffffffffffffffffffffffffffffffffffffffffffffe08184030181529190526020810180517bffffffffffffffffffffffffffffffffffffffffffffffffffffffff167f3440d8200000000000000000000000000000000000000000000000000000000017905273ffffffffffffffffffffffffffffffffffffffff881690613a4f565b6002545f90819073ffffffffffffffffffffffffffffffffffffffff1615613028577f00000000000000000000000000000000000000000000000000000000000000005a1015612eef57612eef7f1ee4970200000000000000000000000000000000000000000000000000000000611c51565b6002546040517f00000000000000000000000000000000000000000000000000000000000000009173ffffffffffffffffffffffffffffffffffffffff16905f90612f3e908790602401616770565b604080517fffffffffffffffffffffffffffffffffffffffffffffffffffffffffffffffe08184030181529190526020810180517bffffffffffffffffffffffffffffffffffffffffffffffffffffffff167f553bfc370000000000000000000000000000000000000000000000000000000017815281519192505f918291829190828789f13d6020141695508515612fe1576040513d5f823e805191505f8152505b858015612ff257508062ffffff1681145b801561300f57506103e9610fff821610623e900062fff000831610165b61301a575f8061301e565b6001815b9096509450505050505b915091565b83545f9073ffffffffffffffffffffffffffffffffffffffff1615613075576130757f7983c05100000000000000000000000000000000000000000000000000000000611c51565b61307e846143dc565b90507cffffff000000000000000000000000000000000000000000000000000060d083901b1676ffffff000000000000000000000000000000000000000060a083901b1673ffffffffffffffffffffffffffffffffffffffff86161760b885901b79ffffff0000000000000000000000000000000000000000000000161717909455509192915050565b853373ffffffffffffffffffffffffffffffffffffffff82161461210d5761100087161561210d5761210b33878787878760405160240161314e969594939291906167f3565b604080517fffffffffffffffffffffffffffffffffffffffffffffffffffffffffffffffe08184030181529190526020810180517bffffffffffffffffffffffffffffffffffffffffffffffffffffffff167fa910f80f0000000000000000000000000000000000000000000000000000000017905273ffffffffffffffffffffffffffffffffffffffff891690613a4f565b6131ea82611fe9565b81547fffffffffffff000000ffffffffffffffffffffffffffffffffffffffffffffff1679ffffff000000000000000000000000000000000000000000000060b883901b16176123fd565b6132757f27e098c505d44ec3574004bca052aabf76bd35004c182099d8c575fb238593b95c73ffffffffffffffffffffffffffffffffffffffff166147aa565b611fe757611fe77f996caf6500000000000000000000000000000000000000000000000000000000611c51565b5f73ffffffffffffffffffffffffffffffffffffffff82166132c5575047919050565b6040517f70a0823100000000000000000000000000000000000000000000000000000000815230600482015273ffffffffffffffffffffffffffffffffffffffff8316906370a0823190602401602060405180830381865afa15801561332d573d5f803e3d5ffd5b505050506040513d601f19601f8201168201806040525081019061076591906168cc565b73ffffffffffffffffffffffffffffffffffffffff82167f27e098c505d44ec3574004bca052aabf76bd35004c182099d8c575fb238593b95d807f1e0745a7db1623981f0b2a5d4232364c00787266eb75ad546f190e6cebe9bd955d5050565b60208301515f8073ffffffffffffffffffffffffffffffffffffffff881633036133dd575f915061354d565b608088161561354d575f61347f89338a8a8a8a6040516024016134049594939291906168e3565b604080517fffffffffffffffffffffffffffffffffffffffffffffffffffffffffffffffe08184030181529190526020810180517bffffffffffffffffffffffffffffffffffffffffffffffffffffffff167f575e24b400000000000000000000000000000000000000000000000000000000179052613a4f565b905080516060146134b3576134b37f1e048e1d00000000000000000000000000000000000000000000000000000000611c51565b604088015162ffffff1662800000036134ce57606081015191505b600889161561354b57604081015192505f6134e98460801d90565b905080600f0b5f14613549575f8512613506600f83900b876169cb565b955080613515575f8612613519565b5f86135b15613547576135477ffa0b71d600000000000000000000000000000000000000000000000000000000611c51565b505b505b505b955095509592505050565b5f8080808061356789886147c8565b93509350935093505f8311156135a25773ffffffffffffffffffffffffffffffffffffffff86165f9081526001602052604090208054840190555b33887f40e9cecb9f5f1f1c5b9c97dec2917b7ee92e57ba5563708daca94dd84ad7112f6135cf8760801d90565b6135d988600f0b90565b60408087015160a088015160608901519251613654959493908b90600f96870b81529490950b602085015273ffffffffffffffffffffffffffffffffffffffff9290921660408401526fffffffffffffffffffffffffffffffff16606083015260020b608082015262ffffff9190911660a082015260c00190565b60405180910390a35091979650505050505050565b5f8073ffffffffffffffffffffffffffffffffffffffff8916330361369257508490505f6137f8565b5f61369d8460801d90565b90505f6136aa85600f0b90565b905060408b161561377d57613770612958338c8c8c8c8c6040516024016136d6969594939291906169f2565b604080517fffffffffffffffffffffffffffffffffffffffffffffffffffffffffffffffe08184030181529190526020810180517bffffffffffffffffffffffffffffffffffffffffffffffffffffffff167fb47b2fb10000000000000000000000000000000000000000000000000000000017905260048e16151573ffffffffffffffffffffffffffffffffffffffff8f169190614361565b61377a9082616ae1565b90505b5f81600f0b5f141580613793575082600f0b5f14155b156137f057895160208b01515f13901515146137c7576fffffffffffffffffffffffffffffffff8316608083901b176137e1565b6fffffffffffffffffffffffffffffffff8216608084901b175b90506137ed89826143bb565b98505b889450925050505b97509795505050505050565b3373ffffffffffffffffffffffffffffffffffffffff8416811480159061385d575073ffffffffffffffffffffffffffffffffffffffff8085165f9081526003602090815260408083209385168352929052205460ff16155b1561390a5773ffffffffffffffffffffffffffffffffffffffff8085165f9081526005602090815260408083209385168352928152828220868352905220547fffffffffffffffffffffffffffffffffffffffffffffffffffffffffffffffff8114613908576138cd838261629c565b73ffffffffffffffffffffffffffffffffffffffff8087165f9081526005602090815260408083209387168352928152828220888352905220555b505b6109a5848484615091565b73ffffffffffffffffffffffffffffffffffffffff8281165f90815290841660205260408120805c919061394d600f85900b846169cb565b915081815d50935093915050565b7f7d4b3164c6e45b97e7d87b7125a44c5828d005af88f9d751cfd78729c5d99a0b5c600181039050807f7d4b3164c6e45b97e7d87b7125a44c5828d005af88f9d751cfd78729c5d99a0b5d50565b7f7d4b3164c6e45b97e7d87b7125a44c5828d005af88f9d751cfd78729c5d99a0b5c600181019050807f7d4b3164c6e45b97e7d87b7125a44c5828d005af88f9d751cfd78729c5d99a0b5d50565b3d60405183815282600482015260406024820152816044820152815f606483013e602080601f8401040260640191508181fd5b5f7f27e098c505d44ec3574004bca052aabf76bd35004c182099d8c575fb238593b95d565b60605f805f8451602086015f885af1905080613a8f57613a8f7f319d54c300000000000000000000000000000000000000000000000000000000856139f7565b6040519150601f19603f3d011682016040523d82523d5f602084013e602082511080613b0d575060208301517fffffffff0000000000000000000000000000000000000000000000000000000016613ae8836020015190565b7fffffffff000000000000000000000000000000000000000000000000000000001614155b15613b3b57613b3b7f1e048e1d00000000000000000000000000000000000000000000000000000000611c51565b5092915050565b5f838302817fffffffffffffffffffffffffffffffffffffffffffffffffffffffffffffffff85870982811083820303915050808411613b80575f80fd5b805f03613b9257508290049050610838565b5f848688095f868103871696879004966002600389028118808a02820302808a02820302808a02820302808a02820302808a02820302808a02909103029181900381900460010186841190950394909402919094039290920491909117919091029150509392505050565b8060020b8260020b12613c3557613c357fc4433ed5000000000000000000000000000000000000000000000000000000008383615127565b7ffffffffffffffffffffffffffffffffffffffffffffffffffffffffffff27618600283900b1215613c8b57613c8b7fd5e2f7ab0000000000000000000000000000000000000000000000000000000083612c45565b620d89e8600282900b1315611701576117017f1ad777f80000000000000000000000000000000000000000000000000000000082612c45565b600283900b5f908152600485016020526040812080548291906fffffffffffffffffffffffffffffffff81169060801d613cfe8288614331565b6fffffffffffffffffffffffffffffffff808216159084168015919091141596509094505f03613d5157885460a01c60020b60020b8860020b13613d51576001808a0154908401556002808a0154908401555b5f86613d6657613d618883616ae1565b613d70565b613d708883616b2f565b90508060801b6fffffffffffffffffffffffffffffffff86161784555050505094509492505050565b600291820b910b80820715613dc65760405163d4d8f3e681528260208201528160408201526044601c8201fd5b80820591508160081d5f528260205260405f20600160ff84161b815418815550505050565b600282810b5f81815260048601602052604080822085850b83529082208754929485949293919260a09290921c900b90811215613e41578160010154836001015403945081600201548360020154039350613e94565b8560020b8160020b12613e6d578260010154826001015403945082600201548260020154039350613e94565b81600101548360010154896001015403039450816002015483600201548960020154030393505b505050935093915050565b83545f9081906fffffffffffffffffffffffffffffffff16600f86900b8203613f0957806fffffffffffffffffffffffffffffffff165f03613f0457613f047faefeb92400000000000000000000000000000000000000000000000000000000611c51565b613f50565b613f138187614331565b87547fffffffffffffffffffffffffffffffff00000000000000000000000000000000166fffffffffffffffffffffffffffffffff919091161787555b613f8487600101548603826fffffffffffffffffffffffffffffffff16700100000000000000000000000000000000613b42565b9250613fba87600201548503826fffffffffffffffffffffffffffffffff16700100000000000000000000000000000000613b42565b6001880195909555505060029094015591929050565b60020b5f60ff82901d80830118620d89e8811115614012576140127f8b86327a0000000000000000000000000000000000000000000000000000000084612c45565b7001fffcb933bd6fad37aa2d162d1a594001600182160270010000000000000000000000000000000018600282161561405b576ffff97272373d413259a46990580e213a0260801c5b600482161561407a576ffff2e50f5f656932ef12357cf3c7fdcc0260801c5b6008821615614099576fffe5caca7e10e4e61c3624eaa0941cd00260801c5b60108216156140b8576fffcb9843d60f6159c9db58835c9266440260801c5b60208216156140d7576fff973b41fa98c081472e6896dfb254c00260801c5b60408216156140f6576fff2ea16466c96a3843ec78b326b528610260801c5b6080821615614115576ffe5dee046a99a2a811c461f1969c30530260801c5b610100821615614135576ffcbe86c7900a88aedcffc83b479aa3a40260801c5b610200821615614155576ff987a7253ac413176f2b074cf7815e540260801c5b610400821615614175576ff3392b0822b70005940c7a398e4b70f30260801c5b610800821615614195576fe7159475a2c29b7443b29c7fa6e889d90260801c5b6110008216156141b5576fd097f3bdfd2022b8845ad8f792aa58250260801c5b6120008216156141d5576fa9f746462d870fdf8a65dc1f90e061e50260801c5b6140008216156141f5576f70d869a156d2a1b890bb3df62baf32f70260801c5b618000821615614215576f31be135f97d08fd981231505542fcfa60260801c5b62010000821615614236576f09aa508b5b7a84e1c677de54f3e99bc90260801c5b62020000821615614256576e5d6af8dedb81196699c329225ee6040260801c5b62040000821615614275576d2216e584f5fa1ea926041bedfe980260801c5b62080000821615614292576b048a170391f7dc42444e8fa20260801c5b5f8413156142bd577fffffffffffffffffffffffffffffffffffffffffffffffffffffffffffffffff045b63ffffffff0160201c9392505050565b5f8082600f0b126142f4576142ed6142e88585856001615144565b615281565b5f03611c49565b611c496142e88585855f035f615144565b5f8082600f0b12614320576142ed6142e885858560016152b3565b611c496142e88585855f035f6152b3565b6fffffffffffffffffffffffffffffffff8216600f82900b01608081901c15610765576393dafdf15f526004601cfd5b5f8061436d8585613a4f565b90508261437d575f915050610838565b80516040146143af576143af7f1e048e1d00000000000000000000000000000000000000000000000000000000611c51565b60400151949350505050565b5f608082811d9084901d03600f83810b9085900b03612a6a612a61836125c4565b5f73fffd8963efd1fc6a506488495d951d51639616827ffffffffffffffffffffffffffffffffffffffffffffffffffffffffefffd895d830173ffffffffffffffffffffffffffffffffffffffff16111561445b5761445b7f614875240000000000000000000000000000000000000000000000000000000083612d5e565b77ffffffffffffffffffffffffffffffffffffffff00000000602083901b166fffffffffffffffffffffffffffffffff811160071b81811c67ffffffffffffffff811160061b90811c63ffffffff811160051b90811c61ffff811160041b90811c60ff8111600390811b91821c600f811160021b90811c918211600190811b92831c9790881196179094179092171790911717176080811061450557607f810383901c915061450f565b80607f0383901b91505b908002607f81811c60ff83811c9190911c800280831c81831c1c800280841c81841c1c800280851c81851c1c800280861c81861c1c800280871c81871c1c800280881c81881c1c800280891c81891c1c8002808a1c818a1c1c8002808b1c818b1c1c8002808c1c818c1c1c8002808d1c818d1c1c8002808e1c9c81901c9c909c1c80029c8d901c9e9d7fffffffffffffffffffffffffffffffffffffffffffffffffffffffffffffff808f0160401b60c09190911c678000000000000000161760c19b909b1c674000000000000000169a909a1760c29990991c672000000000000000169890981760c39790971c671000000000000000169690961760c49590951c670800000000000000169490941760c59390931c670400000000000000169290921760c69190911c670200000000000000161760c79190911c670100000000000000161760c89190911c6680000000000000161760c99190911c6640000000000000161760ca9190911c6620000000000000161760cb9190911c6610000000000000161760cc9190911c6608000000000000161760cd9190911c66040000000000001617693627a301d71055774c8581027ffffffffffffffffffffffffffffffffffd709b7e5480fba5a50fed5e62ffc5568101608090811d906fdb2df09e81959a81455e260799a0632f8301901d600281810b9083900b14614756578873ffffffffffffffffffffffffffffffffffffffff1661472e82613fd0565b73ffffffffffffffffffffffffffffffffffffffff1611156147505781614758565b80614758565b815b9998505050505050505050565b60a01b76ffffff0000000000000000000000000000000000000000167fffffffffffffffffff000000ffffffffffffffffffffffffffffffffffffffff919091161790565b5f73ffffffffffffffffffffffffffffffffffffffff821615610765565b6040805160c0810182525f80825260208201819052918101829052606081018290526080810182905260a08101829052819081908554602086015160038801546fffffffffffffffffffffffffffffffff165f8261482e57610fff60c485901c16614838565b610fff60b885901c165b60408a81015187525f602088015273ffffffffffffffffffffffffffffffffffffffff86169087015260a085901c60020b606087015261ffff16905082614883578960020154614889565b89600101545b6080868101919091526fffffffffffffffffffffffffffffffff831660a08701528901515f9062400000166148c75760d085901c62ffffff166148d9565b6148d98a6080015162ffffff1661531e565b9050811561490757620f424062ffffff821661ffff8416818102838106151593900492909201910103614909565b805b60408b01519097505f13905062ffffff8716620f424014801561492a575080155b15614958576149587f9620624600000000000000000000000000000000000000000000000000000000611c51565b89604001515f03614973575f80985098505050505050615088565b8315614a575760608a015173ffffffffffffffffffffffffffffffffffffffff8681169116106149e5576149e573ffffffffffffffffffffffffffffffffffffffff86165b60608c01517f7c9c6e8f00000000000000000000000000000000000000000000000000000000919061532d565b6401000276a373ffffffffffffffffffffffffffffffffffffffff168a6060015173ffffffffffffffffffffffffffffffffffffffff161015614a525760608a0151614a52907f9e4d7cc70000000000000000000000000000000000000000000000000000000090612d5e565b614b15565b60608a015173ffffffffffffffffffffffffffffffffffffffff868116911611614a9a57614a9a73ffffffffffffffffffffffffffffffffffffffff86166149b8565b73fffd8963efd1fc6a506488495d951d5263988d2673ffffffffffffffffffffffffffffffffffffffff168a6060015173ffffffffffffffffffffffffffffffffffffffff1610614b155760608a0151614b15907f9e4d7cc70000000000000000000000000000000000000000000000000000000090612d5e565b6040805160e0810182525f80825260208201819052918101829052606081018290526080810182905260a0810182905260c08101919091525b86511580614b8f57508a6060015173ffffffffffffffffffffffffffffffffffffffff16876040015173ffffffffffffffffffffffffffffffffffffffff16145b614f4257604087015173ffffffffffffffffffffffffffffffffffffffff16815260608701518b51614bc69160058f019188615370565b1515604083015260020b602082018190527ffffffffffffffffffffffffffffffffffffffffffffffffffffffffffff2761812614c24577ffffffffffffffffffffffffffffffffffffffffffffffffffffffffffff2761860208201525b620d89e860020b816020015160020b12614c4257620d89e860208201525b614c4f8160200151613fd0565b73ffffffffffffffffffffffffffffffffffffffff908116606083810182905260408a0151908e0151614c9d939192911680821891811160ff8a1618919091021860a08a01518a518c615497565b60c085015260a0840152608083015273ffffffffffffffffffffffffffffffffffffffff16604088015281614d0e57614cd98160a00151615281565b875103875260c08101516080820151614cf5916142e8916162af565b87602001818151614d069190616b7d565b905250614d49565b614d218160c00151826080015101615281565b875101875260a0810151614d3490615281565b87602001818151614d4591906169cb565b9052505b8215614d85575f620f4240848360c001518460800151010281614d6e57614d6e616b9c565b60c084018051929091049182900390529990990198505b60a08701516fffffffffffffffffffffffffffffffff1615614de357614dd78160c001517001000000000000000000000000000000008960a001516fffffffffffffffffffffffffffffffff16613b42565b60808801805190910190525b806060015173ffffffffffffffffffffffffffffffffffffffff16876040015173ffffffffffffffffffffffffffffffffffffffff1603614eed57806040015115614ed5575f8086614e3e578d600101548960800151614e49565b88608001518e600201545b915091505f614ea18f85602001518585600292830b5f908152600490940160205260409093206001810180549092039091559081018054909203909155547001000000000000000000000000000000009004600f0b90565b90508715614eac575f035b614eba8a60a0015182614331565b6fffffffffffffffffffffffffffffffff1660a08b01525050505b602081015160ff8616900360020b6060880152614b4e565b805f015173ffffffffffffffffffffffffffffffffffffffff16876040015173ffffffffffffffffffffffffffffffffffffffff1614614f3d57614f3487604001516143dc565b60020b60608801525b614b4e565b614f9f8760400151614f6189606001518961476590919063ffffffff16565b7fffffffffffffffffffffffff00000000000000000000000000000000000000001673ffffffffffffffffffffffffffffffffffffffff9091161790565b8c5560a08701516fffffffffffffffffffffffffffffffff8581169116146150095760a087015160038d0180547fffffffffffffffffffffffffffffffff00000000000000000000000000000000166fffffffffffffffffffffffffffffffff9092169190911790555b8461501d57608087015160028d0155615028565b608087015160018d01555b8115158515151461505c5761505561504388602001516125c4565b61286d895f01518e60400151036125c4565b9950615081565b61507e615071885f01518d60400151036125c4565b61286d89602001516125c4565b99505b5050505050505b92959194509250565b73ffffffffffffffffffffffffffffffffffffffff83165f908152600460209081526040808320858452909152812080548392906150d090849061629c565b9091555050604080513381526020810183905283915f9173ffffffffffffffffffffffffffffffffffffffff8716917f1b3d7edb2e9c0b0e7c525b20aaaef0f5940d2ed71663c7d39266ecafac7288599101611f74565b6040518381528260020b60048201528160020b6024820152604481fd5b5f8373ffffffffffffffffffffffffffffffffffffffff168573ffffffffffffffffffffffffffffffffffffffff16111561517d579293925b73ffffffffffffffffffffffffffffffffffffffff85166151a45762bfc9215f526004601cfd5b7bffffffffffffffffffffffffffffffff000000000000000000000000606084901b1673ffffffffffffffffffffffffffffffffffffffff8686031683615230578673ffffffffffffffffffffffffffffffffffffffff1661521d83838973ffffffffffffffffffffffffffffffffffffffff16613b42565b8161522a5761522a616b9c565b04615276565b61527661525483838973ffffffffffffffffffffffffffffffffffffffff1661562a565b8873ffffffffffffffffffffffffffffffffffffffff16808204910615150190565b979650505050505050565b805f811215610c3457610c347f93dafdf100000000000000000000000000000000000000000000000000000000611c51565b5f73ffffffffffffffffffffffffffffffffffffffff8481169086160360ff81901d908101186c010000000000000000000000006fffffffffffffffffffffffffffffffff8516615305818484613b42565b9350845f83858409111684019350505050949350505050565b62bfffff8116610c348161236b565b60405183815273ffffffffffffffffffffffffffffffffffffffff8316600482015273ffffffffffffffffffffffffffffffffffffffff82166024820152604481fd5b5f80600284810b9086900b818107831391900503831561540a57600281900b60081d600181810b5f90815260208a905260409020547fffffffffffffffffffffffffffffffffffffffffffffffffffffffffffffffff60ff85168381019390931b019081168015159550856153ec57888360ff168603026153ff565b886153f68261565a565b840360ff168603025b96505050505061548d565b6001908101600281900b60081d80830b5f90815260208a905260409020547fffffffffffffffffffffffffffffffffffffffffffffffffffffffffffffffff60ff841694851b01199081168015159550929391928561547357888360ff0360ff16860102615486565b888361547e836156f4565b0360ff168601025b9650505050505b5094509492505050565b5f80808062ffffff851673ffffffffffffffffffffffffffffffffffffffff808a16908b161015828812801561559d575f6154dd8a5f0385620f424003620f4240613b42565b9050826154f6576154f18d8d8d60016152b3565b615503565b6155038c8e8d6001615144565b9650868110615537578b9750620f4240841461552e57615529878586620f42400361562a565b615530565b865b9450615573565b6155438d8c838661578f565b97508261555c576155578d898d60016152b3565b615569565b615569888e8d6001615144565b9650868a5f030394505b82615589576155848d898d5f615144565b615595565b615595888e8d5f6152b3565b95505061561b565b816155b3576155ae8c8c8c5f615144565b6155bf565b6155bf8b8d8c5f6152b3565b94508489106155d0578a96506155e2565b8894506155df8c8b87856157f3565b96505b816155f9576155f48c888c60016152b3565b615606565b615606878d8c6001615144565b9550615618868485620f42400361562a565b93505b50505095509550955095915050565b5f615636848484613b42565b9050818061564657615646616b9c565b838509156108385760010180610838575f80fd5b5f808211615666575f80fd5b507f0706060506020504060203020504030106050205030304010505030400000000601f6f8421084210842108cc6318c6db6d54be831560081b6fffffffffffffffffffffffffffffffff851160071b1784811c67ffffffffffffffff1060061b1784811c63ffffffff1060051b1784811c61ffff1060041b1784811c60ff1060031b1793841c1c161a1790565b5f808211615700575f80fd5b507e1f0d1e100c1d070f090b19131c1706010e11080a1a141802121b150316040581196001019091166101e07f804040554300526644320000502061067405302602000010750620017611707760fc7fb6db6db6ddddddddd34d34d349249249210842108c6318c639ce739cffffffff840260f81c161b60f71c1690811c63d76453e004601f169190911a1790565b5f6fffffffffffffffffffffffffffffffff84161573ffffffffffffffffffffffffffffffffffffffff86161517156157cf57634f2461b85f526004601cfd5b816157e6576157e1858585600161584c565b612a6a565b612a6a85858560016159ae565b5f6fffffffffffffffffffffffffffffffff84161573ffffffffffffffffffffffffffffffffffffffff861615171561583357634f2461b85f526004601cfd5b81615844576157e18585855f6159ae565b612a6a8585855f5b5f81156158f1575f73ffffffffffffffffffffffffffffffffffffffff84111561589f5761589a846c01000000000000000000000000876fffffffffffffffffffffffffffffffff16613b42565b6158bf565b6158bf6fffffffffffffffffffffffffffffffff8616606086901b616bc9565b90506158e96158e48273ffffffffffffffffffffffffffffffffffffffff89166162af565b615ae3565b915050611c49565b5f73ffffffffffffffffffffffffffffffffffffffff84111561593d57615938846c01000000000000000000000000876fffffffffffffffffffffffffffffffff1661562a565b615963565b615963606085901b6fffffffffffffffffffffffffffffffff8716808204910615150190565b90508073ffffffffffffffffffffffffffffffffffffffff87161161598f57634323a5555f526004601cfd5b73ffffffffffffffffffffffffffffffffffffffff8616039050611c49565b5f825f036159bd575083611c49565b7bffffffffffffffffffffffffffffffff000000000000000000000000606085901b168215615a885773ffffffffffffffffffffffffffffffffffffffff861684810290858281615a1057615a10616b9c565b0403615a4d57818101828110615a4b57615a41838973ffffffffffffffffffffffffffffffffffffffff168361562a565b9350505050611c49565b505b506158e98185615a7373ffffffffffffffffffffffffffffffffffffffff8a1683616bc9565b615a7d91906162af565b808204910615150190565b73ffffffffffffffffffffffffffffffffffffffff8616848102908582041481831116615abc5763f5c787f15f526004601cfd5b808203615a416158e48473ffffffffffffffffffffffffffffffffffffffff8b168461562a565b8073ffffffffffffffffffffffffffffffffffffffff81168114610c3457610c347f93dafdf100000000000000000000000000000000000000000000000000000000611c51565b73ffffffffffffffffffffffffffffffffffffffff81168114612030575f80fd5b5f8060408385031215615b5c575f80fd5b8235615b6781615b2a565b946020939093013593505050565b5f60208284031215615b85575f80fd5b81357fffffffff0000000000000000000000000000000000000000000000000000000081168114610838575f80fd5b5f805f60608486031215615bc6575f80fd5b8335615bd181615b2a565b95602085013595506040909401359392505050565b5f805f60608486031215615bf8575f80fd5b8335615c0381615b2a565b92506020840135615c1381615b2a565b929592945050506040919091013590565b5f60208284031215615c34575f80fd5b5035919050565b7f4e487b71000000000000000000000000000000000000000000000000000000005f52604160045260245ffd5b6040516080810167ffffffffffffffff81118282101715615c8b57615c8b615c3b565b60405290565b604051601f82017fffffffffffffffffffffffffffffffffffffffffffffffffffffffffffffffe016810167ffffffffffffffff81118282101715615cd857615cd8615c3b565b604052919050565b803562ffffff81168114610c34575f80fd5b8035600281900b8114610c34575f80fd5b5f60a08284031215615d13575f80fd5b60405160a0810167ffffffffffffffff81118282101715615d3657615d36615c3b565b6040529050808235615d4781615b2a565b81526020830135615d5781615b2a565b6020820152615d6860408401615ce0565b6040820152615d7960608401615cf2565b60608201526080830135615d8c81615b2a565b6080919091015292915050565b5f8083601f840112615da9575f80fd5b50813567ffffffffffffffff811115615dc0575f80fd5b602083019150836020828501011115615dd7575f80fd5b9250929050565b5f805f805f6101008688031215615df3575f80fd5b615dfd8787615d03565b945060a0860135935060c0860135925060e086013567ffffffffffffffff811115615e26575f80fd5b615e3288828901615d99565b969995985093965092949392505050565b5f60208284031215615e53575f80fd5b813561083881615b2a565b5f8060408385031215615e6f575f80fd5b50508035926020909101359150565b602080825282518282018190525f918401906040840190835b81811015615eb5578351835260209384019390920191600101615e97565b509095945050505050565b5f8060208385031215615ed1575f80fd5b823567ffffffffffffffff811115615ee7575f80fd5b615ef385828601615d99565b90969095509350505050565b602081525f82518060208401528060208501604085015e5f6040828501015260407fffffffffffffffffffffffffffffffffffffffffffffffffffffffffffffffe0601f83011684010191505092915050565b5f8060c08385031215615f63575f80fd5b615f6d8484615d03565b9150615f7b60a08401615ce0565b90509250929050565b80358015158114610c34575f80fd5b5f8060408385031215615fa4575f80fd5b8235615faf81615b2a565b9150615f7b60208401615f84565b5f805f80848603610140811215615fd2575f80fd5b615fdc8787615d03565b945060807fffffffffffffffffffffffffffffffffffffffffffffffffffffffffffffff608201121561600d575f80fd5b50616016615c68565b61602260a08701615cf2565b815261603060c08701615cf2565b602082015260e086013560408201526101008601356060820152925061012085013567ffffffffffffffff811115616066575f80fd5b61607287828801615d99565b95989497509550505050565b5f805f8060e08587031215616091575f80fd5b61609b8686615d03565b935060a08501356160ab81615b2a565b925060c085013567ffffffffffffffff811115616066575f80fd5b5f80602083850312156160d7575f80fd5b823567ffffffffffffffff8111156160ed575f80fd5b8301601f810185136160fd575f80fd5b803567ffffffffffffffff811115616113575f80fd5b8560208260051b8401011115616127575f80fd5b6020919091019590945092505050565b5f8060408385031215616148575f80fd5b823561615381615b2a565b9150602083013561616381615b2a565b809150509250929050565b5f805f80848603610120811215616183575f80fd5b61618d8787615d03565b945060607fffffffffffffffffffffffffffffffffffffffffffffffffffffffffffffff60820112156161be575f80fd5b506040516060810167ffffffffffffffff811182821017156161e2576161e2615c3b565b6040526161f160a08701615f84565b815260c0860135602082015260e086013561620b81615b2a565b6040820152925061010085013567ffffffffffffffff811115616066575f80fd5b5f805f806080858703121561623f575f80fd5b843561624a81615b2a565b9350602085013561625a81615b2a565b93969395505050506040820135916060013590565b7f4e487b71000000000000000000000000000000000000000000000000000000005f52601160045260245ffd5b818103818111156107655761076561626f565b808201808211156107655761076561626f565b81835281816020850137505f602082840101525f60207fffffffffffffffffffffffffffffffffffffffffffffffffffffffffffffffe0601f840116840101905092915050565b602081525f611c496020830184866162c2565b5f6020828403121561632c575f80fd5b815167ffffffffffffffff811115616342575f80fd5b8201601f81018413616352575f80fd5b805167ffffffffffffffff81111561636c5761636c615c3b565b61639d60207fffffffffffffffffffffffffffffffffffffffffffffffffffffffffffffffe0601f84011601615c91565b8181528560208385010111156163b1575f80fd5b8160208401602083015e5f91810160200191909152949350505050565b5f81600f0b7fffffffffffffffffffffffffffffffff8000000000000000000000000000000081036164025761640261626f565b5f0392915050565b73ffffffffffffffffffffffffffffffffffffffff871681526164a5602082018773ffffffffffffffffffffffffffffffffffffffff815116825273ffffffffffffffffffffffffffffffffffffffff602082015116602083015262ffffff6040820151166040830152606081015160020b606083015273ffffffffffffffffffffffffffffffffffffffff60808201511660808301525050565b8460c08201528360e08201526101206101008201525f6164ca610120830184866162c2565b98975050505050505050565b73ffffffffffffffffffffffffffffffffffffffff86168152616571602082018673ffffffffffffffffffffffffffffffffffffffff815116825273ffffffffffffffffffffffffffffffffffffffff602082015116602083015262ffffff6040820151166040830152606081015160020b606083015273ffffffffffffffffffffffffffffffffffffffff60808201511660808301525050565b8351600290810b60c08301526020850151900b60e0820152604084015161010082015260608401516101208201526101606101408201525f615276610160830184866162c2565b73ffffffffffffffffffffffffffffffffffffffff87168152616653602082018773ffffffffffffffffffffffffffffffffffffffff815116825273ffffffffffffffffffffffffffffffffffffffff602082015116602083015262ffffff6040820151166040830152606081015160020b606083015273ffffffffffffffffffffffffffffffffffffffff60808201511660808301525050565b8451600290810b60c08301526020860151900b60e082015260408501516101008201526060850151610120820152836101408201526101806101608201525f6164ca610180830184866162c2565b73ffffffffffffffffffffffffffffffffffffffff8616815261673c602082018673ffffffffffffffffffffffffffffffffffffffff815116825273ffffffffffffffffffffffffffffffffffffffff602082015116602083015262ffffff6040820151166040830152606081015160020b606083015273ffffffffffffffffffffffffffffffffffffffff60808201511660808301525050565b73ffffffffffffffffffffffffffffffffffffffff841660c082015261010060e08201525f615276610100830184866162c2565b60a08101610765828473ffffffffffffffffffffffffffffffffffffffff815116825273ffffffffffffffffffffffffffffffffffffffff602082015116602083015262ffffff6040820151166040830152606081015160020b606083015273ffffffffffffffffffffffffffffffffffffffff60808201511660808301525050565b73ffffffffffffffffffffffffffffffffffffffff8716815261688e602082018773ffffffffffffffffffffffffffffffffffffffff815116825273ffffffffffffffffffffffffffffffffffffffff602082015116602083015262ffffff6040820151166040830152606081015160020b606083015273ffffffffffffffffffffffffffffffffffffffff60808201511660808301525050565b73ffffffffffffffffffffffffffffffffffffffff851660c08201528360020b60e08201526101206101008201525f6164ca610120830184866162c2565b5f602082840312156168dc575f80fd5b5051919050565b73ffffffffffffffffffffffffffffffffffffffff8616815261697e602082018673ffffffffffffffffffffffffffffffffffffffff815116825273ffffffffffffffffffffffffffffffffffffffff602082015116602083015262ffffff6040820151166040830152606081015160020b606083015273ffffffffffffffffffffffffffffffffffffffff60808201511660808301525050565b8351151560c0820152602084015160e0820152604084015173ffffffffffffffffffffffffffffffffffffffff166101008201526101406101208201525f615276610140830184866162c2565b8082018281125f8312801582168215821617156169ea576169ea61626f565b505092915050565b73ffffffffffffffffffffffffffffffffffffffff87168152616a8d602082018773ffffffffffffffffffffffffffffffffffffffff815116825273ffffffffffffffffffffffffffffffffffffffff602082015116602083015262ffffff6040820151166040830152606081015160020b606083015273ffffffffffffffffffffffffffffffffffffffff60808201511660808301525050565b8451151560c0820152602085015160e0820152604085015173ffffffffffffffffffffffffffffffffffffffff16610100820152836101208201526101606101408201525f6164ca610160830184866162c2565b600f81810b9083900b016f7fffffffffffffffffffffffffffffff81137fffffffffffffffffffffffffffffffff80000000000000000000000000000000821217156107655761076561626f565b600f82810b9082900b037fffffffffffffffffffffffffffffffff8000000000000000000000000000000081126f7fffffffffffffffffffffffffffffff821317156107655761076561626f565b8181035f831280158383131683831282161715613b3b57613b3b61626f565b7f4e487b71000000000000000000000000000000000000000000000000000000005f52601260045260245ffd5b5f82616bfc577f4e487b71000000000000000000000000000000000000000000000000000000005f52601260045260245ffd5b50049056fea264697066735822122059d7d35a5e3e35b6b92ea507c9a3d280abb7f121a6160289ff7b40e0ab84943664736f6c634300081a0033","linkReferences":{}},"methodIdentifiers":{"allowance(address,address,uint256)":"598af9e7","approve(address,uint256,uint256)":"426a8493","balanceOf(address,uint256)":"00fdd58e","burn(address,uint256,uint256)":"f5298aca","clear(address,uint256)":"80f0b44c","collectProtocolFees(address,address,uint256)":"8161b874","donate((address,address,uint24,int24,address),uint256,uint256,bytes)":"234266d7","extsload(bytes32)":"1e2eaeaf","extsload(bytes32,uint256)":"35fd631a","extsload(bytes32[])":"dbd035ff","exttload(bytes32)":"f135baaa","exttload(bytes32[])":"9bf6645f","initialize((address,address,uint24,int24,address),uint160,bytes)":"695c5bf5","isOperator(address,address)":"b6363cf2","mint(address,uint256,uint256)":"156e29f6","modifyLiquidity((address,address,uint24,int24,address),(int24,int24,int256,bytes32),bytes)":"5a6bcfda","owner()":"8da5cb5b","protocolFeeController()":"f02de3b2","protocolFeesAccrued(address)":"97e8cd4e","setOperator(address,bool)":"558a7297","setProtocolFee((address,address,uint24,int24,address),uint24)":"7e87ce7d","setProtocolFeeController(address)":"2d771389","settle()":"11da60b4","settleFor(address)":"3dd45adb","supportsInterface(bytes4)":"01ffc9a7","swap((address,address,uint24,int24,address),(bool,int256,uint160),bytes)":"f3cd914c","sync(address)":"a5841194","take(address,address,uint256)":"0b0d9c09","transfer(address,uint256,uint256)":"095bcdb6","transferFrom(address,address,uint256,uint256)":"fe99049a","transferOwnership(address)":"f2fde38b","unlock(bytes)":"48c89491","updateDynamicLPFee((address,address,uint24,int24,address),uint24)":"52759651"},"id":35}