{"abi":[{"type":"constructor","inputs":[{"name":"_manager","type":"address","internalType":"contract IPoolManager"}],"stateMutability":"nonpayable"},{"type":"function","name":"manager","inputs":[],"outputs":[{"name":"","type":"address","internalType":"contract IPoolManager"}],"stateMutability":"view"},{"type":"function","name":"swap","inputs":[{"name":"key","type":"tuple","internalType":"struct PoolKey","components":[{"name":"currency0","type":"address","internalType":"Currency"},{"name":"currency1","type":"address","internalType":"Currency"},{"name":"fee","type":"uint24","internalType":"uint24"},{"name":"tickSpacing","type":"int24","internalType":"int24"},{"name":"hooks","type":"address","internalType":"contract IHooks"}]},{"name":"params","type":"tuple","internalType":"struct IPoolManager.SwapParams","components":[{"name":"zeroForOne","type":"bool","internalType":"bool"},{"name":"amountSpecified","type":"int256","internalType":"int256"},{"name":"sqrtPriceLimitX96","type":"uint160","internalType":"uint160"}]},{"name":"testSettings","type":"tuple","internalType":"struct PoolSwapTest.TestSettings","components":[{"name":"takeClaims","type":"bool","internalType":"bool"},{"name":"settleUsingBurn","type":"bool","internalType":"bool"}]},{"name":"hookData","type":"bytes","internalType":"bytes"}],"outputs":[{"name":"delta","type":"int256","internalType":"BalanceDelta"}],"stateMutability":"payable"},{"type":"function","name":"unlockCallback","inputs":[{"name":"rawData","type":"bytes","internalType":"bytes"}],"outputs":[{"name":"","type":"bytes","internalType":"bytes"}],"stateMutability":"nonpayable"},{"type":"error","name":"NoSwapOccurred","inputs":[]}],"bytecode":{"object":"0x60a0604052348015600e575f80fd5b50604051611f19380380611f19833981016040819052602b91603b565b6001600160a01b03166080526066565b5f60208284031215604a575f80fd5b81516001600160a01b0381168114605f575f80fd5b9392505050565b608051611e5e6100bb5f395f8181606e0152818160e4015281816102400152818161038601528181610c4c01528181610cb201528181610d4901528181610daa01528181610f3e0152610f7e0152611e5e5ff3fe608060405260043610610033575f3560e01c80632229d0b414610037578063481c6a751461005d57806391dd7346146100b5575b5f80fd5b61004a61004536600461193f565b6100e1565b6040519081526020015b60405180910390f35b348015610068575f80fd5b506100907f000000000000000000000000000000000000000000000000000000000000000081565b60405173ffffffffffffffffffffffffffffffffffffffff9091168152602001610054565b3480156100c0575f80fd5b506100d46100cf3660046119b0565b610226565b6040516100549190611a6a565b5f7f000000000000000000000000000000000000000000000000000000000000000073ffffffffffffffffffffffffffffffffffffffff166348c894916040518060a001604052803373ffffffffffffffffffffffffffffffffffffffff1681526020018681526020018881526020018781526020018581525060405160200161016b9190611a83565b6040516020818303038152906040526040518263ffffffff1660e01b81526004016101969190611a6a565b5f604051808303815f875af11580156101b1573d5f803e3d5ffd5b505050506040513d5f823e601f3d9081017fffffffffffffffffffffffffffffffffffffffffffffffffffffffffffffffe01682016040526101f69190810190611ba4565b8060200190518101906102099190611c19565b905047801561021d5761021d5f3383610dfc565b50949350505050565b60603373ffffffffffffffffffffffffffffffffffffffff7f00000000000000000000000000000000000000000000000000000000000000001614610269575f80fd5b5f61027683850185611c30565b90505f61028e82604001515f0151835f015130610efd565b925050505f6102a9836040015160200151845f015130610efd565b92505050815f1461031b576040517f08c379a000000000000000000000000000000000000000000000000000000000815260206004820152601e60248201527f64656c74614265666f726530206973206e6f7420657175616c20746f2030000060448201526064015b60405180910390fd5b8015610383576040517f08c379a000000000000000000000000000000000000000000000000000000000815260206004820152601e60248201527f64656c74614265666f726531206973206e6f7420657175616c20746f203000006044820152606401610312565b5f7f000000000000000000000000000000000000000000000000000000000000000073ffffffffffffffffffffffffffffffffffffffff1663f3cd914c8560400151866060015187608001516040518463ffffffff1660e01b81526004016103ed93929190611ce8565b6020604051808303815f875af1158015610409573d5f803e3d5ffd5b505050506040513d601f19601f8201168201806040525081019061042d9190611c19565b90505f61044585604001515f0151865f015130610efd565b925050505f610460866040015160200151875f015130610efd565b9250505085606001515f015115610859575f866060015160200151121561066f5785606001516020015182121561053f576040517f08c379a000000000000000000000000000000000000000000000000000000000815260206004820152604760248201527f64656c7461416674657230206973206e6f742067726561746572207468616e2060448201527f6f7220657175616c20746f20646174612e706172616d732e616d6f756e74537060648201527f6563696669656400000000000000000000000000000000000000000000000000608482015260a401610312565b8161054a8460801d90565b600f0b146105da576040517f08c379a000000000000000000000000000000000000000000000000000000000815260206004820152602b60248201527f64656c74612e616d6f756e74302829206973206e6f7420657175616c20746f2060448201527f64656c74614166746572300000000000000000000000000000000000000000006064820152608401610312565b5f81121561066a576040517f08c379a000000000000000000000000000000000000000000000000000000000815260206004820152602d60248201527f64656c7461416674657231206973206e6f742067726561746572207468616e2060448201527f6f7220657175616c20746f2030000000000000000000000000000000000000006064820152608401610312565b610c3c565b5f8213156106ff576040517f08c379a000000000000000000000000000000000000000000000000000000000815260206004820152602d60248201527f64656c7461416674657230206973206e6f74206c657373207468616e206f722060448201527f657175616c20746f207a65726f000000000000000000000000000000000000006064820152608401610312565b8061070a84600f0b90565b600f0b1461079a576040517f08c379a000000000000000000000000000000000000000000000000000000000815260206004820152602b60248201527f64656c74612e616d6f756e74312829206973206e6f7420657175616c20746f2060448201527f64656c74614166746572310000000000000000000000000000000000000000006064820152608401610312565b85606001516020015181131561066a576040517f08c379a0000000000000000000000000000000000000000000000000000000008152602060048201526044602482018190527f64656c7461416674657231206973206e6f74206c657373207468616e206f7220908201527f657175616c20746f20646174612e706172616d732e616d6f756e74537065636960648201527f6669656400000000000000000000000000000000000000000000000000000000608482015260a401610312565b5f8660600151602001511215610a5257856060015160200151811215610927576040517f08c379a000000000000000000000000000000000000000000000000000000000815260206004820152604760248201527f64656c7461416674657231206973206e6f742067726561746572207468616e2060448201527f6f7220657175616c20746f20646174612e706172616d732e616d6f756e74537060648201527f6563696669656400000000000000000000000000000000000000000000000000608482015260a401610312565b8061093284600f0b90565b600f0b146109c2576040517f08c379a000000000000000000000000000000000000000000000000000000000815260206004820152602b60248201527f64656c74612e616d6f756e74312829206973206e6f7420657175616c20746f2060448201527f64656c74614166746572310000000000000000000000000000000000000000006064820152608401610312565b5f82121561066a576040517f08c379a000000000000000000000000000000000000000000000000000000000815260206004820152602d60248201527f64656c7461416674657230206973206e6f742067726561746572207468616e2060448201527f6f7220657175616c20746f2030000000000000000000000000000000000000006064820152608401610312565b5f811315610ae2576040517f08c379a000000000000000000000000000000000000000000000000000000000815260206004820152602a60248201527f64656c7461416674657231206973206e6f74206c657373207468616e206f722060448201527f657175616c20746f2030000000000000000000000000000000000000000000006064820152608401610312565b81610aed8460801d90565b600f0b14610b7d576040517f08c379a000000000000000000000000000000000000000000000000000000000815260206004820152602b60248201527f64656c74612e616d6f756e74302829206973206e6f7420657175616c20746f2060448201527f64656c74614166746572300000000000000000000000000000000000000000006064820152608401610312565b856060015160200151821315610c3c576040517f08c379a0000000000000000000000000000000000000000000000000000000008152602060048201526044602482018190527f64656c7461416674657230206973206e6f74206c657373207468616e206f7220908201527f657175616c20746f20646174612e706172616d732e616d6f756e74537065636960648201527f6669656400000000000000000000000000000000000000000000000000000000608482015260a401610312565b5f821215610ca2578551610ca2907f000000000000000000000000000000000000000000000000000000000000000090610c7585611db2565b6020808b0151015160408b01515173ffffffffffffffffffffffffffffffffffffffff1693929190610fb0565b5f811215610d14578551610d14907f000000000000000000000000000000000000000000000000000000000000000090610cdb84611db2565b8960200151602001518a604001516020015173ffffffffffffffffffffffffffffffffffffffff16610fb090949392919063ffffffff16565b5f821315610d71578551602087015151604088015151610d719273ffffffffffffffffffffffffffffffffffffffff909116917f00000000000000000000000000000000000000000000000000000000000000009190869061136e565b5f811315610dd257855160208088015151604089015190910151610dd29273ffffffffffffffffffffffffffffffffffffffff909116917f00000000000000000000000000000000000000000000000000000000000000009190859061136e565b60408051602081018590520160405160208183030381529060405296505050505050505b92915050565b5f73ffffffffffffffffffffffffffffffffffffffff8416610e56575f805f8085875af1905080610e5157610e517f8549db5900000000000000000000000000000000000000000000000000000000846114b2565b610ef7565b6040517fa9059cbb00000000000000000000000000000000000000000000000000000000815273ffffffffffffffffffffffffffffffffffffffff8416600482015282602482015260205f6044835f895af13d15601f3d1160015f511416171691505f81525f60208201525f60408201525080610ef757610ef77fb12c5f9c00000000000000000000000000000000000000000000000000000000856114b2565b50505050565b5f8080610f2073ffffffffffffffffffffffffffffffffffffffff8716866114e5565b9250610f6273ffffffffffffffffffffffffffffffffffffffff87167f00000000000000000000000000000000000000000000000000000000000000006114e5565b9150610fa573ffffffffffffffffffffffffffffffffffffffff7f00000000000000000000000000000000000000000000000000000000000000001685886115b4565b905093509350939050565b8015611091578373ffffffffffffffffffffffffffffffffffffffff1663f5298aca846110068873ffffffffffffffffffffffffffffffffffffffff1673ffffffffffffffffffffffffffffffffffffffff1690565b6040517fffffffff0000000000000000000000000000000000000000000000000000000060e085901b16815273ffffffffffffffffffffffffffffffffffffffff90921660048301526024820152604481018590526064015b5f604051808303815f87803b158015611076575f80fd5b505af1158015611088573d5f803e3d5ffd5b50505050611367565b73ffffffffffffffffffffffffffffffffffffffff8516611122578373ffffffffffffffffffffffffffffffffffffffff166311da60b4836040518263ffffffff1660e01b815260040160206040518083038185885af11580156110f7573d5f803e3d5ffd5b50505050506040513d601f19601f8201168201806040525081019061111c9190611c19565b50611367565b6040517fa584119400000000000000000000000000000000000000000000000000000000815273ffffffffffffffffffffffffffffffffffffffff868116600483015285169063a5841194906024015f604051808303815f87803b158015611188575f80fd5b505af115801561119a573d5f803e3d5ffd5b5050505073ffffffffffffffffffffffffffffffffffffffff8316301461125f576040517f23b872dd00000000000000000000000000000000000000000000000000000000815273ffffffffffffffffffffffffffffffffffffffff84811660048301528581166024830152604482018490528616906323b872dd906064016020604051808303815f875af1158015611235573d5f803e3d5ffd5b505050506040513d601f19601f820116820180604052508101906112599190611e0d565b506112f7565b6040517fa9059cbb00000000000000000000000000000000000000000000000000000000815273ffffffffffffffffffffffffffffffffffffffff85811660048301526024820184905286169063a9059cbb906044016020604051808303815f875af11580156112d1573d5f803e3d5ffd5b505050506040513d601f19601f820116820180604052508101906112f59190611e0d565b505b8373ffffffffffffffffffffffffffffffffffffffff166311da60b46040518163ffffffff1660e01b81526004016020604051808303815f875af1158015611341573d5f803e3d5ffd5b505050506040513d601f19601f820116820180604052508101906113659190611c19565b505b5050505050565b806113d6576040517f0b0d9c0900000000000000000000000000000000000000000000000000000000815273ffffffffffffffffffffffffffffffffffffffff8681166004830152848116602483015260448201849052851690630b0d9c099060640161105f565b8373ffffffffffffffffffffffffffffffffffffffff1663156e29f6846114268873ffffffffffffffffffffffffffffffffffffffff1673ffffffffffffffffffffffffffffffffffffffff1690565b6040517fffffffff0000000000000000000000000000000000000000000000000000000060e085901b16815273ffffffffffffffffffffffffffffffffffffffff90921660048301526024820152604481018590526064015f604051808303815f87803b158015611495575f80fd5b505af11580156114a7573d5f803e3d5ffd5b505050505050505050565b3d60405183815282600482015260406024820152816044820152815f606483013e602080601f8401040260640191508181fd5b5f73ffffffffffffffffffffffffffffffffffffffff831661151f575073ffffffffffffffffffffffffffffffffffffffff811631610df6565b6040517f70a0823100000000000000000000000000000000000000000000000000000000815273ffffffffffffffffffffffffffffffffffffffff83811660048301528416906370a0823190602401602060405180830381865afa158015611589573d5f803e3d5ffd5b505050506040513d601f19601f820116820180604052508101906115ad9190611c19565b9050610df6565b5f8073ffffffffffffffffffffffffffffffffffffffff84165f5273ffffffffffffffffffffffffffffffffffffffff831660205260405f2090508473ffffffffffffffffffffffffffffffffffffffff1663f135baaa826040518263ffffffff1660e01b815260040161162a91815260200190565b602060405180830381865afa158015611645573d5f803e3d5ffd5b505050506040513d601f19601f820116820180604052508101906116699190611c19565b95945050505050565b7f4e487b71000000000000000000000000000000000000000000000000000000005f52604160045260245ffd5b60405160a0810167ffffffffffffffff811182821017156116c2576116c2611672565b60405290565b604051601f82017fffffffffffffffffffffffffffffffffffffffffffffffffffffffffffffffe016810167ffffffffffffffff8111828210171561170f5761170f611672565b604052919050565b73ffffffffffffffffffffffffffffffffffffffff81168114611738575f80fd5b50565b803561174681611717565b919050565b5f60a0828403121561175b575f80fd5b61176361169f565b9050813561177081611717565b8152602082013561178081611717565b6020820152604082013562ffffff8116811461179a575f80fd5b60408201526060820135600281900b81146117b3575f80fd5b60608201526117c46080830161173b565b608082015292915050565b8015158114611738575f80fd5b5f606082840312156117ec575f80fd5b6040516060810167ffffffffffffffff8111828210171561180f5761180f611672565b6040529050808235611820816117cf565b815260208381013590820152604083013561183a81611717565b6040919091015292915050565b5f60408284031215611857575f80fd5b6040805190810167ffffffffffffffff8111828210171561187a5761187a611672565b604052905080823561188b816117cf565b8152602083013561189b816117cf565b6020919091015292915050565b5f67ffffffffffffffff8211156118c1576118c1611672565b50601f017fffffffffffffffffffffffffffffffffffffffffffffffffffffffffffffffe01660200190565b5f82601f8301126118fc575f80fd5b813561190f61190a826118a8565b6116c8565b818152846020838601011115611923575f80fd5b816020850160208301375f918101602001919091529392505050565b5f805f806101608587031215611953575f80fd5b61195d868661174b565b935061196c8660a087016117dc565b925061197c866101008701611847565b915061014085013567ffffffffffffffff811115611998575f80fd5b6119a4878288016118ed565b91505092959194509250565b5f80602083850312156119c1575f80fd5b823567ffffffffffffffff8111156119d7575f80fd5b8301601f810185136119e7575f80fd5b803567ffffffffffffffff8111156119fd575f80fd5b856020828401011115611a0e575f80fd5b6020919091019590945092505050565b5f81518084528060208401602086015e5f6020828601015260207fffffffffffffffffffffffffffffffffffffffffffffffffffffffffffffffe0601f83011685010191505092915050565b602081525f611a7c6020830184611a1e565b9392505050565b6020815273ffffffffffffffffffffffffffffffffffffffff82511660208201525f6020830151805115156040840152602081015115156060840152506040830151611b47608084018273ffffffffffffffffffffffffffffffffffffffff815116825273ffffffffffffffffffffffffffffffffffffffff602082015116602083015262ffffff6040820151166040830152606081015160020b606083015273ffffffffffffffffffffffffffffffffffffffff60808201511660808301525050565b5060608301518051151561012084015260208101516101408401526040015173ffffffffffffffffffffffffffffffffffffffff16610160830152608083015161018080840152611b9c6101a0840182611a1e565b949350505050565b5f60208284031215611bb4575f80fd5b815167ffffffffffffffff811115611bca575f80fd5b8201601f81018413611bda575f80fd5b8051611be861190a826118a8565b818152856020838501011115611bfc575f80fd5b8160208401602083015e5f91810160200191909152949350505050565b5f60208284031215611c29575f80fd5b5051919050565b5f60208284031215611c40575f80fd5b813567ffffffffffffffff811115611c56575f80fd5b82016101808185031215611c68575f80fd5b611c7061169f565b8135611c7b81611717565b8152611c8a8560208401611847565b6020820152611c9c856060840161174b565b6040820152611caf8561010084016117dc565b606082015261016082013567ffffffffffffffff811115611cce575f80fd5b611cda868285016118ed565b608083015250949350505050565b611d67818573ffffffffffffffffffffffffffffffffffffffff815116825273ffffffffffffffffffffffffffffffffffffffff602082015116602083015262ffffff6040820151166040830152606081015160020b606083015273ffffffffffffffffffffffffffffffffffffffff60808201511660808301525050565b8251151560a0820152602083015160c0820152604083015173ffffffffffffffffffffffffffffffffffffffff1660e08201526101206101008201525f611669610120830184611a1e565b5f7f80000000000000000000000000000000000000000000000000000000000000008203611e07577f4e487b71000000000000000000000000000000000000000000000000000000005f52601160045260245ffd5b505f0390565b5f60208284031215611e1d575f80fd5b8151611a7c816117cf56fea2646970667358221220b126ae295f3c30d05e6b46f4198d9c52776f0d4e7e4c68f656e80737df0f2b0e64736f6c634300081a0033","linkReferences":{}},"methodIdentifiers":{"manager()":"481c6a75","swap((address,address,uint24,int24,address),(bool,int256,uint160),(bool,bool),bytes)":"2229d0b4","unlockCallback(bytes)":"91dd7346"},"id":76}