{"abi":[{"type":"function","name":"DYNAMIC_FEE_FLAG","inputs":[],"outputs":[{"name":"","type":"uint24","internalType":"uint24"}],"stateMutability":"view"},{"type":"function","name":"MAX_LP_FEE","inputs":[],"outputs":[{"name":"","type":"uint24","internalType":"uint24"}],"stateMutability":"view"},{"type":"function","name":"OVERRIDE_FEE_FLAG","inputs":[],"outputs":[{"name":"","type":"uint24","internalType":"uint24"}],"stateMutability":"view"},{"type":"function","name":"REMOVE_OVERRIDE_MASK","inputs":[],"outputs":[{"name":"","type":"uint24","internalType":"uint24"}],"stateMutability":"view"},{"type":"error","name":"LPFeeTooLarge","inputs":[{"name":"fee","type":"uint24","internalType":"uint24"}]}],"bytecode":{"object":"0x60c6610033600b8282823980515f1a607314602757634e487b7160e01b5f525f60045260245ffd5b305f52607381538281f3fe73000000000000000000000000000000000000000030146080604052600436106050575f3560e01c80633b01d64d1460545780633fc48eba1460755780636f95ebcf14607e578063f26ef49d146087575b5f80fd5b605d6240000081565b60405162ffffff909116815260200160405180910390f35b605d620f424081565b605d62bfffff81565b605d628000008156fea2646970667358221220ba1df0d1a1ea25df8d9ca0cfb4c565046d0fdfedde1d5811d2e8b45a7c1f044364736f6c634300081a0033","linkReferences":{}},"methodIdentifiers":{"DYNAMIC_FEE_FLAG()":"f26ef49d","MAX_LP_FEE()":"3fc48eba","OVERRIDE_FEE_FLAG()":"3b01d64d","REMOVE_OVERRIDE_MASK()":"6f95ebcf"},"id":53}