{"abi":[{"type":"constructor","inputs":[{"name":"_manager","type":"address","internalType":"contract IPoolManager"}],"stateMutability":"nonpayable"},{"type":"function","name":"manager","inputs":[],"outputs":[{"name":"","type":"address","internalType":"contract IPoolManager"}],"stateMutability":"view"},{"type":"function","name":"swap","inputs":[{"name":"key","type":"tuple","internalType":"struct PoolKey","components":[{"name":"currency0","type":"address","internalType":"Currency"},{"name":"currency1","type":"address","internalType":"Currency"},{"name":"fee","type":"uint24","internalType":"uint24"},{"name":"tickSpacing","type":"int24","internalType":"int24"},{"name":"hooks","type":"address","internalType":"contract IHooks"}]},{"name":"params","type":"tuple","internalType":"struct IPoolManager.SwapParams","components":[{"name":"zeroForOne","type":"bool","internalType":"bool"},{"name":"amountSpecified","type":"int256","internalType":"int256"},{"name":"sqrtPriceLimitX96","type":"uint160","internalType":"uint160"}]}],"outputs":[],"stateMutability":"payable"},{"type":"function","name":"unlockCallback","inputs":[{"name":"rawData","type":"bytes","internalType":"bytes"}],"outputs":[{"name":"","type":"bytes","internalType":"bytes"}],"stateMutability":"nonpayable"},{"type":"error","name":"NoSwapOccurred","inputs":[]}],"bytecode":{"object":"0x60a0604052348015600e575f80fd5b506040516110d83803806110d8833981016040819052602b91603b565b6001600160a01b03166080526066565b5f60208284031215604a575f80fd5b81516001600160a01b0381168114605f575f80fd5b9392505050565b60805161102b6100ad5f395f8181605d0152818160d7015281816101fc015281816102370152818161033001528181610393015281816103f40152610459015261102b5ff3fe608060405260043610610033575f3560e01c80631e2817de14610037578063481c6a751461004c57806391dd7346146100a9575b5f80fd5b61004a610045366004610b9e565b6100d5565b005b348015610057575f80fd5b5061007f7f000000000000000000000000000000000000000000000000000000000000000081565b60405173ffffffffffffffffffffffffffffffffffffffff90911681526020015b60405180910390f35b3480156100b4575f80fd5b506100c86100c3366004610bd2565b6101e2565b6040516100a09190610c8c565b7f000000000000000000000000000000000000000000000000000000000000000073ffffffffffffffffffffffffffffffffffffffff166348c8949160405180606001604052803373ffffffffffffffffffffffffffffffffffffffff168152602001858152602001848152506040516020016101529190610ca5565b6040516020818303038152906040526040518263ffffffff1660e01b815260040161017d9190610c8c565b5f604051808303815f875af1158015610198573d5f803e3d5ffd5b505050506040513d5f823e601f3d9081017fffffffffffffffffffffffffffffffffffffffffffffffffffffffffffffffe01682016040526101dd9190810190610d8a565b505050565b60603373ffffffffffffffffffffffffffffffffffffffff7f00000000000000000000000000000000000000000000000000000000000000001614610225575f80fd5b5f61023283850185610e3c565b90505f7f000000000000000000000000000000000000000000000000000000000000000073ffffffffffffffffffffffffffffffffffffffff1663f3cd914c836020015184604001515f67ffffffffffffffff811115610294576102946109c7565b6040519080825280601f01601f1916602001820160405280156102be576020820181803683370190505b506040518463ffffffff1660e01b81526004016102dd93929190610e8f565b6020604051808303815f875af11580156102f9573d5f803e3d5ffd5b505050506040513d601f19601f8201168201806040525081019061031d9190610f62565b604083015151909150156103ef5761038e7f0000000000000000000000000000000000000000000000000000000000000000835f015161035d8460801d90565b61036690610f79565b60208601515173ffffffffffffffffffffffffffffffffffffffff16929190600f0b5f6104c5565b6103ea7f0000000000000000000000000000000000000000000000000000000000000000835f01516103c084600f0b90565b602080870151015173ffffffffffffffffffffffffffffffffffffffff16929190600f0b5f610883565b6104ae565b6104547f0000000000000000000000000000000000000000000000000000000000000000835f015161042184600f0b90565b61042a90610f79565b602080870151015173ffffffffffffffffffffffffffffffffffffffff16929190600f0b5f6104c5565b6104ae7f0000000000000000000000000000000000000000000000000000000000000000835f01516104868460801d90565b60208601515173ffffffffffffffffffffffffffffffffffffffff16929190600f0b5f610883565b505060408051602081019091525f81529392505050565b80156105a6578373ffffffffffffffffffffffffffffffffffffffff1663f5298aca8461051b8873ffffffffffffffffffffffffffffffffffffffff1673ffffffffffffffffffffffffffffffffffffffff1690565b6040517fffffffff0000000000000000000000000000000000000000000000000000000060e085901b16815273ffffffffffffffffffffffffffffffffffffffff90921660048301526024820152604481018590526064015b5f604051808303815f87803b15801561058b575f80fd5b505af115801561059d573d5f803e3d5ffd5b5050505061087c565b73ffffffffffffffffffffffffffffffffffffffff8516610637578373ffffffffffffffffffffffffffffffffffffffff166311da60b4836040518263ffffffff1660e01b815260040160206040518083038185885af115801561060c573d5f803e3d5ffd5b50505050506040513d601f19601f820116820180604052508101906106319190610f62565b5061087c565b6040517fa584119400000000000000000000000000000000000000000000000000000000815273ffffffffffffffffffffffffffffffffffffffff868116600483015285169063a5841194906024015f604051808303815f87803b15801561069d575f80fd5b505af11580156106af573d5f803e3d5ffd5b5050505073ffffffffffffffffffffffffffffffffffffffff83163014610774576040517f23b872dd00000000000000000000000000000000000000000000000000000000815273ffffffffffffffffffffffffffffffffffffffff84811660048301528581166024830152604482018490528616906323b872dd906064016020604051808303815f875af115801561074a573d5f803e3d5ffd5b505050506040513d601f19601f8201168201806040525081019061076e9190610fda565b5061080c565b6040517fa9059cbb00000000000000000000000000000000000000000000000000000000815273ffffffffffffffffffffffffffffffffffffffff85811660048301526024820184905286169063a9059cbb906044016020604051808303815f875af11580156107e6573d5f803e3d5ffd5b505050506040513d601f19601f8201168201806040525081019061080a9190610fda565b505b8373ffffffffffffffffffffffffffffffffffffffff166311da60b46040518163ffffffff1660e01b81526004016020604051808303815f875af1158015610856573d5f803e3d5ffd5b505050506040513d601f19601f8201168201806040525081019061087a9190610f62565b505b5050505050565b806108eb576040517f0b0d9c0900000000000000000000000000000000000000000000000000000000815273ffffffffffffffffffffffffffffffffffffffff8681166004830152848116602483015260448201849052851690630b0d9c0990606401610574565b8373ffffffffffffffffffffffffffffffffffffffff1663156e29f68461093b8873ffffffffffffffffffffffffffffffffffffffff1673ffffffffffffffffffffffffffffffffffffffff1690565b6040517fffffffff0000000000000000000000000000000000000000000000000000000060e085901b16815273ffffffffffffffffffffffffffffffffffffffff90921660048301526024820152604481018590526064015f604051808303815f87803b1580156109aa575f80fd5b505af11580156109bc573d5f803e3d5ffd5b505050505050505050565b7f4e487b71000000000000000000000000000000000000000000000000000000005f52604160045260245ffd5b60405160a0810167ffffffffffffffff81118282101715610a1757610a176109c7565b60405290565b6040516060810167ffffffffffffffff81118282101715610a1757610a176109c7565b604051601f82017fffffffffffffffffffffffffffffffffffffffffffffffffffffffffffffffe016810167ffffffffffffffff81118282101715610a8757610a876109c7565b604052919050565b73ffffffffffffffffffffffffffffffffffffffff81168114610ab0575f80fd5b50565b8035610abe81610a8f565b919050565b5f60a08284031215610ad3575f80fd5b610adb6109f4565b90508135610ae881610a8f565b81526020820135610af881610a8f565b6020820152604082013562ffffff81168114610b12575f80fd5b60408201526060820135600281900b8114610b2b575f80fd5b6060820152610b3c60808301610ab3565b608082015292915050565b8015158114610ab0575f80fd5b5f60608284031215610b64575f80fd5b610b6c610a1d565b90508135610b7981610b47565b8152602082810135908201526040820135610b9381610a8f565b604082015292915050565b5f806101008385031215610bb0575f80fd5b610bba8484610ac3565b9150610bc98460a08501610b54565b90509250929050565b5f8060208385031215610be3575f80fd5b823567ffffffffffffffff811115610bf9575f80fd5b8301601f81018513610c09575f80fd5b803567ffffffffffffffff811115610c1f575f80fd5b856020828401011115610c30575f80fd5b6020919091019590945092505050565b5f81518084528060208401602086015e5f6020828601015260207fffffffffffffffffffffffffffffffffffffffffffffffffffffffffffffffe0601f83011685010191505092915050565b602081525f610c9e6020830184610c40565b9392505050565b815173ffffffffffffffffffffffffffffffffffffffff168152602080830151610120830191610d4c9084018273ffffffffffffffffffffffffffffffffffffffff815116825273ffffffffffffffffffffffffffffffffffffffff602082015116602083015262ffffff6040820151166040830152606081015160020b606083015273ffffffffffffffffffffffffffffffffffffffff60808201511660808301525050565b506040928301518051151560c0840152602081015160e08401529092015173ffffffffffffffffffffffffffffffffffffffff166101009091015290565b5f60208284031215610d9a575f80fd5b815167ffffffffffffffff811115610db0575f80fd5b8201601f81018413610dc0575f80fd5b805167ffffffffffffffff811115610dda57610dda6109c7565b610e0b60207fffffffffffffffffffffffffffffffffffffffffffffffffffffffffffffffe0601f84011601610a40565b818152856020838501011115610e1f575f80fd5b8160208401602083015e5f91810160200191909152949350505050565b5f610120828403128015610e4e575f80fd5b50610e57610a1d565b8235610e6281610a8f565b8152610e718460208501610ac3565b6020820152610e838460c08501610b54565b60408201529392505050565b610f0e818573ffffffffffffffffffffffffffffffffffffffff815116825273ffffffffffffffffffffffffffffffffffffffff602082015116602083015262ffffff6040820151166040830152606081015160020b606083015273ffffffffffffffffffffffffffffffffffffffff60808201511660808301525050565b8251151560a0820152602083015160c0820152604083015173ffffffffffffffffffffffffffffffffffffffff1660e08201526101206101008201525f610f59610120830184610c40565b95945050505050565b5f60208284031215610f72575f80fd5b5051919050565b5f81600f0b7fffffffffffffffffffffffffffffffff800000000000000000000000000000008103610fd2577f4e487b71000000000000000000000000000000000000000000000000000000005f52601160045260245ffd5b5f0392915050565b5f60208284031215610fea575f80fd5b8151610c9e81610b4756fea2646970667358221220267d6a2a2efb41fc6caa00579a8d02eacf97c807a58538418ec595b1b4175b6e64736f6c634300081a0033","linkReferences":{}},"methodIdentifiers":{"manager()":"481c6a75","swap((address,address,uint24,int24,address),(bool,int256,uint160))":"1e2817de","unlockCallback(bytes)":"91dd7346"},"id":81}