{"abi":[{"type":"function","name":"DOMAIN_SEPARATOR","inputs":[],"outputs":[{"name":"","type":"bytes32","internalType":"bytes32"}],"stateMutability":"view"},{"type":"function","name":"allowance","inputs":[{"name":"owner","type":"address","internalType":"address"},{"name":"spender","type":"address","internalType":"address"}],"outputs":[{"name":"","type":"uint256","internalType":"uint256"}],"stateMutability":"view"},{"type":"function","name":"approve","inputs":[{"name":"spender","type":"address","internalType":"address"},{"name":"amount","type":"uint256","internalType":"uint256"}],"outputs":[{"name":"","type":"bool","internalType":"bool"}],"stateMutability":"nonpayable"},{"type":"function","name":"balanceOf","inputs":[{"name":"owner","type":"address","internalType":"address"}],"outputs":[{"name":"","type":"uint256","internalType":"uint256"}],"stateMutability":"view"},{"type":"function","name":"decimals","inputs":[],"outputs":[{"name":"","type":"uint8","internalType":"uint8"}],"stateMutability":"view"},{"type":"function","name":"initialize","inputs":[{"name":"name_","type":"string","internalType":"string"},{"name":"symbol_","type":"string","internalType":"string"},{"name":"decimals_","type":"uint8","internalType":"uint8"}],"outputs":[],"stateMutability":"nonpayable"},{"type":"function","name":"name","inputs":[],"outputs":[{"name":"","type":"string","internalType":"string"}],"stateMutability":"view"},{"type":"function","name":"nonces","inputs":[{"name":"","type":"address","internalType":"address"}],"outputs":[{"name":"","type":"uint256","internalType":"uint256"}],"stateMutability":"view"},{"type":"function","name":"permit","inputs":[{"name":"owner","type":"address","internalType":"address"},{"name":"spender","type":"address","internalType":"address"},{"name":"value","type":"uint256","internalType":"uint256"},{"name":"deadline","type":"uint256","internalType":"uint256"},{"name":"v","type":"uint8","internalType":"uint8"},{"name":"r","type":"bytes32","internalType":"bytes32"},{"name":"s","type":"bytes32","internalType":"bytes32"}],"outputs":[],"stateMutability":"nonpayable"},{"type":"function","name":"symbol","inputs":[],"outputs":[{"name":"","type":"string","internalType":"string"}],"stateMutability":"view"},{"type":"function","name":"totalSupply","inputs":[],"outputs":[{"name":"","type":"uint256","internalType":"uint256"}],"stateMutability":"view"},{"type":"function","name":"transfer","inputs":[{"name":"to","type":"address","internalType":"address"},{"name":"amount","type":"uint256","internalType":"uint256"}],"outputs":[{"name":"","type":"bool","internalType":"bool"}],"stateMutability":"nonpayable"},{"type":"function","name":"transferFrom","inputs":[{"name":"from","type":"address","internalType":"address"},{"name":"to","type":"address","internalType":"address"},{"name":"amount","type":"uint256","internalType":"uint256"}],"outputs":[{"name":"","type":"bool","internalType":"bool"}],"stateMutability":"nonpayable"},{"type":"event","name":"Approval","inputs":[{"name":"owner","type":"address","indexed":true,"internalType":"address"},{"name":"spender","type":"address","indexed":true,"internalType":"address"},{"name":"value","type":"uint256","indexed":false,"internalType":"uint256"}],"anonymous":false},{"type":"event","name":"Transfer","inputs":[{"name":"from","type":"address","indexed":true,"internalType":"address"},{"name":"to","type":"address","indexed":true,"internalType":"address"},{"name":"value","type":"uint256","indexed":false,"internalType":"uint256"}],"anonymous":false}],"bytecode":{"object":"0x6080604052348015600e575f80fd5b5061118e8061001c5f395ff3fe608060405234801561000f575f80fd5b50600436106100da575f3560e01c80633644e5151161008857806395d89b411161006357806395d89b41146101ca578063a9059cbb146101d2578063d505accf146101e5578063dd62ed3e146101f8575f80fd5b80633644e5151461016e57806370a08231146101765780637ecebe00146101ab575f80fd5b806318160ddd116100b857806318160ddd1461013457806323b872dd14610146578063313ce56714610159575f80fd5b806306fdde03146100de578063095ea7b3146100fc5780631624f6c61461011f575b5f80fd5b6100e661023d565b6040516100f39190610b85565b60405180910390f35b61010f61010a366004610c00565b6102cc565b60405190151581526020016100f3565b61013261012d366004610d2d565b610345565b005b6003545b6040519081526020016100f3565b61010f610154366004610da1565b610443565b60025460405160ff90911681526020016100f3565b6101386105b2565b610138610184366004610ddb565b73ffffffffffffffffffffffffffffffffffffffff165f9081526004602052604090205490565b6101386101b9366004610ddb565b60086020525f908152604090205481565b6100e66105d7565b61010f6101e0366004610c00565b6105e6565b6101326101f3366004610df4565b610694565b610138610206366004610e5a565b73ffffffffffffffffffffffffffffffffffffffff9182165f90815260056020908152604080832093909416825291909152205490565b60605f805461024b90610e8b565b80601f016020809104026020016040519081016040528092919081815260200182805461027790610e8b565b80156102c25780601f10610299576101008083540402835291602001916102c2565b820191905f5260205f20905b8154815290600101906020018083116102a557829003601f168201915b5050505050905090565b335f81815260056020908152604080832073ffffffffffffffffffffffffffffffffffffffff8716808552925280832085905551919290917f8c5be1e5ebec7d5bd14f71427d1e84f3dd0314c0f7b2291e5b200ac8c7c3b925906103339086815260200190565b60405180910390a35060015b92915050565b60095460ff16156103b7576040517f08c379a000000000000000000000000000000000000000000000000000000000815260206004820152601360248201527f414c52454144595f494e495449414c495a45440000000000000000000000000060448201526064015b60405180910390fd5b5f6103c28482610f28565b5060016103cf8382610f28565b50600280547fffffffffffffffffffffffffffffffffffffffffffffffffffffffffffffff001660ff83161790556104056109d4565b6006556104106109ec565b6007555050600980547fffffffffffffffffffffffffffffffffffffffffffffffffffffffffffffff0016600117905550565b73ffffffffffffffffffffffffffffffffffffffff83165f9081526005602090815260408083203384529091528120547fffffffffffffffffffffffffffffffffffffffffffffffffffffffffffffffff81146104d5576104a48184610a8d565b73ffffffffffffffffffffffffffffffffffffffff86165f9081526005602090815260408083203384529091529020555b73ffffffffffffffffffffffffffffffffffffffff85165f908152600460205260409020546105049084610a8d565b73ffffffffffffffffffffffffffffffffffffffff8087165f90815260046020526040808220939093559086168152205461053f9084610b09565b73ffffffffffffffffffffffffffffffffffffffff8086165f8181526004602052604090819020939093559151908716907fddf252ad1be2c89b69c2b068fc378daa952ba7f163c4a11628f55a4df523b3ef9061059f9087815260200190565b60405180910390a3506001949350505050565b5f6006546105be6109d4565b146105d0576105cb6109ec565b905090565b5060075490565b60606001805461024b90610e8b565b335f908152600460205260408120546105ff9083610a8d565b335f908152600460205260408082209290925573ffffffffffffffffffffffffffffffffffffffff8516815220546106379083610b09565b73ffffffffffffffffffffffffffffffffffffffff84165f818152600460205260409081902092909255905133907fddf252ad1be2c89b69c2b068fc378daa952ba7f163c4a11628f55a4df523b3ef906103339086815260200190565b428410156106fe576040517f08c379a000000000000000000000000000000000000000000000000000000000815260206004820152601760248201527f5045524d49545f444541444c494e455f4558504952454400000000000000000060448201526064016103ae565b5f60016107096105b2565b73ffffffffffffffffffffffffffffffffffffffff8a165f90815260086020526040812080547f6e71edae12b1b97f4d1f60370fef10105fa2faae0126114a169c64845d6126c9928d928d928d929091906107638361106c565b9091555060408051602081019690965273ffffffffffffffffffffffffffffffffffffffff94851690860152929091166060840152608083015260a082015260c0810188905260e001604051602081830303815290604052805190602001206040516020016108049291907f190100000000000000000000000000000000000000000000000000000000000081526002810192909252602282015260420190565b604080517fffffffffffffffffffffffffffffffffffffffffffffffffffffffffffffffe081840301815282825280516020918201205f84529083018083525260ff871690820152606081018590526080810184905260a0016020604051602081039080840390855afa15801561087d573d5f803e3d5ffd5b50506040517fffffffffffffffffffffffffffffffffffffffffffffffffffffffffffffffe0015191505073ffffffffffffffffffffffffffffffffffffffff8116158015906108f857508773ffffffffffffffffffffffffffffffffffffffff168173ffffffffffffffffffffffffffffffffffffffff16145b61095e576040517f08c379a000000000000000000000000000000000000000000000000000000000815260206004820152600e60248201527f494e56414c49445f5349474e455200000000000000000000000000000000000060448201526064016103ae565b73ffffffffffffffffffffffffffffffffffffffff8181165f9081526005602090815260408083208b8516808552908352928190208a90555189815291928b16917f8c5be1e5ebec7d5bd14f71427d1e84f3dd0314c0f7b2291e5b200ac8c7c3b925910160405180910390a35050505050505050565b5f610b81806109e563ffffffff8216565b9250505090565b5f7f8b73c3c69bb8fe3d512ecc4cf759cc79239f7b179b0ffacaa9a75d522b39400f5f604051610a1c91906110a3565b60405180910390207fc89efdaa54c0f20c7adf612882df0950f5a951637e0307cdcb4c672f298b8bc6610a4d6109d4565b604080516020810195909552840192909252606083015260808201523060a082015260c00160405160208183030381529060405280519060200120905090565b5f81831015610af8576040517f08c379a000000000000000000000000000000000000000000000000000000000815260206004820152601c60248201527f45524332303a207375627472616374696f6e20756e646572666c6f770000000060448201526064016103ae565b610b028284611132565b9392505050565b5f80610b158385611145565b905083811015610b02576040517f08c379a000000000000000000000000000000000000000000000000000000000815260206004820152601860248201527f45524332303a206164646974696f6e206f766572666c6f77000000000000000060448201526064016103ae565b4690565b602081525f82518060208401528060208501604085015e5f6040828501015260407fffffffffffffffffffffffffffffffffffffffffffffffffffffffffffffffe0601f83011684010191505092915050565b803573ffffffffffffffffffffffffffffffffffffffff81168114610bfb575f80fd5b919050565b5f8060408385031215610c11575f80fd5b610c1a83610bd8565b946020939093013593505050565b7f4e487b71000000000000000000000000000000000000000000000000000000005f52604160045260245ffd5b5f82601f830112610c64575f80fd5b813567ffffffffffffffff811115610c7e57610c7e610c28565b6040517fffffffffffffffffffffffffffffffffffffffffffffffffffffffffffffffe0603f7fffffffffffffffffffffffffffffffffffffffffffffffffffffffffffffffe0601f8501160116810181811067ffffffffffffffff82111715610cea57610cea610c28565b604052818152838201602001851015610d01575f80fd5b816020850160208301375f918101602001919091529392505050565b803560ff81168114610bfb575f80fd5b5f805f60608486031215610d3f575f80fd5b833567ffffffffffffffff811115610d55575f80fd5b610d6186828701610c55565b935050602084013567ffffffffffffffff811115610d7d575f80fd5b610d8986828701610c55565b925050610d9860408501610d1d565b90509250925092565b5f805f60608486031215610db3575f80fd5b610dbc84610bd8565b9250610dca60208501610bd8565b929592945050506040919091013590565b5f60208284031215610deb575f80fd5b610b0282610bd8565b5f805f805f805f60e0888a031215610e0a575f80fd5b610e1388610bd8565b9650610e2160208901610bd8565b95506040880135945060608801359350610e3d60808901610d1d565b9699959850939692959460a0840135945060c09093013592915050565b5f8060408385031215610e6b575f80fd5b610e7483610bd8565b9150610e8260208401610bd8565b90509250929050565b600181811c90821680610e9f57607f821691505b602082108103610ed6577f4e487b71000000000000000000000000000000000000000000000000000000005f52602260045260245ffd5b50919050565b601f821115610f2357805f5260205f20601f840160051c81016020851015610f015750805b601f840160051c820191505b81811015610f20575f8155600101610f0d565b50505b505050565b815167ffffffffffffffff811115610f4257610f42610c28565b610f5681610f508454610e8b565b84610edc565b6020601f821160018114610fa7575f8315610f715750848201515b7fffffffffffffffffffffffffffffffffffffffffffffffffffffffffffffffff600385901b1c1916600184901b178455610f20565b5f848152602081207fffffffffffffffffffffffffffffffffffffffffffffffffffffffffffffffe08516915b82811015610ff45787850151825560209485019460019092019101610fd4565b508482101561103057868401517fffffffffffffffffffffffffffffffffffffffffffffffffffffffffffffffff600387901b60f8161c191681555b50505050600190811b01905550565b7f4e487b71000000000000000000000000000000000000000000000000000000005f52601160045260245ffd5b5f7fffffffffffffffffffffffffffffffffffffffffffffffffffffffffffffffff820361109c5761109c61103f565b5060010190565b5f8083546110b081610e8b565b6001821680156110c757600181146110fa57611127565b7fffffffffffffffffffffffffffffffffffffffffffffffffffffffffffffff0083168652811515820286019350611127565b865f5260205f205f5b8381101561111f57815488820152600190910190602001611103565b505081860193505b509195945050505050565b8181038181111561033f5761033f61103f565b8082018082111561033f5761033f61103f56fea2646970667358221220ca4fe2bddae44cc1cd39b696030f4ce4c27ba5c563b337a4f2300187e2b7547264736f6c634300081a0033","linkReferences":{}},"methodIdentifiers":{"DOMAIN_SEPARATOR()":"3644e515","allowance(address,address)":"dd62ed3e","approve(address,uint256)":"095ea7b3","balanceOf(address)":"70a08231","decimals()":"313ce567","initialize(string,string,uint8)":"1624f6c6","name()":"06fdde03","nonces(address)":"7ecebe00","permit(address,address,uint256,uint256,uint8,bytes32,bytes32)":"d505accf","symbol()":"95d89b41","totalSupply()":"18160ddd","transfer(address,uint256)":"a9059cbb","transferFrom(address,address,uint256)":"23b872dd"},"id":21}