{"abi":[{"type":"function","name":"SQRT_PRICE_121_100","inputs":[],"outputs":[{"name":"","type":"uint160","internalType":"uint160"}],"stateMutability":"view"},{"type":"function","name":"SQRT_PRICE_1_1","inputs":[],"outputs":[{"name":"","type":"uint160","internalType":"uint160"}],"stateMutability":"view"},{"type":"function","name":"SQRT_PRICE_1_2","inputs":[],"outputs":[{"name":"","type":"uint160","internalType":"uint160"}],"stateMutability":"view"},{"type":"function","name":"SQRT_PRICE_1_4","inputs":[],"outputs":[{"name":"","type":"uint160","internalType":"uint160"}],"stateMutability":"view"},{"type":"function","name":"SQRT_PRICE_2_1","inputs":[],"outputs":[{"name":"","type":"uint160","internalType":"uint160"}],"stateMutability":"view"},{"type":"function","name":"SQRT_PRICE_4_1","inputs":[],"outputs":[{"name":"","type":"uint160","internalType":"uint160"}],"stateMutability":"view"}],"bytecode":{"object":"0x610153610034600b8282823980515f1a607314602857634e487b7160e01b5f525f60045260245ffd5b305f52607381538281f3fe730000000000000000000000000000000000000000301460806040526004361061007a575f3560e01c8063e282efb711610058578063e282efb7146100e2578063ed318160146100f6578063fcc6433b14610109575f80fd5b80638a81a2de1461007e57806398ec04cc146100bb578063bd5e4184146100cf575b5f80fd5b6100926c0200000000000000000000000081565b60405173ffffffffffffffffffffffffffffffffffffffff909116815260200160405180910390f35b6100926c016a09e667f3bcc908b2fb136681565b6100926bb504f333f9de6484597d89b381565b6100926c0119999999999999999999999981565b6100926b80000000000000000000000081565b6100926c010000000000000000000000008156fea264697066735822122022c1ec9c5a10ee351aa805559bc02c35bea5f7eba7ce62f4e23eaf5bbd1053b464736f6c634300081a0033","linkReferences":{}},"methodIdentifiers":{"SQRT_PRICE_121_100()":"e282efb7","SQRT_PRICE_1_1()":"fcc6433b","SQRT_PRICE_1_2()":"bd5e4184","SQRT_PRICE_1_4()":"ed318160","SQRT_PRICE_2_1()":"98ec04cc","SQRT_PRICE_4_1()":"8a81a2de"},"id":89}