{"abi":[{"type":"constructor","inputs":[{"name":"_manager","type":"address","internalType":"contract IPoolManager"}],"stateMutability":"nonpayable"},{"type":"function","name":"manager","inputs":[],"outputs":[{"name":"","type":"address","internalType":"contract IPoolManager"}],"stateMutability":"view"},{"type":"function","name":"settle","inputs":[],"outputs":[],"stateMutability":"payable"},{"type":"function","name":"unlockCallback","inputs":[{"name":"","type":"bytes","internalType":"bytes"}],"outputs":[{"name":"","type":"bytes","internalType":"bytes"}],"stateMutability":"nonpayable"}],"bytecode":{"object":"0x60a0604052348015600e575f80fd5b50604051610553380380610553833981016040819052602b91603b565b6001600160a01b03166080526066565b5f60208284031215604a575f80fd5b81516001600160a01b0381168114605f575f80fd5b9392505050565b6080516104c26100915f395f818160520152818160ff015281816101bb01526101e601526104c25ff3fe608060405260043610610033575f3560e01c806311da60b414610037578063481c6a751461004157806391dd73461461009e575b5f80fd5b61003f6100ca565b005b34801561004c575f80fd5b506100747f000000000000000000000000000000000000000000000000000000000000000081565b60405173ffffffffffffffffffffffffffffffffffffffff90911681526020015b60405180910390f35b3480156100a9575f80fd5b506100bd6100b8366004610297565b6101a1565b6040516100959190610305565b6040517f48c89491000000000000000000000000000000000000000000000000000000008152602060048201525f60248201527f000000000000000000000000000000000000000000000000000000000000000073ffffffffffffffffffffffffffffffffffffffff16906348c89491906044015f604051808303815f875af1158015610159573d5f803e3d5ffd5b505050506040513d5f823e601f3d9081017fffffffffffffffffffffffffffffffffffffffffffffffffffffffffffffffe016820160405261019e9190810190610385565b50565b60603373ffffffffffffffffffffffffffffffffffffffff7f000000000000000000000000000000000000000000000000000000000000000016146101e4575f80fd5b7f000000000000000000000000000000000000000000000000000000000000000073ffffffffffffffffffffffffffffffffffffffff166311da60b4476040518263ffffffff1660e01b815260040160206040518083038185885af115801561024f573d5f803e3d5ffd5b50505050506040513d601f19601f820116820180604052508101906102749190610475565b50604080515f602082015201604051602081830303815290604052905092915050565b5f80602083850312156102a8575f80fd5b823567ffffffffffffffff8111156102be575f80fd5b8301601f810185136102ce575f80fd5b803567ffffffffffffffff8111156102e4575f80fd5b8560208284010111156102f5575f80fd5b6020919091019590945092505050565b602081525f82518060208401528060208501604085015e5f6040828501015260407fffffffffffffffffffffffffffffffffffffffffffffffffffffffffffffffe0601f83011684010191505092915050565b7f4e487b71000000000000000000000000000000000000000000000000000000005f52604160045260245ffd5b5f60208284031215610395575f80fd5b815167ffffffffffffffff8111156103ab575f80fd5b8201601f810184136103bb575f80fd5b805167ffffffffffffffff8111156103d5576103d5610358565b6040517fffffffffffffffffffffffffffffffffffffffffffffffffffffffffffffffe0603f7fffffffffffffffffffffffffffffffffffffffffffffffffffffffffffffffe0601f8501160116810181811067ffffffffffffffff8211171561044157610441610358565b604052818152828201602001861015610458575f80fd5b8160208401602083015e5f91810160200191909152949350505050565b5f60208284031215610485575f80fd5b505191905056fea264697066735822122078eced21d8e6cbf77746389e834dd026becc6253369fc394ed4cb6d0d489802364736f6c634300081a0033","linkReferences":{}},"methodIdentifiers":{"manager()":"481c6a75","settle()":"11da60b4","unlockCallback(bytes)":"91dd7346"},"id":76}