{"abi":[{"type":"constructor","inputs":[{"name":"_manager","type":"address","internalType":"contract IPoolManager"}],"stateMutability":"nonpayable"},{"type":"function","name":"donate","inputs":[{"name":"key","type":"tuple","internalType":"struct PoolKey","components":[{"name":"currency0","type":"address","internalType":"Currency"},{"name":"currency1","type":"address","internalType":"Currency"},{"name":"fee","type":"uint24","internalType":"uint24"},{"name":"tickSpacing","type":"int24","internalType":"int24"},{"name":"hooks","type":"address","internalType":"contract IHooks"}]},{"name":"amount0","type":"uint256","internalType":"uint256"},{"name":"amount1","type":"uint256","internalType":"uint256"},{"name":"hookData","type":"bytes","internalType":"bytes"}],"outputs":[{"name":"delta","type":"int256","internalType":"BalanceDelta"}],"stateMutability":"payable"},{"type":"function","name":"manager","inputs":[],"outputs":[{"name":"","type":"address","internalType":"contract IPoolManager"}],"stateMutability":"view"},{"type":"function","name":"unlockCallback","inputs":[{"name":"rawData","type":"bytes","internalType":"bytes"}],"outputs":[{"name":"","type":"bytes","internalType":"bytes"}],"stateMutability":"nonpayable"}],"bytecode":{"object":"0x60a0604052348015600e575f80fd5b506040516116ff3803806116ff833981016040819052602b91603b565b6001600160a01b03166080526066565b5f60208284031215604a575f80fd5b81516001600160a01b0381168114605f575f80fd5b9392505050565b6080516116446100bb5f395f8181606e0152818160e40152818161024001528181610386015281816105b2015281816106100152818161068f015281816106e70152818161087a01526108ba01526116445ff3fe608060405260043610610033575f3560e01c8063234266d714610037578063481c6a751461005d57806391dd7346146100b5575b5f80fd5b61004a6100453660046111a2565b6100e1565b6040519081526020015b60405180910390f35b348015610068575f80fd5b506100907f000000000000000000000000000000000000000000000000000000000000000081565b60405173ffffffffffffffffffffffffffffffffffffffff9091168152602001610054565b3480156100c0575f80fd5b506100d46100cf366004611201565b610226565b60405161005491906112bb565b5f7f000000000000000000000000000000000000000000000000000000000000000073ffffffffffffffffffffffffffffffffffffffff166348c894916040518060a001604052803373ffffffffffffffffffffffffffffffffffffffff1681526020018881526020018781526020018681526020018581525060405160200161016b91906112d4565b6040516020818303038152906040526040518263ffffffff1660e01b815260040161019691906112bb565b5f604051808303815f875af11580156101b1573d5f803e3d5ffd5b505050506040513d5f823e601f3d9081017fffffffffffffffffffffffffffffffffffffffffffffffffffffffffffffffe01682016040526101f691908101906113b5565b806020019051810190610209919061142a565b905047801561021d5761021d5f3383610738565b50949350505050565b60603373ffffffffffffffffffffffffffffffffffffffff7f00000000000000000000000000000000000000000000000000000000000000001614610269575f80fd5b5f61027683850185611441565b90505f61028e82602001515f0151835f015130610839565b925050505f6102a9836020015160200151845f015130610839565b92505050815f1461031b576040517f08c379a000000000000000000000000000000000000000000000000000000000815260206004820152601560248201527f64656c74614265666f726530206973206e6f742030000000000000000000000060448201526064015b60405180910390fd5b8015610383576040517f08c379a000000000000000000000000000000000000000000000000000000000815260206004820152601560248201527f64656c74614265666f726531206973206e6f74203000000000000000000000006044820152606401610312565b5f7f000000000000000000000000000000000000000000000000000000000000000073ffffffffffffffffffffffffffffffffffffffff1663234266d785602001518660400151876060015188608001516040518563ffffffff1660e01b81526004016103f394939291906114e8565b6020604051808303815f875af115801561040f573d5f803e3d5ffd5b505050506040513d601f19601f82011682018060405250810190610433919061142a565b90505f61044b85602001515f0151865f015130610839565b925050505f610466866020015160200151875f015130610839565b92505050856040015161047890611594565b8214610506576040517f08c379a000000000000000000000000000000000000000000000000000000000815260206004820152603160248201527f64656c7461416674657230206973206e6f7420657175616c20746f202d696e7460448201527f32353628646174612e616d6f756e7430290000000000000000000000000000006064820152608401610312565b856060015161051490611594565b81146105a2576040517f08c379a000000000000000000000000000000000000000000000000000000000815260206004820152603160248201527f64656c7461416674657231206973206e6f7420657175616c20746f202d696e7460448201527f32353628646174612e616d6f756e7431290000000000000000000000000000006064820152608401610312565b5f821215610600578551610600907f0000000000000000000000000000000000000000000000000000000000000000906105db85611594565b60208a01515173ffffffffffffffffffffffffffffffffffffffff169291905f6108ec565b5f811215610660578551610660907f00000000000000000000000000000000000000000000000000000000000000009061063984611594565b6020808b0151015173ffffffffffffffffffffffffffffffffffffffff169291905f6108ec565b5f8213156106b65785516020870151516106b69173ffffffffffffffffffffffffffffffffffffffff909116907f000000000000000000000000000000000000000000000000000000000000000090855f610caa565b5f81131561070e578551602080880151015161070e9173ffffffffffffffffffffffffffffffffffffffff909116907f000000000000000000000000000000000000000000000000000000000000000090845f610caa565b60408051602081018590520160405160208183030381529060405296505050505050505b92915050565b5f73ffffffffffffffffffffffffffffffffffffffff8416610792575f805f8085875af190508061078d5761078d7f8549db590000000000000000000000000000000000000000000000000000000084610dee565b610833565b6040517fa9059cbb00000000000000000000000000000000000000000000000000000000815273ffffffffffffffffffffffffffffffffffffffff8416600482015282602482015260205f6044835f895af13d15601f3d1160015f511416171691505f81525f60208201525f60408201525080610833576108337fb12c5f9c0000000000000000000000000000000000000000000000000000000085610dee565b50505050565b5f808061085c73ffffffffffffffffffffffffffffffffffffffff871686610e21565b925061089e73ffffffffffffffffffffffffffffffffffffffff87167f0000000000000000000000000000000000000000000000000000000000000000610e21565b91506108e173ffffffffffffffffffffffffffffffffffffffff7f0000000000000000000000000000000000000000000000000000000000000000168588610ef0565b905093509350939050565b80156109cd578373ffffffffffffffffffffffffffffffffffffffff1663f5298aca846109428873ffffffffffffffffffffffffffffffffffffffff1673ffffffffffffffffffffffffffffffffffffffff1690565b6040517fffffffff0000000000000000000000000000000000000000000000000000000060e085901b16815273ffffffffffffffffffffffffffffffffffffffff90921660048301526024820152604481018590526064015b5f604051808303815f87803b1580156109b2575f80fd5b505af11580156109c4573d5f803e3d5ffd5b50505050610ca3565b73ffffffffffffffffffffffffffffffffffffffff8516610a5e578373ffffffffffffffffffffffffffffffffffffffff166311da60b4836040518263ffffffff1660e01b815260040160206040518083038185885af1158015610a33573d5f803e3d5ffd5b50505050506040513d601f19601f82011682018060405250810190610a58919061142a565b50610ca3565b6040517fa584119400000000000000000000000000000000000000000000000000000000815273ffffffffffffffffffffffffffffffffffffffff868116600483015285169063a5841194906024015f604051808303815f87803b158015610ac4575f80fd5b505af1158015610ad6573d5f803e3d5ffd5b5050505073ffffffffffffffffffffffffffffffffffffffff83163014610b9b576040517f23b872dd00000000000000000000000000000000000000000000000000000000815273ffffffffffffffffffffffffffffffffffffffff84811660048301528581166024830152604482018490528616906323b872dd906064016020604051808303815f875af1158015610b71573d5f803e3d5ffd5b505050506040513d601f19601f82011682018060405250810190610b9591906115ef565b50610c33565b6040517fa9059cbb00000000000000000000000000000000000000000000000000000000815273ffffffffffffffffffffffffffffffffffffffff85811660048301526024820184905286169063a9059cbb906044016020604051808303815f875af1158015610c0d573d5f803e3d5ffd5b505050506040513d601f19601f82011682018060405250810190610c3191906115ef565b505b8373ffffffffffffffffffffffffffffffffffffffff166311da60b46040518163ffffffff1660e01b81526004016020604051808303815f875af1158015610c7d573d5f803e3d5ffd5b505050506040513d601f19601f82011682018060405250810190610ca1919061142a565b505b5050505050565b80610d12576040517f0b0d9c0900000000000000000000000000000000000000000000000000000000815273ffffffffffffffffffffffffffffffffffffffff8681166004830152848116602483015260448201849052851690630b0d9c099060640161099b565b8373ffffffffffffffffffffffffffffffffffffffff1663156e29f684610d628873ffffffffffffffffffffffffffffffffffffffff1673ffffffffffffffffffffffffffffffffffffffff1690565b6040517fffffffff0000000000000000000000000000000000000000000000000000000060e085901b16815273ffffffffffffffffffffffffffffffffffffffff90921660048301526024820152604481018590526064015f604051808303815f87803b158015610dd1575f80fd5b505af1158015610de3573d5f803e3d5ffd5b505050505050505050565b3d60405183815282600482015260406024820152816044820152815f606483013e602080601f8401040260640191508181fd5b5f73ffffffffffffffffffffffffffffffffffffffff8316610e5b575073ffffffffffffffffffffffffffffffffffffffff811631610732565b6040517f70a0823100000000000000000000000000000000000000000000000000000000815273ffffffffffffffffffffffffffffffffffffffff83811660048301528416906370a0823190602401602060405180830381865afa158015610ec5573d5f803e3d5ffd5b505050506040513d601f19601f82011682018060405250810190610ee9919061142a565b9050610732565b5f8073ffffffffffffffffffffffffffffffffffffffff84165f5273ffffffffffffffffffffffffffffffffffffffff831660205260405f2090508473ffffffffffffffffffffffffffffffffffffffff1663f135baaa826040518263ffffffff1660e01b8152600401610f6691815260200190565b602060405180830381865afa158015610f81573d5f803e3d5ffd5b505050506040513d601f19601f82011682018060405250810190610fa5919061142a565b95945050505050565b7f4e487b71000000000000000000000000000000000000000000000000000000005f52604160045260245ffd5b60405160a0810167ffffffffffffffff81118282101715610ffe57610ffe610fae565b60405290565b604051601f82017fffffffffffffffffffffffffffffffffffffffffffffffffffffffffffffffe016810167ffffffffffffffff8111828210171561104b5761104b610fae565b604052919050565b73ffffffffffffffffffffffffffffffffffffffff81168114611074575f80fd5b50565b803561108281611053565b919050565b5f60a08284031215611097575f80fd5b61109f610fdb565b905081356110ac81611053565b815260208201356110bc81611053565b6020820152604082013562ffffff811681146110d6575f80fd5b60408201526060820135600281900b81146110ef575f80fd5b606082015261110060808301611077565b608082015292915050565b5f67ffffffffffffffff82111561112457611124610fae565b50601f017fffffffffffffffffffffffffffffffffffffffffffffffffffffffffffffffe01660200190565b5f82601f83011261115f575f80fd5b813561117261116d8261110b565b611004565b818152846020838601011115611186575f80fd5b816020850160208301375f918101602001919091529392505050565b5f805f8061010085870312156111b6575f80fd5b6111c08686611087565b935060a0850135925060c0850135915060e085013567ffffffffffffffff8111156111e9575f80fd5b6111f587828801611150565b91505092959194509250565b5f8060208385031215611212575f80fd5b823567ffffffffffffffff811115611228575f80fd5b8301601f81018513611238575f80fd5b803567ffffffffffffffff81111561124e575f80fd5b85602082840101111561125f575f80fd5b6020919091019590945092505050565b5f81518084528060208401602086015e5f6020828601015260207fffffffffffffffffffffffffffffffffffffffffffffffffffffffffffffffe0601f83011685010191505092915050565b602081525f6112cd602083018461126f565b9392505050565b6020815273ffffffffffffffffffffffffffffffffffffffff82511660208201525f602083015161137d604084018273ffffffffffffffffffffffffffffffffffffffff815116825273ffffffffffffffffffffffffffffffffffffffff602082015116602083015262ffffff6040820151166040830152606081015160020b606083015273ffffffffffffffffffffffffffffffffffffffff60808201511660808301525050565b50604083015160e083015260608301516101008301526080830151610120808401526113ad61014084018261126f565b949350505050565b5f602082840312156113c5575f80fd5b815167ffffffffffffffff8111156113db575f80fd5b8201601f810184136113eb575f80fd5b80516113f961116d8261110b565b81815285602083850101111561140d575f80fd5b8160208401602083015e5f91810160200191909152949350505050565b5f6020828403121561143a575f80fd5b5051919050565b5f60208284031215611451575f80fd5b813567ffffffffffffffff811115611467575f80fd5b82016101208185031215611479575f80fd5b611481610fdb565b813561148c81611053565b815261149b8560208401611087565b602082015260c0820135604082015260e0820135606082015261010082013567ffffffffffffffff8111156114ce575f80fd5b6114da86828501611150565b608083015250949350505050565b611567818673ffffffffffffffffffffffffffffffffffffffff815116825273ffffffffffffffffffffffffffffffffffffffff602082015116602083015262ffffff6040820151166040830152606081015160020b606083015273ffffffffffffffffffffffffffffffffffffffff60808201511660808301525050565b8360a08201528260c082015261010060e08201525f61158a61010083018461126f565b9695505050505050565b5f7f800000000000000000000000000000000000000000000000000000000000000082036115e9577f4e487b71000000000000000000000000000000000000000000000000000000005f52601160045260245ffd5b505f0390565b5f602082840312156115ff575f80fd5b815180151581146112cd575f80fdfea2646970667358221220911a18644c1d6a37b2906ade039468c2892c1a9320048a5aae5479ca0c9aaf7e64736f6c634300081a0033","linkReferences":{}},"methodIdentifiers":{"donate((address,address,uint24,int24,address),uint256,uint256,bytes)":"234266d7","manager()":"481c6a75","unlockCallback(bytes)":"91dd7346"},"id":72}