{"abi":[{"type":"constructor","inputs":[{"name":"_poolManager","type":"address","internalType":"contract IPoolManager"}],"stateMutability":"nonpayable"},{"type":"function","name":"poolManager","inputs":[],"outputs":[{"name":"","type":"address","internalType":"contract IPoolManager"}],"stateMutability":"view"},{"type":"function","name":"quoteExactInputSingle","inputs":[{"name":"poolKey","type":"tuple","internalType":"struct PoolKey","components":[{"name":"currency0","type":"address","internalType":"Currency"},{"name":"currency1","type":"address","internalType":"Currency"},{"name":"fee","type":"uint24","internalType":"uint24"},{"name":"tickSpacing","type":"int24","internalType":"int24"},{"name":"hooks","type":"address","internalType":"contract IHooks"}]},{"name":"swapParams","type":"tuple","internalType":"struct IPoolManager.SwapParams","components":[{"name":"zeroForOne","type":"bool","internalType":"bool"},{"name":"amountSpecified","type":"int256","internalType":"int256"},{"name":"sqrtPriceLimitX96","type":"uint160","internalType":"uint160"}]}],"outputs":[{"name":"amountReceived","type":"uint256","internalType":"uint256"}],"stateMutability":"view"}],"bytecode":{"object":"0x60a0604052348015600e575f80fd5b50604051612751380380612751833981016040819052602b91603b565b6001600160a01b03166080526066565b5f60208284031215604a575f80fd5b81516001600160a01b0381168114605f575f80fd5b9392505050565b6080516126ce6100835f395f81816062015260b301526126ce5ff3fe608060405234801561000f575f80fd5b5060043610610033575f3560e01c806251b53c14610037578063dc4c90d31461005d575b5f80fd5b61004a61004536600461204d565b6100a9565b6040519081526020015b60405180910390f35b6100847f000000000000000000000000000000000000000000000000000000000000000081565b60405173ffffffffffffffffffffffffffffffffffffffff9091168152602001610054565b5f805f805f6100d97f000000000000000000000000000000000000000000000000000000000000000088886100f8565b93509350935093506100ea846107a6565b5f9450505050505b92915050565b5f805f805f6040518060800160405280875f01602081019061011a91906120ad565b151581526020015f8860200135131515815260200188604001602081019061014291906120de565b62ffffff16815260200161015c6060890160408a01612118565b73ffffffffffffffffffffffffffffffffffffffff1690526001925090505f610185898961083a565b90505f6040518060e00160405280896020013581526020015f8152602001835f015173ffffffffffffffffffffffffffffffffffffffff168152602001836020015160020b81526020015f81526020015f6fffffffffffffffffffffffffffffffff16815260200161022861020b8c80360381019061020491906121c0565b60a0902090565b73ffffffffffffffffffffffffffffffffffffffff8e16906108c8565b6fffffffffffffffffffffffffffffffff16905290505b8051158015906102835750826060015173ffffffffffffffffffffffffffffffffffffffff16816040015173ffffffffffffffffffffffffffffffffffffffff1614155b15610749576040805160e0810182525f80825260208201819052818301819052606082018190526080820181905260a0820181905260c08201529082015173ffffffffffffffffffffffffffffffffffffffff1681526103008b6102ef610204368e90038e018e6121c0565b60408601516060860151885161097a565b1515604083015260020b602082018190527ffffffffffffffffffffffffffffffffffffffffffffffffffffffffffff276181315610363577ffffffffffffffffffffffffffffffffffffffffffffffffffffffffffff276186020820152610382565b620d89e860020b816020015160020b131561038257620d89e860208201525b61038f8160200151610b4b565b73ffffffffffffffffffffffffffffffffffffffff1660608201526040820151845161045391906103f657856060015173ffffffffffffffffffffffffffffffffffffffff16836060015173ffffffffffffffffffffffffffffffffffffffff161161042e565b856060015173ffffffffffffffffffffffffffffffffffffffff16836060015173ffffffffffffffffffffffffffffffffffffffff16105b61043c578260600151610442565b85606001515b60c085015185516040890151610e48565b60c085015260a0840152608083015273ffffffffffffffffffffffffffffffffffffffff1660408301526020840151156104e5576104a38160c00151826080015161049e9190612281565b610fdb565b825183906104b2908390612294565b90525060a08101516104c390610fdb565b6104cc906122ba565b826020018181516104dd9190612294565b905250610530565b6104f28160a00151610fdb565b825183906105019083906122f0565b90525060c0810151608082015161051b9161049e91612281565b8260200181815161052c91906122f0565b9052505b61056e6040518060400160405280600281526020017f6f6b000000000000000000000000000000000000000000000000000000000000815250611012565b806060015173ffffffffffffffffffffffffffffffffffffffff16826040015173ffffffffffffffffffffffffffffffffffffffff16036106a6576105e76040518060400160405280600381526020017f7961680000000000000000000000000000000000000000000000000000000000815250611012565b806040015115610678575f61062a610607610204368e90038e018e6121c0565b602084015173ffffffffffffffffffffffffffffffffffffffff8f1691906110a1565b5050915050845f0151156106445761064181612317565b90505b6106528360c00151826111a4565b6fffffffffffffffffffffffffffffffff1660c08401528561067381612353565b965050505b8351610688578060200151610699565b600181602001516106999190612377565b60020b6060830152610734565b805f015173ffffffffffffffffffffffffffffffffffffffff16826040015173ffffffffffffffffffffffffffffffffffffffff16146107345761071e6040518060400160405280600381526020017f6e61680000000000000000000000000000000000000000000000000000000000815250611012565b61072b82604001516111d4565b60020b60608301525b6107438563ffffffff1661155d565b5061023f565b60208301518351151590151514610777578060200151815f015189602001356107729190612294565b61078d565b80516107879060208a0135612294565b81602001515b604090920151909b919a50985092965091945050505050565b610837816040516024016107bc91815260200190565b604080517fffffffffffffffffffffffffffffffffffffffffffffffffffffffffffffffe08184030181529190526020810180517bffffffffffffffffffffffffffffffffffffffffffffffffffffffff167f4e0c1d1d000000000000000000000000000000000000000000000000000000001790526115ee565b50565b604080516060810182525f808252602082018190529181019190915261088861086b610204368590038501856121c0565b73ffffffffffffffffffffffffffffffffffffffff8516906115f7565b505060020b602083015273ffffffffffffffffffffffffffffffffffffffff1681526108ba60808301606084016123b8565b60020b604082015292915050565b5f806108d3836116dc565b90505f6108e1600383612281565b6040517f1e2eaeaf0000000000000000000000000000000000000000000000000000000081526004810182905290915073ffffffffffffffffffffffffffffffffffffffff861690631e2eaeaf90602401602060405180830381865afa15801561094d573d5f803e3d5ffd5b505050506040513d601f19601f8201168201806040525081019061097191906123d1565b95945050505050565b5f80806109878686612415565b90505f8560020b1280156109a657506109a08686612488565b60020b15155b156109b957806109b5816124a9565b9150505b8315610a72575f806109ca83611718565b90925090505f600160ff831681901b906109e49082612505565b6109ee9190612281565b90505f81610a1373ffffffffffffffffffffffffffffffffffffffff8e168d87611734565b168015159650905085610a3d5789610a2e5f85900b87612377565b610a389190612518565b610a67565b89610a4782611837565b610a519085612537565b610a5d905f0b87612377565b610a679190612518565b965050505050610b40565b5f80610a87610a82846001612550565b611718565b90925090505f610a9e600160ff841681901b612505565b1990505f81610ac473ffffffffffffffffffffffffffffffffffffffff8e168d87611734565b168015159650905085610b035789610add8460ff612537565b5f0b610aea876001612550565b610af49190612550565b610afe9190612518565b610b39565b8983610b0e836118d1565b610b189190612537565b5f0b610b25876001612550565b610b2f9190612550565b610b399190612518565b9650505050505b509550959350505050565b60020b5f60ff82901d80830118620d89e8811115610b8d57610b8d7f8b86327a000000000000000000000000000000000000000000000000000000008461196c565b7001fffcb933bd6fad37aa2d162d1a5940016001821602700100000000000000000000000000000000186002821615610bd6576ffff97272373d413259a46990580e213a0260801c5b6004821615610bf5576ffff2e50f5f656932ef12357cf3c7fdcc0260801c5b6008821615610c14576fffe5caca7e10e4e61c3624eaa0941cd00260801c5b6010821615610c33576fffcb9843d60f6159c9db58835c9266440260801c5b6020821615610c52576fff973b41fa98c081472e6896dfb254c00260801c5b6040821615610c71576fff2ea16466c96a3843ec78b326b528610260801c5b6080821615610c90576ffe5dee046a99a2a811c461f1969c30530260801c5b610100821615610cb0576ffcbe86c7900a88aedcffc83b479aa3a40260801c5b610200821615610cd0576ff987a7253ac413176f2b074cf7815e540260801c5b610400821615610cf0576ff3392b0822b70005940c7a398e4b70f30260801c5b610800821615610d10576fe7159475a2c29b7443b29c7fa6e889d90260801c5b611000821615610d30576fd097f3bdfd2022b8845ad8f792aa58250260801c5b612000821615610d50576fa9f746462d870fdf8a65dc1f90e061e50260801c5b614000821615610d70576f70d869a156d2a1b890bb3df62baf32f70260801c5b618000821615610d90576f31be135f97d08fd981231505542fcfa60260801c5b62010000821615610db1576f09aa508b5b7a84e1c677de54f3e99bc90260801c5b62020000821615610dd1576e5d6af8dedb81196699c329225ee6040260801c5b62040000821615610df0576d2216e584f5fa1ea926041bedfe980260801c5b62080000821615610e0d576b048a170391f7dc42444e8fa20260801c5b5f841315610e38577fffffffffffffffffffffffffffffffffffffffffffffffffffffffffffffffff045b63ffffffff0160201c9392505050565b5f80808062ffffff851673ffffffffffffffffffffffffffffffffffffffff808a16908b1610158288128015610f4e575f610e8e8a5f0385620f424003620f424061197b565b905082610ea757610ea28d8d8d6001611a37565b610eb4565b610eb48c8e8d6001611aa2565b9650868110610ee8578b9750620f42408414610edf57610eda878586620f424003611be1565b610ee1565b865b9450610f24565b610ef48d8c8386611c11565b975082610f0d57610f088d898d6001611a37565b610f1a565b610f1a888e8d6001611aa2565b9650868a5f030394505b82610f3a57610f358d898d5f611aa2565b610f46565b610f46888e8d5f611a37565b955050610fcc565b81610f6457610f5f8c8c8c5f611aa2565b610f70565b610f708b8d8c5f611a37565b9450848910610f81578a9650610f93565b889450610f908c8b8785611c75565b96505b81610faa57610fa58c888c6001611a37565b610fb7565b610fb7878d8c6001611aa2565b9550610fc9868485620f424003611be1565b93505b50505095509550955095915050565b805f81121561100d5761100d7f93dafdf100000000000000000000000000000000000000000000000000000000611cd2565b919050565b610837816040516024016110269190612591565b604080517fffffffffffffffffffffffffffffffffffffffffffffffffffffffffffffffe08184030181529190526020810180517bffffffffffffffffffffffffffffffffffffffffffffffffffffffff167f41304fac00000000000000000000000000000000000000000000000000000000179052611cda565b5f805f805f6110b08787611cfa565b6040517f35fd631a00000000000000000000000000000000000000000000000000000000815260048101829052600360248201529091505f9073ffffffffffffffffffffffffffffffffffffffff8a16906335fd631a906044015f60405180830381865afa158015611124573d5f803e3d5ffd5b505050506040513d5f823e601f3d9081017fffffffffffffffffffffffffffffffffffffffffffffffffffffffffffffffe016820160405261116991908101906125e4565b602081015160408201516060909201516fffffffffffffffffffffffffffffffff82169c60809290921d9b5091995090975095505050505050565b6fffffffffffffffffffffffffffffffff8216600f82900b01608081901c156100f2576393dafdf15f526004601cfd5b5f73fffd8963efd1fc6a506488495d951d51639616827ffffffffffffffffffffffffffffffffffffffffffffffffffffffffefffd895d830173ffffffffffffffffffffffffffffffffffffffff161115611253576112537f614875240000000000000000000000000000000000000000000000000000000083611d4d565b77ffffffffffffffffffffffffffffffffffffffff00000000602083901b166fffffffffffffffffffffffffffffffff811160071b81811c67ffffffffffffffff811160061b90811c63ffffffff811160051b90811c61ffff811160041b90811c60ff8111600390811b91821c600f811160021b90811c918211600190811b92831c979088119617909417909217179091171717608081106112fd57607f810383901c9150611307565b80607f0383901b91505b908002607f81811c60ff83811c9190911c800280831c81831c1c800280841c81841c1c800280851c81851c1c800280861c81861c1c800280871c81871c1c800280881c81881c1c800280891c81891c1c8002808a1c818a1c1c8002808b1c818b1c1c8002808c1c818c1c1c8002808d1c818d1c1c8002808e1c9c81901c9c909c1c80029c8d901c9e9d7fffffffffffffffffffffffffffffffffffffffffffffffffffffffffffffff808f0160401b60c09190911c678000000000000000161760c19b909b1c674000000000000000169a909a1760c29990991c672000000000000000169890981760c39790971c671000000000000000169690961760c49590951c670800000000000000169490941760c59390931c670400000000000000169290921760c69190911c670200000000000000161760c79190911c670100000000000000161760c89190911c6680000000000000161760c99190911c6640000000000000161760ca9190911c6620000000000000161760cb9190911c6610000000000000161760cc9190911c6608000000000000161760cd9190911c66040000000000001617693627a301d71055774c8581027ffffffffffffffffffffffffffffffffffd709b7e5480fba5a50fed5e62ffc5568101608090811d906fdb2df09e81959a81455e260799a0632f8301901d600281810b9083900b1461154e578873ffffffffffffffffffffffffffffffffffffffff1661152682610b4b565b73ffffffffffffffffffffffffffffffffffffffff1611156115485781611550565b80611550565b815b9998505050505050505050565b6108378160405160240161157391815260200190565b604080517fffffffffffffffffffffffffffffffffffffffffffffffffffffffffffffffe08184030181529190526020810180517bffffffffffffffffffffffffffffffffffffffffffffffffffffffff167ff5b1bba900000000000000000000000000000000000000000000000000000000179052611cda565b61083781611cda565b5f805f805f611605866116dc565b6040517f1e2eaeaf000000000000000000000000000000000000000000000000000000008152600481018290529091505f9073ffffffffffffffffffffffffffffffffffffffff891690631e2eaeaf90602401602060405180830381865afa158015611673573d5f803e3d5ffd5b505050506040513d601f19601f8201168201806040525081019061169791906123d1565b905073ffffffffffffffffffffffffffffffffffffffff811695508060a01c60020b945062ffffff8160b81c16935062ffffff8160d01c169250505092959194509250565b6040515f906116fb908390600690602001918252602082015260400190565b604051602081830303815290604052805190602001209050919050565b600281900b60081d5f61172d61010084612488565b9050915091565b5f8061173f846116dc565b90505f61174d600583612281565b60408051600187900b60208201529081018290529091505f90606001604080518083037fffffffffffffffffffffffffffffffffffffffffffffffffffffffffffffffe00181529082905280516020909101207f1e2eaeaf00000000000000000000000000000000000000000000000000000000825260048201819052915073ffffffffffffffffffffffffffffffffffffffff881690631e2eaeaf90602401602060405180830381865afa158015611808573d5f803e3d5ffd5b505050506040513d601f19601f8201168201806040525081019061182c91906123d1565b979650505050505050565b5f808211611843575f80fd5b507f0706060506020504060203020504030106050205030304010505030400000000601f6f8421084210842108cc6318c6db6d54be831560081b6fffffffffffffffffffffffffffffffff851160071b1784811c67ffffffffffffffff1060061b1784811c63ffffffff1060051b1784811c61ffff1060041b1784811c60ff1060031b1793841c1c161a1790565b5f8082116118dd575f80fd5b507e1f0d1e100c1d070f090b19131c1706010e11080a1a141802121b150316040581196001019091166101e07f804040554300526644320000502061067405302602000010750620017611707760fc7fb6db6db6ddddddddd34d34d349249249210842108c6318c639ce739cffffffff840260f81c161b60f71c1690811c63d76453e004601f169190911a1790565b815f528060020b60045260245ffd5b5f838302817fffffffffffffffffffffffffffffffffffffffffffffffffffffffffffffffff858709828110838203039150508084116119b9575f80fd5b805f036119cb57508290049050611a30565b5f848688095f868103871696879004966002600389028118808a02820302808a02820302808a02820302808a02820302808a02820302808a02909103029181900381900460010186841190950394909402919094039290920491909117919091029150505b9392505050565b5f73ffffffffffffffffffffffffffffffffffffffff8481169086160360ff81901d908101186c010000000000000000000000006fffffffffffffffffffffffffffffffff8516611a8981848461197b565b9350845f83858409111684019350505050949350505050565b5f8373ffffffffffffffffffffffffffffffffffffffff168573ffffffffffffffffffffffffffffffffffffffff161115611adb579293925b73ffffffffffffffffffffffffffffffffffffffff8516611b025762bfc9215f526004601cfd5b7bffffffffffffffffffffffffffffffff000000000000000000000000606084901b1673ffffffffffffffffffffffffffffffffffffffff8686031683611b8e578673ffffffffffffffffffffffffffffffffffffffff16611b7b83838973ffffffffffffffffffffffffffffffffffffffff1661197b565b81611b8857611b886123e8565b04611bd4565b611bd4611bb283838973ffffffffffffffffffffffffffffffffffffffff16611be1565b8873ffffffffffffffffffffffffffffffffffffffff16808204910615150190565b925050505b949350505050565b5f611bed84848461197b565b90508180611bfd57611bfd6123e8565b83850915611a305760010180611a30575f80fd5b5f6fffffffffffffffffffffffffffffffff84161573ffffffffffffffffffffffffffffffffffffffff8616151715611c5157634f2461b85f526004601cfd5b81611c6857611c638585856001611d6f565b610971565b6109718585856001611ed1565b5f6fffffffffffffffffffffffffffffffff84161573ffffffffffffffffffffffffffffffffffffffff8616151715611cb557634f2461b85f526004601cfd5b81611cc657611c638585855f611ed1565b6109718585855f611d6f565b805f5260045ffd5b80516a636f6e736f6c652e6c6f67602083015f808483855afa5050505050565b5f80611d05846116dc565b90505f611d13600483612281565b60408051600287900b6020820152908101829052909150606001604051602081830303815290604052805190602001209250505092915050565b815f5273ffffffffffffffffffffffffffffffffffffffff811660045260245ffd5b5f8115611e14575f73ffffffffffffffffffffffffffffffffffffffff841115611dc257611dbd846c01000000000000000000000000876fffffffffffffffffffffffffffffffff1661197b565b611de2565b611de26fffffffffffffffffffffffffffffffff8616606086901b612685565b9050611e0c611e078273ffffffffffffffffffffffffffffffffffffffff8916612281565b612006565b915050611bd9565b5f73ffffffffffffffffffffffffffffffffffffffff841115611e6057611e5b846c01000000000000000000000000876fffffffffffffffffffffffffffffffff16611be1565b611e86565b611e86606085901b6fffffffffffffffffffffffffffffffff8716808204910615150190565b90508073ffffffffffffffffffffffffffffffffffffffff871611611eb257634323a5555f526004601cfd5b73ffffffffffffffffffffffffffffffffffffffff8616039050611bd9565b5f825f03611ee0575083611bd9565b7bffffffffffffffffffffffffffffffff000000000000000000000000606085901b168215611fab5773ffffffffffffffffffffffffffffffffffffffff861684810290858281611f3357611f336123e8565b0403611f7057818101828110611f6e57611f64838973ffffffffffffffffffffffffffffffffffffffff1683611be1565b9350505050611bd9565b505b50611e0c8185611f9673ffffffffffffffffffffffffffffffffffffffff8a1683612685565b611fa09190612281565b808204910615150190565b73ffffffffffffffffffffffffffffffffffffffff8616848102908582041481831116611fdf5763f5c787f15f526004601cfd5b808203611f64611e078473ffffffffffffffffffffffffffffffffffffffff8b1684611be1565b8073ffffffffffffffffffffffffffffffffffffffff8116811461100d5761100d7f93dafdf100000000000000000000000000000000000000000000000000000000611cd2565b5f80828403610100811215612060575f80fd5b60a081121561206d575f80fd5b83925060607fffffffffffffffffffffffffffffffffffffffffffffffffffffffffffffff608201121561209f575f80fd5b5060a0830190509250929050565b5f602082840312156120bd575f80fd5b81358015158114611a30575f80fd5b803562ffffff8116811461100d575f80fd5b5f602082840312156120ee575f80fd5b611a30826120cc565b73ffffffffffffffffffffffffffffffffffffffff81168114610837575f80fd5b5f60208284031215612128575f80fd5b8135611a30816120f7565b7f4e487b71000000000000000000000000000000000000000000000000000000005f52604160045260245ffd5b604051601f82017fffffffffffffffffffffffffffffffffffffffffffffffffffffffffffffffe016810167ffffffffffffffff811182821017156121a7576121a7612133565b604052919050565b8035600281900b811461100d575f80fd5b5f60a08284031280156121d1575f80fd5b5060405160a0810167ffffffffffffffff811182821017156121f5576121f5612133565b6040528235612203816120f7565b81526020830135612213816120f7565b6020820152612224604084016120cc565b6040820152612235606084016121af565b60608201526080830135612248816120f7565b60808201529392505050565b7f4e487b71000000000000000000000000000000000000000000000000000000005f52601160045260245ffd5b808201808211156100f2576100f2612254565b8181035f8312801583831316838312821617156122b3576122b3612254565b5092915050565b5f7f800000000000000000000000000000000000000000000000000000000000000082036122ea576122ea612254565b505f0390565b8082018281125f83128015821682158216171561230f5761230f612254565b505092915050565b5f81600f0b7fffffffffffffffffffffffffffffffff80000000000000000000000000000000810361234b5761234b612254565b5f0392915050565b5f63ffffffff821663ffffffff810361236e5761236e612254565b60010192915050565b600282810b9082900b037fffffffffffffffffffffffffffffffffffffffffffffffffffffffffff8000008112627fffff821317156100f2576100f2612254565b5f602082840312156123c8575f80fd5b611a30826121af565b5f602082840312156123e1575f80fd5b5051919050565b7f4e487b71000000000000000000000000000000000000000000000000000000005f52601260045260245ffd5b5f8160020b8360020b8061242b5761242b6123e8565b7fffffffffffffffffffffffffffffffffffffffffffffffffffffffffffffffff81147fffffffffffffffffffffffffffffffffffffffffffffffffffffffffff8000008314161561247f5761247f612254565b90059392505050565b5f8260020b8061249a5761249a6123e8565b808360020b0791505092915050565b5f8160020b7fffffffffffffffffffffffffffffffffffffffffffffffffffffffffff80000081036124dd576124dd612254565b7fffffffffffffffffffffffffffffffffffffffffffffffffffffffffffffffff0192915050565b818103818111156100f2576100f2612254565b5f8260020b8260020b028060020b91508082146122b3576122b3612254565b60ff82811682821603908111156100f2576100f2612254565b600281810b9083900b01627fffff81137fffffffffffffffffffffffffffffffffffffffffffffffffffffffffff800000821217156100f2576100f2612254565b602081525f82518060208401528060208501604085015e5f6040828501015260407fffffffffffffffffffffffffffffffffffffffffffffffffffffffffffffffe0601f83011684010191505092915050565b5f602082840312156125f4575f80fd5b815167ffffffffffffffff81111561260a575f80fd5b8201601f8101841361261a575f80fd5b805167ffffffffffffffff81111561263457612634612133565b8060051b61264460208201612160565b9182526020818401810192908101908784111561265f575f80fd5b6020850194505b8385101561182c57845180835260209586019590935090910190612666565b5f82612693576126936123e8565b50049056fea26469706673582212200b6c6a52027aa74208c6cf01978db2cab922b10bbf75ebba79b1053067e29a0964736f6c634300081a0033","linkReferences":{}},"methodIdentifiers":{"poolManager()":"dc4c90d3","quoteExactInputSingle((address,address,uint24,int24,address),(bool,int256,uint160))":"0051b53c"},"id":94}