{"abi":[{"type":"constructor","inputs":[{"name":"_poolManager","type":"address","internalType":"contract IPoolManager"}],"stateMutability":"nonpayable"},{"type":"function","name":"poolManager","inputs":[],"outputs":[{"name":"","type":"address","internalType":"contract IPoolManager"}],"stateMutability":"view"},{"type":"function","name":"quoteExactInputSingle","inputs":[{"name":"poolKey","type":"tuple","internalType":"struct PoolKey","components":[{"name":"currency0","type":"address","internalType":"Currency"},{"name":"currency1","type":"address","internalType":"Currency"},{"name":"fee","type":"uint24","internalType":"uint24"},{"name":"tickSpacing","type":"int24","internalType":"int24"},{"name":"hooks","type":"address","internalType":"contract IHooks"}]},{"name":"swapParams","type":"tuple","internalType":"struct IPoolManager.SwapParams","components":[{"name":"zeroForOne","type":"bool","internalType":"bool"},{"name":"amountSpecified","type":"int256","internalType":"int256"},{"name":"sqrtPriceLimitX96","type":"uint160","internalType":"uint160"}]}],"outputs":[{"name":"quote","type":"int256","internalType":"BalanceDelta"}],"stateMutability":"view"}],"bytecode":{"object":"0x60a0604052348015600e575f80fd5b5060405161266b38038061266b833981016040819052602b91603b565b6001600160a01b03166080526066565b5f60208284031215604a575f80fd5b81516001600160a01b0381168114605f575f80fd5b9392505050565b6080516125e86100835f395f81816062015260b301526125e85ff3fe608060405234801561000f575f80fd5b5060043610610033575f3560e01c806251b53c14610037578063dc4c90d31461005d575b5f80fd5b61004a610045366004611f34565b6100a9565b6040519081526020015b60405180910390f35b6100847f000000000000000000000000000000000000000000000000000000000000000081565b60405173ffffffffffffffffffffffffffffffffffffffff9091168152602001610054565b5f808080806100e77f0000000000000000000000000000000000000000000000000000000000000000886100e2368a90038a018a612031565b61014d565b935093509350935061012d6040518060400160405280600481526020017f444f4e450000000000000000000000000000000000000000000000000000000081525061071e565b610136846107b0565b61013f836107b0565b5f9450505050505b92915050565b5f805f805f8560200151610160906120cb565b604080516080810182528851151581525f808413602083015292935090818101906101919060608c01908c01612113565b62ffffff168152604089015173ffffffffffffffffffffffffffffffffffffffff166020918201525f80851391830191909152600194509091506101d58a8a610841565b90505f6040518060e001604052808581526020015f8152602001835f015173ffffffffffffffffffffffffffffffffffffffff168152602001836020015160020b81526020015f81526020015f6fffffffffffffffffffffffffffffffff1681526020016102746102578d803603810190610250919061213d565b60a0902090565b73ffffffffffffffffffffffffffffffffffffffff8f16906108cf565b6fffffffffffffffffffffffffffffffff16905290505b8051158015906102cf5750826060015173ffffffffffffffffffffffffffffffffffffffff16816040015173ffffffffffffffffffffffffffffffffffffffff1614155b15610711576040805160e0810182525f80825260208201819052818301819052606082018190526080820181905260a0820181905260c08201529082015173ffffffffffffffffffffffffffffffffffffffff16815261034c8c61033b610250368f90038f018f61213d565b604086015160608601518851610981565b1515604083015260020b602082018190527ffffffffffffffffffffffffffffffffffffffffffffffffffffffffffff2761813156103af577ffffffffffffffffffffffffffffffffffffffffffffffffffffffffffff2761860208201526103ce565b620d89e860020b816020015160020b13156103ce57620d89e860208201525b6103db8160200151610b52565b73ffffffffffffffffffffffffffffffffffffffff1660608201526040820151845161049f919061044257856060015173ffffffffffffffffffffffffffffffffffffffff16836060015173ffffffffffffffffffffffffffffffffffffffff161161047a565b856060015173ffffffffffffffffffffffffffffffffffffffff16836060015173ffffffffffffffffffffffffffffffffffffffff16105b61048857826060015161048e565b85606001515b60c085015185516040890151610e4f565b60c085015260a0840152608083015273ffffffffffffffffffffffffffffffffffffffff166040830152602084015115610528576104ef8160c0015182608001516104ea91906121d1565b610fe2565b825183906104fe9083906121e4565b90525060a081015161050f90610fe2565b826020015161051e91906121e4565b6020830152610573565b6105358160a00151610fe2565b8251839061054490839061220a565b90525060c0810151608082015161055e916104ea916121d1565b826020015161056d919061220a565b60208301525b806060015173ffffffffffffffffffffffffffffffffffffffff16826040015173ffffffffffffffffffffffffffffffffffffffff160361067557806040015115610647575f6105f96105ce610250368f90038f018f61213d565b83602001518f73ffffffffffffffffffffffffffffffffffffffff166110199092919063ffffffff16565b5050915050845f0151156106135761061081612231565b90505b6106218360c001518261111c565b6fffffffffffffffffffffffffffffffff1660c0840152866106428161226d565b975050505b8351610657578060200151610668565b600181602001516106689190612291565b60020b60608301526106c5565b805f015173ffffffffffffffffffffffffffffffffffffffff16826040015173ffffffffffffffffffffffffffffffffffffffff16146106c5576106bc826040015161114c565b60020b60608301525b602084015184511515901515146106ec57602082015182516106e790876121e4565b6106fe565b81516106f890866121e4565b82602001515b6040840151919a509850965061028b9050565b5050505093509350935093565b6107ad8160405160240161073291906122d2565b604080517fffffffffffffffffffffffffffffffffffffffffffffffffffffffffffffffe08184030181529190526020810180517bffffffffffffffffffffffffffffffffffffffffffffffffffffffff167f41304fac000000000000000000000000000000000000000000000000000000001790526114d5565b50565b6107ad816040516024016107c691815260200190565b604080517fffffffffffffffffffffffffffffffffffffffffffffffffffffffffffffffe08184030181529190526020810180517bffffffffffffffffffffffffffffffffffffffffffffffffffffffff167f4e0c1d1d000000000000000000000000000000000000000000000000000000001790526114d5565b604080516060810182525f808252602082018190529181019190915261088f6108726102503685900385018561213d565b73ffffffffffffffffffffffffffffffffffffffff8516906114de565b505060020b602083015273ffffffffffffffffffffffffffffffffffffffff1681526108c16080830160608401612325565b60020b604082015292915050565b5f806108da836115c3565b90505f6108e86003836121d1565b6040517f1e2eaeaf0000000000000000000000000000000000000000000000000000000081526004810182905290915073ffffffffffffffffffffffffffffffffffffffff861690631e2eaeaf90602401602060405180830381865afa158015610954573d5f803e3d5ffd5b505050506040513d601f19601f82011682018060405250810190610978919061233e565b95945050505050565b5f808061098e8686612382565b90505f8560020b1280156109ad57506109a786866123f5565b60020b15155b156109c057806109bc81612416565b9150505b8315610a79575f806109d1836115ff565b90925090505f600160ff831681901b906109eb9082612472565b6109f591906121d1565b90505f81610a1a73ffffffffffffffffffffffffffffffffffffffff8e168d8761161b565b168015159650905085610a445789610a355f85900b87612291565b610a3f9190612485565b610a6e565b89610a4e8261171e565b610a5890856124a4565b610a64905f0b87612291565b610a6e9190612485565b965050505050610b47565b5f80610a8e610a898460016124bd565b6115ff565b90925090505f610aa5600160ff841681901b612472565b1990505f81610acb73ffffffffffffffffffffffffffffffffffffffff8e168d8761161b565b168015159650905085610b0a5789610ae48460ff6124a4565b5f0b610af18760016124bd565b610afb91906124bd565b610b059190612485565b610b40565b8983610b15836117b8565b610b1f91906124a4565b5f0b610b2c8760016124bd565b610b3691906124bd565b610b409190612485565b9650505050505b509550959350505050565b60020b5f60ff82901d80830118620d89e8811115610b9457610b947f8b86327a0000000000000000000000000000000000000000000000000000000084611853565b7001fffcb933bd6fad37aa2d162d1a5940016001821602700100000000000000000000000000000000186002821615610bdd576ffff97272373d413259a46990580e213a0260801c5b6004821615610bfc576ffff2e50f5f656932ef12357cf3c7fdcc0260801c5b6008821615610c1b576fffe5caca7e10e4e61c3624eaa0941cd00260801c5b6010821615610c3a576fffcb9843d60f6159c9db58835c9266440260801c5b6020821615610c59576fff973b41fa98c081472e6896dfb254c00260801c5b6040821615610c78576fff2ea16466c96a3843ec78b326b528610260801c5b6080821615610c97576ffe5dee046a99a2a811c461f1969c30530260801c5b610100821615610cb7576ffcbe86c7900a88aedcffc83b479aa3a40260801c5b610200821615610cd7576ff987a7253ac413176f2b074cf7815e540260801c5b610400821615610cf7576ff3392b0822b70005940c7a398e4b70f30260801c5b610800821615610d17576fe7159475a2c29b7443b29c7fa6e889d90260801c5b611000821615610d37576fd097f3bdfd2022b8845ad8f792aa58250260801c5b612000821615610d57576fa9f746462d870fdf8a65dc1f90e061e50260801c5b614000821615610d77576f70d869a156d2a1b890bb3df62baf32f70260801c5b618000821615610d97576f31be135f97d08fd981231505542fcfa60260801c5b62010000821615610db8576f09aa508b5b7a84e1c677de54f3e99bc90260801c5b62020000821615610dd8576e5d6af8dedb81196699c329225ee6040260801c5b62040000821615610df7576d2216e584f5fa1ea926041bedfe980260801c5b62080000821615610e14576b048a170391f7dc42444e8fa20260801c5b5f841315610e3f577fffffffffffffffffffffffffffffffffffffffffffffffffffffffffffffffff045b63ffffffff0160201c9392505050565b5f80808062ffffff851673ffffffffffffffffffffffffffffffffffffffff808a16908b1610158288128015610f55575f610e958a5f0385620f424003620f4240611862565b905082610eae57610ea98d8d8d600161191e565b610ebb565b610ebb8c8e8d6001611989565b9650868110610eef578b9750620f42408414610ee657610ee1878586620f424003611ac8565b610ee8565b865b9450610f2b565b610efb8d8c8386611af8565b975082610f1457610f0f8d898d600161191e565b610f21565b610f21888e8d6001611989565b9650868a5f030394505b82610f4157610f3c8d898d5f611989565b610f4d565b610f4d888e8d5f61191e565b955050610fd3565b81610f6b57610f668c8c8c5f611989565b610f77565b610f778b8d8c5f61191e565b9450848910610f88578a9650610f9a565b889450610f978c8b8785611b5c565b96505b81610fb157610fac8c888c600161191e565b610fbe565b610fbe878d8c6001611989565b9550610fd0868485620f424003611ac8565b93505b50505095509550955095915050565b805f811215611014576110147f93dafdf100000000000000000000000000000000000000000000000000000000611bb9565b919050565b5f805f805f6110288787611bc1565b6040517f35fd631a00000000000000000000000000000000000000000000000000000000815260048101829052600360248201529091505f9073ffffffffffffffffffffffffffffffffffffffff8a16906335fd631a906044015f60405180830381865afa15801561109c573d5f803e3d5ffd5b505050506040513d5f823e601f3d9081017fffffffffffffffffffffffffffffffffffffffffffffffffffffffffffffffe01682016040526110e191908101906124fe565b602081015160408201516060909201516fffffffffffffffffffffffffffffffff82169c60809290921d9b5091995090975095505050505050565b6fffffffffffffffffffffffffffffffff8216600f82900b01608081901c15610147576393dafdf15f526004601cfd5b5f73fffd8963efd1fc6a506488495d951d51639616827ffffffffffffffffffffffffffffffffffffffffffffffffffffffffefffd895d830173ffffffffffffffffffffffffffffffffffffffff1611156111cb576111cb7f614875240000000000000000000000000000000000000000000000000000000083611c14565b77ffffffffffffffffffffffffffffffffffffffff00000000602083901b166fffffffffffffffffffffffffffffffff811160071b81811c67ffffffffffffffff811160061b90811c63ffffffff811160051b90811c61ffff811160041b90811c60ff8111600390811b91821c600f811160021b90811c918211600190811b92831c9790881196179094179092171790911717176080811061127557607f810383901c915061127f565b80607f0383901b91505b908002607f81811c60ff83811c9190911c800280831c81831c1c800280841c81841c1c800280851c81851c1c800280861c81861c1c800280871c81871c1c800280881c81881c1c800280891c81891c1c8002808a1c818a1c1c8002808b1c818b1c1c8002808c1c818c1c1c8002808d1c818d1c1c8002808e1c9c81901c9c909c1c80029c8d901c9e9d7fffffffffffffffffffffffffffffffffffffffffffffffffffffffffffffff808f0160401b60c09190911c678000000000000000161760c19b909b1c674000000000000000169a909a1760c29990991c672000000000000000169890981760c39790971c671000000000000000169690961760c49590951c670800000000000000169490941760c59390931c670400000000000000169290921760c69190911c670200000000000000161760c79190911c670100000000000000161760c89190911c6680000000000000161760c99190911c6640000000000000161760ca9190911c6620000000000000161760cb9190911c6610000000000000161760cc9190911c6608000000000000161760cd9190911c66040000000000001617693627a301d71055774c8581027ffffffffffffffffffffffffffffffffffd709b7e5480fba5a50fed5e62ffc5568101608090811d906fdb2df09e81959a81455e260799a0632f8301901d600281810b9083900b146114c6578873ffffffffffffffffffffffffffffffffffffffff1661149e82610b52565b73ffffffffffffffffffffffffffffffffffffffff1611156114c057816114c8565b806114c8565b815b9998505050505050505050565b6107ad81611c36565b5f805f805f6114ec866115c3565b6040517f1e2eaeaf000000000000000000000000000000000000000000000000000000008152600481018290529091505f9073ffffffffffffffffffffffffffffffffffffffff891690631e2eaeaf90602401602060405180830381865afa15801561155a573d5f803e3d5ffd5b505050506040513d601f19601f8201168201806040525081019061157e919061233e565b905073ffffffffffffffffffffffffffffffffffffffff811695508060a01c60020b945062ffffff8160b81c16935062ffffff8160d01c169250505092959194509250565b6040515f906115e2908390600690602001918252602082015260400190565b604051602081830303815290604052805190602001209050919050565b600281900b60081d5f611614610100846123f5565b9050915091565b5f80611626846115c3565b90505f6116346005836121d1565b60408051600187900b60208201529081018290529091505f90606001604080518083037fffffffffffffffffffffffffffffffffffffffffffffffffffffffffffffffe00181529082905280516020909101207f1e2eaeaf00000000000000000000000000000000000000000000000000000000825260048201819052915073ffffffffffffffffffffffffffffffffffffffff881690631e2eaeaf90602401602060405180830381865afa1580156116ef573d5f803e3d5ffd5b505050506040513d601f19601f82011682018060405250810190611713919061233e565b979650505050505050565b5f80821161172a575f80fd5b507f0706060506020504060203020504030106050205030304010505030400000000601f6f8421084210842108cc6318c6db6d54be831560081b6fffffffffffffffffffffffffffffffff851160071b1784811c67ffffffffffffffff1060061b1784811c63ffffffff1060051b1784811c61ffff1060041b1784811c60ff1060031b1793841c1c161a1790565b5f8082116117c4575f80fd5b507e1f0d1e100c1d070f090b19131c1706010e11080a1a141802121b150316040581196001019091166101e07f804040554300526644320000502061067405302602000010750620017611707760fc7fb6db6db6ddddddddd34d34d349249249210842108c6318c639ce739cffffffff840260f81c161b60f71c1690811c63d76453e004601f169190911a1790565b815f528060020b60045260245ffd5b5f838302817fffffffffffffffffffffffffffffffffffffffffffffffffffffffffffffffff858709828110838203039150508084116118a0575f80fd5b805f036118b257508290049050611917565b5f848688095f868103871696879004966002600389028118808a02820302808a02820302808a02820302808a02820302808a02820302808a02909103029181900381900460010186841190950394909402919094039290920491909117919091029150505b9392505050565b5f73ffffffffffffffffffffffffffffffffffffffff8481169086160360ff81901d908101186c010000000000000000000000006fffffffffffffffffffffffffffffffff8516611970818484611862565b9350845f83858409111684019350505050949350505050565b5f8373ffffffffffffffffffffffffffffffffffffffff168573ffffffffffffffffffffffffffffffffffffffff1611156119c2579293925b73ffffffffffffffffffffffffffffffffffffffff85166119e95762bfc9215f526004601cfd5b7bffffffffffffffffffffffffffffffff000000000000000000000000606084901b1673ffffffffffffffffffffffffffffffffffffffff8686031683611a75578673ffffffffffffffffffffffffffffffffffffffff16611a6283838973ffffffffffffffffffffffffffffffffffffffff16611862565b81611a6f57611a6f612355565b04611abb565b611abb611a9983838973ffffffffffffffffffffffffffffffffffffffff16611ac8565b8873ffffffffffffffffffffffffffffffffffffffff16808204910615150190565b925050505b949350505050565b5f611ad4848484611862565b90508180611ae457611ae4612355565b838509156119175760010180611917575f80fd5b5f6fffffffffffffffffffffffffffffffff84161573ffffffffffffffffffffffffffffffffffffffff8616151715611b3857634f2461b85f526004601cfd5b81611b4f57611b4a8585856001611c56565b610978565b6109788585856001611db8565b5f6fffffffffffffffffffffffffffffffff84161573ffffffffffffffffffffffffffffffffffffffff8616151715611b9c57634f2461b85f526004601cfd5b81611bad57611b4a8585855f611db8565b6109788585855f611c56565b805f5260045ffd5b5f80611bcc846115c3565b90505f611bda6004836121d1565b60408051600287900b6020820152908101829052909150606001604051602081830303815290604052805190602001209250505092915050565b815f5273ffffffffffffffffffffffffffffffffffffffff811660045260245ffd5b80516a636f6e736f6c652e6c6f67602083015f808483855afa5050505050565b5f8115611cfb575f73ffffffffffffffffffffffffffffffffffffffff841115611ca957611ca4846c01000000000000000000000000876fffffffffffffffffffffffffffffffff16611862565b611cc9565b611cc96fffffffffffffffffffffffffffffffff8616606086901b61259f565b9050611cf3611cee8273ffffffffffffffffffffffffffffffffffffffff89166121d1565b611eed565b915050611ac0565b5f73ffffffffffffffffffffffffffffffffffffffff841115611d4757611d42846c01000000000000000000000000876fffffffffffffffffffffffffffffffff16611ac8565b611d6d565b611d6d606085901b6fffffffffffffffffffffffffffffffff8716808204910615150190565b90508073ffffffffffffffffffffffffffffffffffffffff871611611d9957634323a5555f526004601cfd5b73ffffffffffffffffffffffffffffffffffffffff8616039050611ac0565b5f825f03611dc7575083611ac0565b7bffffffffffffffffffffffffffffffff000000000000000000000000606085901b168215611e925773ffffffffffffffffffffffffffffffffffffffff861684810290858281611e1a57611e1a612355565b0403611e5757818101828110611e5557611e4b838973ffffffffffffffffffffffffffffffffffffffff1683611ac8565b9350505050611ac0565b505b50611cf38185611e7d73ffffffffffffffffffffffffffffffffffffffff8a168361259f565b611e8791906121d1565b808204910615150190565b73ffffffffffffffffffffffffffffffffffffffff8616848102908582041481831116611ec65763f5c787f15f526004601cfd5b808203611e4b611cee8473ffffffffffffffffffffffffffffffffffffffff8b1684611ac8565b8073ffffffffffffffffffffffffffffffffffffffff81168114611014576110147f93dafdf100000000000000000000000000000000000000000000000000000000611bb9565b5f80828403610100811215611f47575f80fd5b60a0811215611f54575f80fd5b83925060607fffffffffffffffffffffffffffffffffffffffffffffffffffffffffffffff6082011215611f86575f80fd5b5060a0830190509250929050565b7f4e487b71000000000000000000000000000000000000000000000000000000005f52604160045260245ffd5b604051601f82017fffffffffffffffffffffffffffffffffffffffffffffffffffffffffffffffe016810167ffffffffffffffff8111828210171561200857612008611f94565b604052919050565b73ffffffffffffffffffffffffffffffffffffffff811681146107ad575f80fd5b5f6060828403128015612042575f80fd5b506040516060810167ffffffffffffffff8111828210171561206657612066611f94565b60405282358015158114612078575f80fd5b815260208381013590820152604083013561209281612010565b60408201529392505050565b7f4e487b71000000000000000000000000000000000000000000000000000000005f52601160045260245ffd5b5f7f800000000000000000000000000000000000000000000000000000000000000082036120fb576120fb61209e565b505f0390565b803562ffffff81168114611014575f80fd5b5f60208284031215612123575f80fd5b61191782612101565b8035600281900b8114611014575f80fd5b5f60a082840312801561214e575f80fd5b5060405160a0810167ffffffffffffffff8111828210171561217257612172611f94565b604052823561218081612010565b8152602083013561219081612010565b60208201526121a160408401612101565b60408201526121b26060840161212c565b606082015260808301356121c581612010565b60808201529392505050565b808201808211156101475761014761209e565b8181035f8312801583831316838312821617156122035761220361209e565b5092915050565b8082018281125f8312801582168215821617156122295761222961209e565b505092915050565b5f81600f0b7fffffffffffffffffffffffffffffffff8000000000000000000000000000000081036122655761226561209e565b5f0392915050565b5f63ffffffff821663ffffffff81036122885761228861209e565b60010192915050565b600282810b9082900b037fffffffffffffffffffffffffffffffffffffffffffffffffffffffffff8000008112627fffff821317156101475761014761209e565b602081525f82518060208401528060208501604085015e5f6040828501015260407fffffffffffffffffffffffffffffffffffffffffffffffffffffffffffffffe0601f83011684010191505092915050565b5f60208284031215612335575f80fd5b6119178261212c565b5f6020828403121561234e575f80fd5b5051919050565b7f4e487b71000000000000000000000000000000000000000000000000000000005f52601260045260245ffd5b5f8160020b8360020b8061239857612398612355565b7fffffffffffffffffffffffffffffffffffffffffffffffffffffffffffffffff81147fffffffffffffffffffffffffffffffffffffffffffffffffffffffffff800000831416156123ec576123ec61209e565b90059392505050565b5f8260020b8061240757612407612355565b808360020b0791505092915050565b5f8160020b7fffffffffffffffffffffffffffffffffffffffffffffffffffffffffff800000810361244a5761244a61209e565b7fffffffffffffffffffffffffffffffffffffffffffffffffffffffffffffffff0192915050565b818103818111156101475761014761209e565b5f8260020b8260020b028060020b91508082146122035761220361209e565b60ff82811682821603908111156101475761014761209e565b600281810b9083900b01627fffff81137fffffffffffffffffffffffffffffffffffffffffffffffffffffffffff800000821217156101475761014761209e565b5f6020828403121561250e575f80fd5b815167ffffffffffffffff811115612524575f80fd5b8201601f81018413612534575f80fd5b805167ffffffffffffffff81111561254e5761254e611f94565b8060051b61255e60208201611fc1565b91825260208184018101929081019087841115612579575f80fd5b6020850194505b8385101561171357845180835260209586019590935090910190612580565b5f826125ad576125ad612355565b50049056fea2646970667358221220044d63c2bd44312fad13f5caeef1177b9f61d916b179a98d1f831785f9dd5b8e64736f6c634300081a0033","linkReferences":{}},"methodIdentifiers":{"poolManager()":"dc4c90d3","quoteExactInputSingle((address,address,uint24,int24,address),(bool,int256,uint160))":"0051b53c"},"id":94}