{"abi":[{"type":"constructor","inputs":[{"name":"_manager","type":"address","internalType":"contract IPoolManager"}],"stateMutability":"nonpayable"},{"type":"function","name":"manager","inputs":[],"outputs":[{"name":"","type":"address","internalType":"contract IPoolManager"}],"stateMutability":"view"},{"type":"function","name":"modifyLiquidity","inputs":[{"name":"key","type":"tuple","internalType":"struct PoolKey","components":[{"name":"currency0","type":"address","internalType":"Currency"},{"name":"currency1","type":"address","internalType":"Currency"},{"name":"fee","type":"uint24","internalType":"uint24"},{"name":"tickSpacing","type":"int24","internalType":"int24"},{"name":"hooks","type":"address","internalType":"contract IHooks"}]},{"name":"params","type":"tuple","internalType":"struct IPoolManager.ModifyLiquidityParams","components":[{"name":"tickLower","type":"int24","internalType":"int24"},{"name":"tickUpper","type":"int24","internalType":"int24"},{"name":"liquidityDelta","type":"int256","internalType":"int256"},{"name":"salt","type":"bytes32","internalType":"bytes32"}]},{"name":"hookData","type":"bytes","internalType":"bytes"},{"name":"settleUsingBurn","type":"bool","internalType":"bool"},{"name":"takeClaims","type":"bool","internalType":"bool"}],"outputs":[{"name":"delta","type":"int256","internalType":"BalanceDelta"}],"stateMutability":"payable"},{"type":"function","name":"modifyLiquidity","inputs":[{"name":"key","type":"tuple","internalType":"struct PoolKey","components":[{"name":"currency0","type":"address","internalType":"Currency"},{"name":"currency1","type":"address","internalType":"Currency"},{"name":"fee","type":"uint24","internalType":"uint24"},{"name":"tickSpacing","type":"int24","internalType":"int24"},{"name":"hooks","type":"address","internalType":"contract IHooks"}]},{"name":"params","type":"tuple","internalType":"struct IPoolManager.ModifyLiquidityParams","components":[{"name":"tickLower","type":"int24","internalType":"int24"},{"name":"tickUpper","type":"int24","internalType":"int24"},{"name":"liquidityDelta","type":"int256","internalType":"int256"},{"name":"salt","type":"bytes32","internalType":"bytes32"}]},{"name":"hookData","type":"bytes","internalType":"bytes"}],"outputs":[{"name":"delta","type":"int256","internalType":"BalanceDelta"}],"stateMutability":"payable"},{"type":"function","name":"unlockCallback","inputs":[{"name":"rawData","type":"bytes","internalType":"bytes"}],"outputs":[{"name":"","type":"bytes","internalType":"bytes"}],"stateMutability":"nonpayable"}],"bytecode":{"object":"0x60a0604052348015600e575f80fd5b50604051611ba9380380611ba9833981016040819052602b91603b565b6001600160a01b03166080526066565b5f60208284031215604a575f80fd5b81516001600160a01b0381168114605f575f80fd5b9392505050565b608051611adf6100ca5f395f81816079015281816101020152818161027f015281816102f301528181610324015281816104090152818161058d015281816105f001528181610679015281816106d7015281816108c201526109020152611adf5ff3fe60806040526004361061003e575f3560e01c80630a5b11e414610042578063481c6a75146100685780635a6bcfda146100c057806391dd7346146100d3575b5f80fd5b610055610050366004611406565b6100ff565b6040519081526020015b60405180910390f35b348015610073575f80fd5b5061009b7f000000000000000000000000000000000000000000000000000000000000000081565b60405173ffffffffffffffffffffffffffffffffffffffff909116815260200161005f565b6100556100ce36600461148d565b61024f565b3480156100de575f80fd5b506100f26100ed3660046114eb565b610265565b60405161005f91906115a5565b5f7f000000000000000000000000000000000000000000000000000000000000000073ffffffffffffffffffffffffffffffffffffffff166348c894916040518060c001604052803373ffffffffffffffffffffffffffffffffffffffff168152602001898152602001888152602001878152602001861515815260200185151581525060405160200161019391906115be565b6040516020818303038152906040526040518263ffffffff1660e01b81526004016101be91906115a5565b5f604051808303815f875af11580156101d9573d5f803e3d5ffd5b505050506040513d5f823e601f3d9081017fffffffffffffffffffffffffffffffffffffffffffffffffffffffffffffffe016820160405261021e91908101906116dd565b8060200190518101906102319190611752565b9050478015610245576102455f3383610729565b5095945050505050565b5f61025d8484845f806100ff565b949350505050565b60603373ffffffffffffffffffffffffffffffffffffffff7f000000000000000000000000000000000000000000000000000000000000000016146102a8575f80fd5b5f6102b583850185611769565b90505f61031d6102ca836020015160a0902090565b60408401518051602082015160609092015173ffffffffffffffffffffffffffffffffffffffff7f000000000000000000000000000000000000000000000000000000000000000016939230929161082a565b505090505f7f000000000000000000000000000000000000000000000000000000000000000073ffffffffffffffffffffffffffffffffffffffff16635a6bcfda8460200151856040015186606001516040518463ffffffff1660e01b815260040161038b93929190611832565b60408051808303815f875af11580156103a6573d5f803e3d5ffd5b505050506040513d601f19601f820116820180604052508101906103ca91906118f6565b5090505f6104336103e0856020015160a0902090565b60408601518051602082015160609092015173ffffffffffffffffffffffffffffffffffffffff7f000000000000000000000000000000000000000000000000000000000000000016939230929161082a565b505090505f61044d85602001515f0151865f015130610881565b925050505f610468866020015160200151875f015130610881565b9250505082600f0b86604001516040015186600f0b6104879190611945565b146104f2576040517f08c379a000000000000000000000000000000000000000000000000000000000815260206004820152601a60248201527f6c6971756964697479206368616e676520696e636f7272656374000000000000604482015260640160405180910390fd5b5f866040015160400151121561053a575f82138061050f57505f81135b61051b5761051b61196c565b5f82128061052857505f81125b156105355761053561196c565b61057d565b5f866040015160400151131561057d575f82128061055757505f81125b6105635761056361196c565b5f82138061057057505f81135b1561057d5761057d61196c565b5f8212156105e05785516105e0907f0000000000000000000000000000000000000000000000000000000000000000906105b685611999565b60808a015160208b01515173ffffffffffffffffffffffffffffffffffffffff1693929190610934565b5f811215610645578551610645907f00000000000000000000000000000000000000000000000000000000000000009061061984611999565b60808a01516020808c0151015173ffffffffffffffffffffffffffffffffffffffff1693929190610934565b5f8213156106a157855160a08701516020880151516106a19273ffffffffffffffffffffffffffffffffffffffff909116917f000000000000000000000000000000000000000000000000000000000000000091908690610cf2565b5f8113156106ff57855160a087015160208089015101516106ff9273ffffffffffffffffffffffffffffffffffffffff909116917f000000000000000000000000000000000000000000000000000000000000000091908590610cf2565b60408051602081018690520160405160208183030381529060405296505050505050505b92915050565b5f73ffffffffffffffffffffffffffffffffffffffff8416610783575f805f8085875af190508061077e5761077e7f8549db590000000000000000000000000000000000000000000000000000000084610e36565b610824565b6040517fa9059cbb00000000000000000000000000000000000000000000000000000000815273ffffffffffffffffffffffffffffffffffffffff8416600482015282602482015260205f6044835f895af13d15601f3d1160015f511416171691505f81525f60208201525f60408201525080610824576108247fb12c5f9c0000000000000000000000000000000000000000000000000000000085610e36565b50505050565b60408051602681018390526006810184905260038101859052858152603a600c8201205f92820183905260208201839052908290528190819061086e8a8a83610e69565b919c909b50909950975050505050505050565b5f80806108a473ffffffffffffffffffffffffffffffffffffffff871686610f50565b92506108e673ffffffffffffffffffffffffffffffffffffffff87167f0000000000000000000000000000000000000000000000000000000000000000610f50565b915061092973ffffffffffffffffffffffffffffffffffffffff7f000000000000000000000000000000000000000000000000000000000000000016858861101f565b905093509350939050565b8015610a15578373ffffffffffffffffffffffffffffffffffffffff1663f5298aca8461098a8873ffffffffffffffffffffffffffffffffffffffff1673ffffffffffffffffffffffffffffffffffffffff1690565b6040517fffffffff0000000000000000000000000000000000000000000000000000000060e085901b16815273ffffffffffffffffffffffffffffffffffffffff90921660048301526024820152604481018590526064015b5f604051808303815f87803b1580156109fa575f80fd5b505af1158015610a0c573d5f803e3d5ffd5b50505050610ceb565b73ffffffffffffffffffffffffffffffffffffffff8516610aa6578373ffffffffffffffffffffffffffffffffffffffff166311da60b4836040518263ffffffff1660e01b815260040160206040518083038185885af1158015610a7b573d5f803e3d5ffd5b50505050506040513d601f19601f82011682018060405250810190610aa09190611752565b50610ceb565b6040517fa584119400000000000000000000000000000000000000000000000000000000815273ffffffffffffffffffffffffffffffffffffffff868116600483015285169063a5841194906024015f604051808303815f87803b158015610b0c575f80fd5b505af1158015610b1e573d5f803e3d5ffd5b5050505073ffffffffffffffffffffffffffffffffffffffff83163014610be3576040517f23b872dd00000000000000000000000000000000000000000000000000000000815273ffffffffffffffffffffffffffffffffffffffff84811660048301528581166024830152604482018490528616906323b872dd906064016020604051808303815f875af1158015610bb9573d5f803e3d5ffd5b505050506040513d601f19601f82011682018060405250810190610bdd91906119cf565b50610c7b565b6040517fa9059cbb00000000000000000000000000000000000000000000000000000000815273ffffffffffffffffffffffffffffffffffffffff85811660048301526024820184905286169063a9059cbb906044016020604051808303815f875af1158015610c55573d5f803e3d5ffd5b505050506040513d601f19601f82011682018060405250810190610c7991906119cf565b505b8373ffffffffffffffffffffffffffffffffffffffff166311da60b46040518163ffffffff1660e01b81526004016020604051808303815f875af1158015610cc5573d5f803e3d5ffd5b505050506040513d601f19601f82011682018060405250810190610ce99190611752565b505b5050505050565b80610d5a576040517f0b0d9c0900000000000000000000000000000000000000000000000000000000815273ffffffffffffffffffffffffffffffffffffffff8681166004830152848116602483015260448201849052851690630b0d9c09906064016109e3565b8373ffffffffffffffffffffffffffffffffffffffff1663156e29f684610daa8873ffffffffffffffffffffffffffffffffffffffff1673ffffffffffffffffffffffffffffffffffffffff1690565b6040517fffffffff0000000000000000000000000000000000000000000000000000000060e085901b16815273ffffffffffffffffffffffffffffffffffffffff90921660048301526024820152604481018590526064015f604051808303815f87803b158015610e19575f80fd5b505af1158015610e2b573d5f803e3d5ffd5b505050505050505050565b3d60405183815282600482015260406024820152816044820152815f606483013e602080601f8401040260640191508181fd5b5f805f80610e7786866110dd565b6040517f35fd631a00000000000000000000000000000000000000000000000000000000815260048101829052600360248201529091505f9073ffffffffffffffffffffffffffffffffffffffff8916906335fd631a906044015f60405180830381865afa158015610eeb573d5f803e3d5ffd5b505050506040513d5f823e601f3d9081017fffffffffffffffffffffffffffffffffffffffffffffffffffffffffffffffe0168201604052610f3091908101906119ea565b60208101516040820151606090920151909a919950975095505050505050565b5f73ffffffffffffffffffffffffffffffffffffffff8316610f8a575073ffffffffffffffffffffffffffffffffffffffff811631610723565b6040517f70a0823100000000000000000000000000000000000000000000000000000000815273ffffffffffffffffffffffffffffffffffffffff83811660048301528416906370a0823190602401602060405180830381865afa158015610ff4573d5f803e3d5ffd5b505050506040513d601f19601f820116820180604052508101906110189190611752565b9050610723565b5f8073ffffffffffffffffffffffffffffffffffffffff84165f5273ffffffffffffffffffffffffffffffffffffffff831660205260405f2090508473ffffffffffffffffffffffffffffffffffffffff1663f135baaa826040518263ffffffff1660e01b815260040161109591815260200190565b602060405180830381865afa1580156110b0573d5f803e3d5ffd5b505050506040513d601f19601f820116820180604052508101906110d49190611752565b95945050505050565b5f806110e88461112d565b90505f6110f6600683611a96565b6040805160208101879052908101829052909150606001604051602081830303815290604052805190602001209250505092915050565b6040515f9061114c908390600690602001918252602082015260400190565b604051602081830303815290604052805190602001209050919050565b7f4e487b71000000000000000000000000000000000000000000000000000000005f52604160045260245ffd5b60405160c0810167ffffffffffffffff811182821017156111b9576111b9611169565b60405290565b604051601f82017fffffffffffffffffffffffffffffffffffffffffffffffffffffffffffffffe016810167ffffffffffffffff8111828210171561120657611206611169565b604052919050565b73ffffffffffffffffffffffffffffffffffffffff8116811461122f575f80fd5b50565b8035600281900b8114611243575f80fd5b919050565b5f60a08284031215611258575f80fd5b60405160a0810167ffffffffffffffff8111828210171561127b5761127b611169565b604052905080823561128c8161120e565b8152602083013561129c8161120e565b6020820152604083013562ffffff811681146112b6575f80fd5b60408201526112c760608401611232565b606082015260808301356112da8161120e565b6080919091015292915050565b5f608082840312156112f7575f80fd5b6040516080810167ffffffffffffffff8111828210171561131a5761131a611169565b60405290508061132983611232565b815261133760208401611232565b602082015260408301356040820152606083013560608201525092915050565b5f67ffffffffffffffff82111561137057611370611169565b50601f017fffffffffffffffffffffffffffffffffffffffffffffffffffffffffffffffe01660200190565b5f82601f8301126113ab575f80fd5b81356113be6113b982611357565b6111bf565b8181528460208386010111156113d2575f80fd5b816020850160208301375f918101602001919091529392505050565b801515811461122f575f80fd5b8035611243816113ee565b5f805f805f610180868803121561141b575f80fd5b6114258787611248565b94506114348760a088016112e7565b935061012086013567ffffffffffffffff811115611450575f80fd5b61145c8882890161139c565b93505061014086013561146e816113ee565b915061016086013561147f816113ee565b809150509295509295909350565b5f805f61014084860312156114a0575f80fd5b6114aa8585611248565b92506114b98560a086016112e7565b915061012084013567ffffffffffffffff8111156114d5575f80fd5b6114e18682870161139c565b9150509250925092565b5f80602083850312156114fc575f80fd5b823567ffffffffffffffff811115611512575f80fd5b8301601f81018513611522575f80fd5b803567ffffffffffffffff811115611538575f80fd5b856020828401011115611549575f80fd5b6020919091019590945092505050565b5f81518084528060208401602086015e5f6020828601015260207fffffffffffffffffffffffffffffffffffffffffffffffffffffffffffffffe0601f83011685010191505092915050565b602081525f6115b76020830184611559565b9392505050565b6020815273ffffffffffffffffffffffffffffffffffffffff82511660208201525f6020830151611667604084018273ffffffffffffffffffffffffffffffffffffffff815116825273ffffffffffffffffffffffffffffffffffffffff602082015116602083015262ffffff6040820151166040830152606081015160020b606083015273ffffffffffffffffffffffffffffffffffffffff60808201511660808301525050565b506040838101518051600290810b60e08601526020820151900b610100850152908101516101208401526060908101516101408401528301516101a06101608401526116b76101c0840182611559565b90506080840151151561018084015260a084015115156101a08401528091505092915050565b5f602082840312156116ed575f80fd5b815167ffffffffffffffff811115611703575f80fd5b8201601f81018413611713575f80fd5b80516117216113b982611357565b818152856020838501011115611735575f80fd5b8160208401602083015e5f91810160200191909152949350505050565b5f60208284031215611762575f80fd5b5051919050565b5f60208284031215611779575f80fd5b813567ffffffffffffffff81111561178f575f80fd5b82016101a081850312156117a1575f80fd5b6117a9611196565b81356117b48161120e565b81526117c38560208401611248565b60208201526117d58560c084016112e7565b604082015261014082013567ffffffffffffffff8111156117f4575f80fd5b6118008682850161139c565b60608301525061181361016083016113fb565b608082015261182561018083016113fb565b60a0820152949350505050565b6118b1818573ffffffffffffffffffffffffffffffffffffffff815116825273ffffffffffffffffffffffffffffffffffffffff602082015116602083015262ffffff6040820151166040830152606081015160020b606083015273ffffffffffffffffffffffffffffffffffffffff60808201511660808301525050565b8251600290810b60a08301526020840151900b60c0820152604083015160e082015260608301516101008201526101406101208201525f6110d4610140830184611559565b5f8060408385031215611907575f80fd5b505080516020909101519092909150565b7f4e487b71000000000000000000000000000000000000000000000000000000005f52601160045260245ffd5b8082018281125f83128015821682158216171561196457611964611918565b505092915050565b7f4e487b71000000000000000000000000000000000000000000000000000000005f52600160045260245ffd5b5f7f800000000000000000000000000000000000000000000000000000000000000082036119c9576119c9611918565b505f0390565b5f602082840312156119df575f80fd5b81516115b7816113ee565b5f602082840312156119fa575f80fd5b815167ffffffffffffffff811115611a10575f80fd5b8201601f81018413611a20575f80fd5b805167ffffffffffffffff811115611a3a57611a3a611169565b8060051b611a4a602082016111bf565b91825260208184018101929081019087841115611a65575f80fd5b6020850194505b83851015611a8b57845180835260209586019590935090910190611a6c565b979650505050505050565b808201808211156107235761072361191856fea2646970667358221220f436777abcca90918bbd59e51f0adc26fc5baa1220918e1a02e067bd3ac3d68a64736f6c634300081a0033","linkReferences":{}},"methodIdentifiers":{"manager()":"481c6a75","modifyLiquidity((address,address,uint24,int24,address),(int24,int24,int256,bytes32),bytes)":"5a6bcfda","modifyLiquidity((address,address,uint24,int24,address),(int24,int24,int256,bytes32),bytes,bool,bool)":"0a5b11e4","unlockCallback(bytes)":"91dd7346"},"id":72}