{"abi":[{"type":"receive","stateMutability":"payable"},{"type":"function","name":"LIQUIDITY_PARAMS","inputs":[],"outputs":[{"name":"tickLower","type":"int24","internalType":"int24"},{"name":"tickUpper","type":"int24","internalType":"int24"},{"name":"liquidityDelta","type":"int256","internalType":"int256"},{"name":"salt","type":"bytes32","internalType":"bytes32"}],"stateMutability":"view"},{"type":"function","name":"MAX_PRICE_LIMIT","inputs":[],"outputs":[{"name":"","type":"uint160","internalType":"uint160"}],"stateMutability":"view"},{"type":"function","name":"MIN_PRICE_LIMIT","inputs":[],"outputs":[{"name":"","type":"uint160","internalType":"uint160"}],"stateMutability":"view"},{"type":"function","name":"REMOVE_LIQUIDITY_PARAMS","inputs":[],"outputs":[{"name":"tickLower","type":"int24","internalType":"int24"},{"name":"tickUpper","type":"int24","internalType":"int24"},{"name":"liquidityDelta","type":"int256","internalType":"int256"},{"name":"salt","type":"bytes32","internalType":"bytes32"}],"stateMutability":"view"},{"type":"function","name":"SWAP_PARAMS","inputs":[],"outputs":[{"name":"zeroForOne","type":"bool","internalType":"bool"},{"name":"amountSpecified","type":"int256","internalType":"int256"},{"name":"sqrtPriceLimitX96","type":"uint160","internalType":"uint160"}],"stateMutability":"view"}],"bytecode":{"object":"0x6077196080819052607860a0819052670de0b6b3a764000060c08190525f60e081905280546378ffff8865ffffffffffff1991821681178355600193845560028390556101009590955261012093909352670de0b6b3a763ffff19610140819052610160829052600380549094169094179092556004929092556005556101e06040526101808190526063196101a08190526bb504f333f9de6484597d89b36101c08190526006805460ff1916909317909255600755600880546001600160a01b03199081169092179055602780548216600e17905560288054614000600160a01b0392169190911790553480156100f5575f80fd5b50610297806101035f395ff3fe60806040526004361061005b575f3560e01c806393ad73ed1161004157806393ad73ed146100f9578063b1a73b8a14610126578063c7b8e15d14610190575f80fd5b806339cd201314610066578063542524dd146100c0575f80fd5b3661006257005b5f80fd5b348015610071575f80fd5b5060035460045460055461009392600281810b936301000000909204900b9184565b60408051600295860b81529390940b60208401529282015260608101919091526080015b60405180910390f35b3480156100cb575f80fd5b506100d46101a4565b60405173ffffffffffffffffffffffffffffffffffffffff90911681526020016100b7565b348015610104575f80fd5b505f54600154600280546100939380830b93630100000090910490920b919084565b348015610131575f80fd5b5060065460075460085461015d9260ff16919073ffffffffffffffffffffffffffffffffffffffff1683565b604080519315158452602084019290925273ffffffffffffffffffffffffffffffffffffffff16908201526060016100b7565b34801561019b575f80fd5b506100d46101c6565b6101c3600173fffd8963efd1fc6a506488495d951d5263988d26610203565b81565b6101c36401000276a36001610235565b7f4e487b71000000000000000000000000000000000000000000000000000000005f52601160045260245ffd5b73ffffffffffffffffffffffffffffffffffffffff828116828216039081111561022f5761022f6101d6565b92915050565b73ffffffffffffffffffffffffffffffffffffffff818116838216019081111561022f5761022f6101d656fea26469706673582212206e2642790e3cf9577a4d624520592d5df1e618341c79fa09a55afacdc28534c564736f6c634300081a0033","linkReferences":{}},"methodIdentifiers":{"LIQUIDITY_PARAMS()":"93ad73ed","MAX_PRICE_LIMIT()":"542524dd","MIN_PRICE_LIMIT()":"c7b8e15d","REMOVE_LIQUIDITY_PARAMS()":"39cd2013","SWAP_PARAMS()":"b1a73b8a"},"id":90}