{"abi":[{"type":"constructor","inputs":[{"name":"amountToMint","type":"uint256","internalType":"uint256"}],"stateMutability":"nonpayable"},{"type":"function","name":"allowance","inputs":[{"name":"","type":"address","internalType":"address"},{"name":"","type":"address","internalType":"address"}],"outputs":[{"name":"","type":"uint256","internalType":"uint256"}],"stateMutability":"view"},{"type":"function","name":"approve","inputs":[{"name":"spender","type":"address","internalType":"address"},{"name":"amount","type":"uint256","internalType":"uint256"}],"outputs":[{"name":"","type":"bool","internalType":"bool"}],"stateMutability":"nonpayable"},{"type":"function","name":"balanceOf","inputs":[{"name":"","type":"address","internalType":"address"}],"outputs":[{"name":"","type":"uint256","internalType":"uint256"}],"stateMutability":"view"},{"type":"function","name":"mint","inputs":[{"name":"to","type":"address","internalType":"address"},{"name":"amount","type":"uint256","internalType":"uint256"}],"outputs":[],"stateMutability":"nonpayable"},{"type":"function","name":"transfer","inputs":[{"name":"recipient","type":"address","internalType":"address"},{"name":"amount","type":"uint256","internalType":"uint256"}],"outputs":[{"name":"","type":"bool","internalType":"bool"}],"stateMutability":"nonpayable"},{"type":"function","name":"transferFrom","inputs":[{"name":"sender","type":"address","internalType":"address"},{"name":"recipient","type":"address","internalType":"address"},{"name":"amount","type":"uint256","internalType":"uint256"}],"outputs":[{"name":"","type":"bool","internalType":"bool"}],"stateMutability":"nonpayable"},{"type":"event","name":"Approval","inputs":[{"name":"owner","type":"address","indexed":true,"internalType":"address"},{"name":"spender","type":"address","indexed":true,"internalType":"address"},{"name":"value","type":"uint256","indexed":false,"internalType":"uint256"}],"anonymous":false},{"type":"event","name":"Transfer","inputs":[{"name":"from","type":"address","indexed":true,"internalType":"address"},{"name":"to","type":"address","indexed":true,"internalType":"address"},{"name":"value","type":"uint256","indexed":false,"internalType":"uint256"}],"anonymous":false}],"bytecode":{"object":"0x608060405234801561000f575f80fd5b506040516108f13803806108f183398101604081905261002e916100c9565b610038338261003e565b50610105565b6001600160a01b0382165f908152602081905260408120546100619083906100e0565b9050818110156100aa5760405162461bcd60e51b815260206004820152601060248201526f6f766572666c6f772062616c616e636560801b604482015260640160405180910390fd5b6001600160a01b039092165f9081526020819052604090209190915550565b5f602082840312156100d9575f80fd5b5051919050565b808201808211156100ff57634e487b7160e01b5f52601160045260245ffd5b92915050565b6107df806101125f395ff3fe608060405234801561000f575f80fd5b506004361061006f575f3560e01c806370a082311161004d57806370a08231146100c3578063a9059cbb146100f0578063dd62ed3e14610103575f80fd5b8063095ea7b31461007357806323b872dd1461009b57806340c10f19146100ae575b5f80fd5b6100866100813660046106a3565b61012d565b60405190151581526020015b60405180910390f35b6100866100a93660046106cb565b6101a6565b6100c16100bc3660046106a3565b61041d565b005b6100e26100d1366004610705565b5f6020819052908152604090205481565b604051908152602001610092565b6100866100fe3660046106a3565b6104e5565b6100e2610111366004610725565b600160209081525f928352604080842090915290825290205481565b335f81815260016020908152604080832073ffffffffffffffffffffffffffffffffffffffff8716808552925280832085905551919290917f8c5be1e5ebec7d5bd14f71427d1e84f3dd0314c0f7b2291e5b200ac8c7c3b925906101949086815260200190565b60405180910390a35060015b92915050565b73ffffffffffffffffffffffffffffffffffffffff83165f90815260016020908152604080832033845290915281205482811015610245576040517f08c379a000000000000000000000000000000000000000000000000000000000815260206004820152601660248201527f616c6c6f77616e636520696e73756666696369656e740000000000000000000060448201526064015b60405180910390fd5b61024f8382610783565b73ffffffffffffffffffffffffffffffffffffffff8087165f9081526001602090815260408083203384528252808320949094559187168152908190522054806102998582610796565b1015610301576040517f08c379a000000000000000000000000000000000000000000000000000000000815260206004820152601a60248201527f6f766572666c6f772062616c616e636520726563697069656e74000000000000604482015260640161023c565b61030b8482610796565b73ffffffffffffffffffffffffffffffffffffffff8087165f908152602081905260408082209390935590881681522054848110156103a6576040517f08c379a000000000000000000000000000000000000000000000000000000000815260206004820152601860248201527f756e646572666c6f772062616c616e63652073656e6465720000000000000000604482015260640161023c565b6103b08582610783565b73ffffffffffffffffffffffffffffffffffffffff8881165f818152602081815260409182902094909455518881529189169290917fddf252ad1be2c89b69c2b068fc378daa952ba7f163c4a11628f55a4df523b3ef910160405180910390a35060019695505050505050565b73ffffffffffffffffffffffffffffffffffffffff82165f9081526020819052604081205461044d908390610796565b9050818110156104b9576040517f08c379a000000000000000000000000000000000000000000000000000000000815260206004820152601060248201527f6f766572666c6f772062616c616e636500000000000000000000000000000000604482015260640161023c565b73ffffffffffffffffffffffffffffffffffffffff9092165f9081526020819052604090209190915550565b335f908152602081905260408120548281101561055e576040517f08c379a000000000000000000000000000000000000000000000000000000000815260206004820152601460248201527f696e73756666696369656e742062616c616e6365000000000000000000000000604482015260640161023c565b6105688382610783565b335f908152602081905260408082209290925573ffffffffffffffffffffffffffffffffffffffff861681522054806105a18582610796565b1015610609576040517f08c379a000000000000000000000000000000000000000000000000000000000815260206004820152601a60248201527f726563697069656e742062616c616e6365206f766572666c6f77000000000000604482015260640161023c565b6106138482610796565b73ffffffffffffffffffffffffffffffffffffffff86165f81815260208181526040918290209390935551868152909133917fddf252ad1be2c89b69c2b068fc378daa952ba7f163c4a11628f55a4df523b3ef910160405180910390a3506001949350505050565b803573ffffffffffffffffffffffffffffffffffffffff8116811461069e575f80fd5b919050565b5f80604083850312156106b4575f80fd5b6106bd8361067b565b946020939093013593505050565b5f805f606084860312156106dd575f80fd5b6106e68461067b565b92506106f46020850161067b565b929592945050506040919091013590565b5f60208284031215610715575f80fd5b61071e8261067b565b9392505050565b5f8060408385031215610736575f80fd5b61073f8361067b565b915061074d6020840161067b565b90509250929050565b7f4e487b71000000000000000000000000000000000000000000000000000000005f52601160045260245ffd5b818103818111156101a0576101a0610756565b808201808211156101a0576101a061075656fea26469706673582212203d362783210ec9777d151037d902ef3903986a9941aec7b37f711e0351a06fd864736f6c634300081a0033","linkReferences":{}},"methodIdentifiers":{"allowance(address,address)":"dd62ed3e","approve(address,uint256)":"095ea7b3","balanceOf(address)":"70a08231","mint(address,uint256)":"40c10f19","transfer(address,uint256)":"a9059cbb","transferFrom(address,address,uint256)":"23b872dd"},"id":81}