{"abi":[{"type":"constructor","inputs":[{"name":"_manager","type":"address","internalType":"contract IPoolManager"}],"stateMutability":"nonpayable"},{"type":"function","name":"manager","inputs":[],"outputs":[{"name":"","type":"address","internalType":"contract IPoolManager"}],"stateMutability":"view"},{"type":"function","name":"modifyLiquidity","inputs":[{"name":"key","type":"tuple","internalType":"struct PoolKey","components":[{"name":"currency0","type":"address","internalType":"Currency"},{"name":"currency1","type":"address","internalType":"Currency"},{"name":"fee","type":"uint24","internalType":"uint24"},{"name":"tickSpacing","type":"int24","internalType":"int24"},{"name":"hooks","type":"address","internalType":"contract IHooks"}]},{"name":"params","type":"tuple","internalType":"struct IPoolManager.ModifyLiquidityParams","components":[{"name":"tickLower","type":"int24","internalType":"int24"},{"name":"tickUpper","type":"int24","internalType":"int24"},{"name":"liquidityDelta","type":"int256","internalType":"int256"},{"name":"salt","type":"bytes32","internalType":"bytes32"}]},{"name":"hookData","type":"bytes","internalType":"bytes"},{"name":"settleUsingBurn","type":"bool","internalType":"bool"},{"name":"takeClaims","type":"bool","internalType":"bool"}],"outputs":[{"name":"delta","type":"int256","internalType":"BalanceDelta"}],"stateMutability":"payable"},{"type":"function","name":"modifyLiquidity","inputs":[{"name":"key","type":"tuple","internalType":"struct PoolKey","components":[{"name":"currency0","type":"address","internalType":"Currency"},{"name":"currency1","type":"address","internalType":"Currency"},{"name":"fee","type":"uint24","internalType":"uint24"},{"name":"tickSpacing","type":"int24","internalType":"int24"},{"name":"hooks","type":"address","internalType":"contract IHooks"}]},{"name":"params","type":"tuple","internalType":"struct IPoolManager.ModifyLiquidityParams","components":[{"name":"tickLower","type":"int24","internalType":"int24"},{"name":"tickUpper","type":"int24","internalType":"int24"},{"name":"liquidityDelta","type":"int256","internalType":"int256"},{"name":"salt","type":"bytes32","internalType":"bytes32"}]},{"name":"hookData","type":"bytes","internalType":"bytes"}],"outputs":[{"name":"delta","type":"int256","internalType":"BalanceDelta"}],"stateMutability":"payable"},{"type":"function","name":"unlockCallback","inputs":[{"name":"rawData","type":"bytes","internalType":"bytes"}],"outputs":[{"name":"","type":"bytes","internalType":"bytes"}],"stateMutability":"nonpayable"}],"bytecode":{"object":"0x60a0604052348015600e575f80fd5b50604051611474380380611474833981016040819052602b91603b565b6001600160a01b03166080526066565b5f60208284031215604a575f80fd5b81516001600160a01b0381168114605f575f80fd5b9392505050565b6080516113c66100ae5f395f81816079015281816101020152818161027f015281816102ba01528181610393015281816103f60152818161047f01526104dd01526113c65ff3fe60806040526004361061003e575f3560e01c80630a5b11e414610042578063481c6a75146100685780635a6bcfda146100c057806391dd7346146100d3575b5f80fd5b610055610050366004610dff565b6100ff565b6040519081526020015b60405180910390f35b348015610073575f80fd5b5061009b7f000000000000000000000000000000000000000000000000000000000000000081565b60405173ffffffffffffffffffffffffffffffffffffffff909116815260200161005f565b6100556100ce366004610e86565b61024f565b3480156100de575f80fd5b506100f26100ed366004610ee4565b610265565b60405161005f9190610f9e565b5f7f000000000000000000000000000000000000000000000000000000000000000073ffffffffffffffffffffffffffffffffffffffff166348c894916040518060c001604052803373ffffffffffffffffffffffffffffffffffffffff16815260200189815260200188815260200187815260200186151581526020018515158152506040516020016101939190610fb7565b6040516020818303038152906040526040518263ffffffff1660e01b81526004016101be9190610f9e565b5f604051808303815f875af11580156101d9573d5f803e3d5ffd5b505050506040513d5f823e601f3d9081017fffffffffffffffffffffffffffffffffffffffffffffffffffffffffffffffe016820160405261021e91908101906110d6565b806020019051810190610231919061114b565b9050478015610245576102455f338361052c565b5095945050505050565b5f61025d8484845f806100ff565b949350505050565b60603373ffffffffffffffffffffffffffffffffffffffff7f000000000000000000000000000000000000000000000000000000000000000016146102a8575f80fd5b5f6102b583850185611162565b90505f7f000000000000000000000000000000000000000000000000000000000000000073ffffffffffffffffffffffffffffffffffffffff16635a6bcfda8360200151846040015185606001516040518463ffffffff1660e01b81526004016103219392919061122b565b60408051808303815f875af115801561033c573d5f803e3d5ffd5b505050506040513d601f19601f8201168201806040525081019061036091906112f8565b5090505f61036e8260801d90565b600f0b90505f61037e83600f0b90565b600f0b90505f8212156103e65783516103e6907f0000000000000000000000000000000000000000000000000000000000000000906103bc8561131a565b608088015160208901515173ffffffffffffffffffffffffffffffffffffffff169392919061062d565b5f81121561044b57835161044b907f00000000000000000000000000000000000000000000000000000000000000009061041f8461131a565b60808801516020808a0151015173ffffffffffffffffffffffffffffffffffffffff169392919061062d565b5f8213156104a757835160a08501516020860151516104a79273ffffffffffffffffffffffffffffffffffffffff909116917f0000000000000000000000000000000000000000000000000000000000000000919086906109eb565b5f81131561050557835160a085015160208087015101516105059273ffffffffffffffffffffffffffffffffffffffff909116917f0000000000000000000000000000000000000000000000000000000000000000919085906109eb565b60408051602081018590520160405160208183030381529060405294505050505092915050565b5f73ffffffffffffffffffffffffffffffffffffffff8416610586575f805f8085875af1905080610581576105817f8549db590000000000000000000000000000000000000000000000000000000084610b2f565b610627565b6040517fa9059cbb00000000000000000000000000000000000000000000000000000000815273ffffffffffffffffffffffffffffffffffffffff8416600482015282602482015260205f6044835f895af13d15601f3d1160015f511416171691505f81525f60208201525f60408201525080610627576106277fb12c5f9c0000000000000000000000000000000000000000000000000000000085610b2f565b50505050565b801561070e578373ffffffffffffffffffffffffffffffffffffffff1663f5298aca846106838873ffffffffffffffffffffffffffffffffffffffff1673ffffffffffffffffffffffffffffffffffffffff1690565b6040517fffffffff0000000000000000000000000000000000000000000000000000000060e085901b16815273ffffffffffffffffffffffffffffffffffffffff90921660048301526024820152604481018590526064015b5f604051808303815f87803b1580156106f3575f80fd5b505af1158015610705573d5f803e3d5ffd5b505050506109e4565b73ffffffffffffffffffffffffffffffffffffffff851661079f578373ffffffffffffffffffffffffffffffffffffffff166311da60b4836040518263ffffffff1660e01b815260040160206040518083038185885af1158015610774573d5f803e3d5ffd5b50505050506040513d601f19601f82011682018060405250810190610799919061114b565b506109e4565b6040517fa584119400000000000000000000000000000000000000000000000000000000815273ffffffffffffffffffffffffffffffffffffffff868116600483015285169063a5841194906024015f604051808303815f87803b158015610805575f80fd5b505af1158015610817573d5f803e3d5ffd5b5050505073ffffffffffffffffffffffffffffffffffffffff831630146108dc576040517f23b872dd00000000000000000000000000000000000000000000000000000000815273ffffffffffffffffffffffffffffffffffffffff84811660048301528581166024830152604482018490528616906323b872dd906064016020604051808303815f875af11580156108b2573d5f803e3d5ffd5b505050506040513d601f19601f820116820180604052508101906108d69190611375565b50610974565b6040517fa9059cbb00000000000000000000000000000000000000000000000000000000815273ffffffffffffffffffffffffffffffffffffffff85811660048301526024820184905286169063a9059cbb906044016020604051808303815f875af115801561094e573d5f803e3d5ffd5b505050506040513d601f19601f820116820180604052508101906109729190611375565b505b8373ffffffffffffffffffffffffffffffffffffffff166311da60b46040518163ffffffff1660e01b81526004016020604051808303815f875af11580156109be573d5f803e3d5ffd5b505050506040513d601f19601f820116820180604052508101906109e2919061114b565b505b5050505050565b80610a53576040517f0b0d9c0900000000000000000000000000000000000000000000000000000000815273ffffffffffffffffffffffffffffffffffffffff8681166004830152848116602483015260448201849052851690630b0d9c09906064016106dc565b8373ffffffffffffffffffffffffffffffffffffffff1663156e29f684610aa38873ffffffffffffffffffffffffffffffffffffffff1673ffffffffffffffffffffffffffffffffffffffff1690565b6040517fffffffff0000000000000000000000000000000000000000000000000000000060e085901b16815273ffffffffffffffffffffffffffffffffffffffff90921660048301526024820152604481018590526064015f604051808303815f87803b158015610b12575f80fd5b505af1158015610b24573d5f803e3d5ffd5b505050505050505050565b3d60405183815282600482015260406024820152816044820152815f606483013e602080601f8401040260640191508181fd5b7f4e487b71000000000000000000000000000000000000000000000000000000005f52604160045260245ffd5b60405160c0810167ffffffffffffffff81118282101715610bb257610bb2610b62565b60405290565b604051601f82017fffffffffffffffffffffffffffffffffffffffffffffffffffffffffffffffe016810167ffffffffffffffff81118282101715610bff57610bff610b62565b604052919050565b73ffffffffffffffffffffffffffffffffffffffff81168114610c28575f80fd5b50565b8035600281900b8114610c3c575f80fd5b919050565b5f60a08284031215610c51575f80fd5b60405160a0810167ffffffffffffffff81118282101715610c7457610c74610b62565b6040529050808235610c8581610c07565b81526020830135610c9581610c07565b6020820152604083013562ffffff81168114610caf575f80fd5b6040820152610cc060608401610c2b565b60608201526080830135610cd381610c07565b6080919091015292915050565b5f60808284031215610cf0575f80fd5b6040516080810167ffffffffffffffff81118282101715610d1357610d13610b62565b604052905080610d2283610c2b565b8152610d3060208401610c2b565b602082015260408301356040820152606083013560608201525092915050565b5f67ffffffffffffffff821115610d6957610d69610b62565b50601f017fffffffffffffffffffffffffffffffffffffffffffffffffffffffffffffffe01660200190565b5f82601f830112610da4575f80fd5b8135610db7610db282610d50565b610bb8565b818152846020838601011115610dcb575f80fd5b816020850160208301375f918101602001919091529392505050565b8015158114610c28575f80fd5b8035610c3c81610de7565b5f805f805f6101808688031215610e14575f80fd5b610e1e8787610c41565b9450610e2d8760a08801610ce0565b935061012086013567ffffffffffffffff811115610e49575f80fd5b610e5588828901610d95565b935050610140860135610e6781610de7565b9150610160860135610e7881610de7565b809150509295509295909350565b5f805f6101408486031215610e99575f80fd5b610ea38585610c41565b9250610eb28560a08601610ce0565b915061012084013567ffffffffffffffff811115610ece575f80fd5b610eda86828701610d95565b9150509250925092565b5f8060208385031215610ef5575f80fd5b823567ffffffffffffffff811115610f0b575f80fd5b8301601f81018513610f1b575f80fd5b803567ffffffffffffffff811115610f31575f80fd5b856020828401011115610f42575f80fd5b6020919091019590945092505050565b5f81518084528060208401602086015e5f6020828601015260207fffffffffffffffffffffffffffffffffffffffffffffffffffffffffffffffe0601f83011685010191505092915050565b602081525f610fb06020830184610f52565b9392505050565b6020815273ffffffffffffffffffffffffffffffffffffffff82511660208201525f6020830151611060604084018273ffffffffffffffffffffffffffffffffffffffff815116825273ffffffffffffffffffffffffffffffffffffffff602082015116602083015262ffffff6040820151166040830152606081015160020b606083015273ffffffffffffffffffffffffffffffffffffffff60808201511660808301525050565b506040838101518051600290810b60e08601526020820151900b610100850152908101516101208401526060908101516101408401528301516101a06101608401526110b06101c0840182610f52565b90506080840151151561018084015260a084015115156101a08401528091505092915050565b5f602082840312156110e6575f80fd5b815167ffffffffffffffff8111156110fc575f80fd5b8201601f8101841361110c575f80fd5b805161111a610db282610d50565b81815285602083850101111561112e575f80fd5b8160208401602083015e5f91810160200191909152949350505050565b5f6020828403121561115b575f80fd5b5051919050565b5f60208284031215611172575f80fd5b813567ffffffffffffffff811115611188575f80fd5b82016101a0818503121561119a575f80fd5b6111a2610b8f565b81356111ad81610c07565b81526111bc8560208401610c41565b60208201526111ce8560c08401610ce0565b604082015261014082013567ffffffffffffffff8111156111ed575f80fd5b6111f986828501610d95565b60608301525061120c6101608301610df4565b608082015261121e6101808301610df4565b60a0820152949350505050565b6112aa818573ffffffffffffffffffffffffffffffffffffffff815116825273ffffffffffffffffffffffffffffffffffffffff602082015116602083015262ffffff6040820151166040830152606081015160020b606083015273ffffffffffffffffffffffffffffffffffffffff60808201511660808301525050565b8251600290810b60a08301526020840151900b60c0820152604083015160e082015260608301516101008201526101406101208201525f6112ef610140830184610f52565b95945050505050565b5f8060408385031215611309575f80fd5b505080516020909101519092909150565b5f7f8000000000000000000000000000000000000000000000000000000000000000820361136f577f4e487b71000000000000000000000000000000000000000000000000000000005f52601160045260245ffd5b505f0390565b5f60208284031215611385575f80fd5b8151610fb081610de756fea26469706673582212204502db409dbc86c276a9cea076145838aad05125982d27d6c9d07a01ef5b731b64736f6c634300081a0033","linkReferences":{}},"methodIdentifiers":{"manager()":"481c6a75","modifyLiquidity((address,address,uint24,int24,address),(int24,int24,int256,bytes32),bytes)":"5a6bcfda","modifyLiquidity((address,address,uint24,int24,address),(int24,int24,int256,bytes32),bytes,bool,bool)":"0a5b11e4","unlockCallback(bytes)":"91dd7346"},"id":74}