{"abi":[{"type":"constructor","inputs":[{"name":"_manager","type":"address","internalType":"contract IPoolManager"}],"stateMutability":"nonpayable"},{"type":"function","name":"manager","inputs":[],"outputs":[{"name":"","type":"address","internalType":"contract IPoolManager"}],"stateMutability":"view"},{"type":"function","name":"swap","inputs":[{"name":"key","type":"tuple","internalType":"struct PoolKey","components":[{"name":"currency0","type":"address","internalType":"Currency"},{"name":"currency1","type":"address","internalType":"Currency"},{"name":"fee","type":"uint24","internalType":"uint24"},{"name":"tickSpacing","type":"int24","internalType":"int24"},{"name":"hooks","type":"address","internalType":"contract IHooks"}]},{"name":"params","type":"tuple","internalType":"struct IPoolManager.SwapParams","components":[{"name":"zeroForOne","type":"bool","internalType":"bool"},{"name":"amountSpecified","type":"int256","internalType":"int256"},{"name":"sqrtPriceLimitX96","type":"uint160","internalType":"uint160"}]},{"name":"testSettings","type":"tuple","internalType":"struct HookEnabledSwapRouter.TestSettings","components":[{"name":"takeClaims","type":"bool","internalType":"bool"},{"name":"settleUsingBurn","type":"bool","internalType":"bool"}]},{"name":"hookData","type":"bytes","internalType":"bytes"}],"outputs":[{"name":"delta","type":"int256","internalType":"BalanceDelta"}],"stateMutability":"payable"},{"type":"function","name":"unlockCallback","inputs":[{"name":"rawData","type":"bytes","internalType":"bytes"}],"outputs":[{"name":"","type":"bytes","internalType":"bytes"}],"stateMutability":"nonpayable"},{"type":"error","name":"NoSwapOccurred","inputs":[]}],"bytecode":{"object":"0x60a0604052348015600e575f80fd5b5060405161143e38038061143e833981016040819052602b91603b565b6001600160a01b03166080526066565b5f60208284031215604a575f80fd5b81516001600160a01b0381168114605f575f80fd5b9392505050565b6080516113916100ad5f395f8181606e0152818160e4015281816102400152818161027b0152818161036d015281816103ec0152818161045501526104e001526113915ff3fe608060405260043610610033575f3560e01c80632229d0b414610037578063481c6a751461005d57806391dd7346146100b5575b5f80fd5b61004a610045366004610e63565b6100e1565b6040519081526020015b60405180910390f35b348015610068575f80fd5b506100907f000000000000000000000000000000000000000000000000000000000000000081565b60405173ffffffffffffffffffffffffffffffffffffffff9091168152602001610054565b3480156100c0575f80fd5b506100d46100cf366004610ed4565b610226565b6040516100549190610f8e565b5f7f000000000000000000000000000000000000000000000000000000000000000073ffffffffffffffffffffffffffffffffffffffff166348c894916040518060a001604052803373ffffffffffffffffffffffffffffffffffffffff1681526020018681526020018881526020018781526020018581525060405160200161016b9190610fa7565b6040516020818303038152906040526040518263ffffffff1660e01b81526004016101969190610f8e565b5f604051808303815f875af11580156101b1573d5f803e3d5ffd5b505050506040513d5f823e601f3d9081017fffffffffffffffffffffffffffffffffffffffffffffffffffffffffffffffe01682016040526101f691908101906110c8565b806020019051810190610209919061113d565b905047801561021d5761021d5f3383610560565b50949350505050565b60603373ffffffffffffffffffffffffffffffffffffffff7f00000000000000000000000000000000000000000000000000000000000000001614610269575f80fd5b5f61027683850185611154565b90505f7f000000000000000000000000000000000000000000000000000000000000000073ffffffffffffffffffffffffffffffffffffffff1663f3cd914c8360400151846060015185608001516040518463ffffffff1660e01b81526004016102e29392919061120c565b6020604051808303815f875af11580156102fe573d5f803e3d5ffd5b505050506040513d601f19601f82011682018060405250810190610322919061113d565b9050805f0361035d576040517f5a8b05b000000000000000000000000000000000000000000000000000000000815260040160405180910390fd5b60608201515115610450576103d37f0000000000000000000000000000000000000000000000000000000000000000835f015161039a8460801d90565b6103a3906112df565b602080870151015160408701515173ffffffffffffffffffffffffffffffffffffffff16939291600f0b90610661565b5f6103de82600f0b90565b600f0b131561044b5761044b7f0000000000000000000000000000000000000000000000000000000000000000835f015161041984600f0b90565b6020808701515160408801519091015173ffffffffffffffffffffffffffffffffffffffff16939291600f0b90610a1f565b61053b565b6104c77f0000000000000000000000000000000000000000000000000000000000000000835f015161048284600f0b90565b61048b906112df565b600f0b85602001516020015186604001516020015173ffffffffffffffffffffffffffffffffffffffff1661066190949392919063ffffffff16565b5f6104d28260801d90565b600f0b131561053b5761053b7f0000000000000000000000000000000000000000000000000000000000000000835f015161050d8460801d90565b60208601515160408701515173ffffffffffffffffffffffffffffffffffffffff16939291600f0b90610a1f565b6040805160208101839052016040516020818303038152906040529250505092915050565b5f73ffffffffffffffffffffffffffffffffffffffff84166105ba575f805f8085875af19050806105b5576105b57f8549db590000000000000000000000000000000000000000000000000000000084610b63565b61065b565b6040517fa9059cbb00000000000000000000000000000000000000000000000000000000815273ffffffffffffffffffffffffffffffffffffffff8416600482015282602482015260205f6044835f895af13d15601f3d1160015f511416171691505f81525f60208201525f6040820152508061065b5761065b7fb12c5f9c0000000000000000000000000000000000000000000000000000000085610b63565b50505050565b8015610742578373ffffffffffffffffffffffffffffffffffffffff1663f5298aca846106b78873ffffffffffffffffffffffffffffffffffffffff1673ffffffffffffffffffffffffffffffffffffffff1690565b6040517fffffffff0000000000000000000000000000000000000000000000000000000060e085901b16815273ffffffffffffffffffffffffffffffffffffffff90921660048301526024820152604481018590526064015b5f604051808303815f87803b158015610727575f80fd5b505af1158015610739573d5f803e3d5ffd5b50505050610a18565b73ffffffffffffffffffffffffffffffffffffffff85166107d3578373ffffffffffffffffffffffffffffffffffffffff166311da60b4836040518263ffffffff1660e01b815260040160206040518083038185885af11580156107a8573d5f803e3d5ffd5b50505050506040513d601f19601f820116820180604052508101906107cd919061113d565b50610a18565b6040517fa584119400000000000000000000000000000000000000000000000000000000815273ffffffffffffffffffffffffffffffffffffffff868116600483015285169063a5841194906024015f604051808303815f87803b158015610839575f80fd5b505af115801561084b573d5f803e3d5ffd5b5050505073ffffffffffffffffffffffffffffffffffffffff83163014610910576040517f23b872dd00000000000000000000000000000000000000000000000000000000815273ffffffffffffffffffffffffffffffffffffffff84811660048301528581166024830152604482018490528616906323b872dd906064016020604051808303815f875af11580156108e6573d5f803e3d5ffd5b505050506040513d601f19601f8201168201806040525081019061090a9190611340565b506109a8565b6040517fa9059cbb00000000000000000000000000000000000000000000000000000000815273ffffffffffffffffffffffffffffffffffffffff85811660048301526024820184905286169063a9059cbb906044016020604051808303815f875af1158015610982573d5f803e3d5ffd5b505050506040513d601f19601f820116820180604052508101906109a69190611340565b505b8373ffffffffffffffffffffffffffffffffffffffff166311da60b46040518163ffffffff1660e01b81526004016020604051808303815f875af11580156109f2573d5f803e3d5ffd5b505050506040513d601f19601f82011682018060405250810190610a16919061113d565b505b5050505050565b80610a87576040517f0b0d9c0900000000000000000000000000000000000000000000000000000000815273ffffffffffffffffffffffffffffffffffffffff8681166004830152848116602483015260448201849052851690630b0d9c0990606401610710565b8373ffffffffffffffffffffffffffffffffffffffff1663156e29f684610ad78873ffffffffffffffffffffffffffffffffffffffff1673ffffffffffffffffffffffffffffffffffffffff1690565b6040517fffffffff0000000000000000000000000000000000000000000000000000000060e085901b16815273ffffffffffffffffffffffffffffffffffffffff90921660048301526024820152604481018590526064015f604051808303815f87803b158015610b46575f80fd5b505af1158015610b58573d5f803e3d5ffd5b505050505050505050565b3d60405183815282600482015260406024820152816044820152815f606483013e602080601f8401040260640191508181fd5b7f4e487b71000000000000000000000000000000000000000000000000000000005f52604160045260245ffd5b60405160a0810167ffffffffffffffff81118282101715610be657610be6610b96565b60405290565b604051601f82017fffffffffffffffffffffffffffffffffffffffffffffffffffffffffffffffe016810167ffffffffffffffff81118282101715610c3357610c33610b96565b604052919050565b73ffffffffffffffffffffffffffffffffffffffff81168114610c5c575f80fd5b50565b8035610c6a81610c3b565b919050565b5f60a08284031215610c7f575f80fd5b610c87610bc3565b90508135610c9481610c3b565b81526020820135610ca481610c3b565b6020820152604082013562ffffff81168114610cbe575f80fd5b60408201526060820135600281900b8114610cd7575f80fd5b6060820152610ce860808301610c5f565b608082015292915050565b8015158114610c5c575f80fd5b5f60608284031215610d10575f80fd5b6040516060810167ffffffffffffffff81118282101715610d3357610d33610b96565b6040529050808235610d4481610cf3565b8152602083810135908201526040830135610d5e81610c3b565b6040919091015292915050565b5f60408284031215610d7b575f80fd5b6040805190810167ffffffffffffffff81118282101715610d9e57610d9e610b96565b6040529050808235610daf81610cf3565b81526020830135610dbf81610cf3565b6020919091015292915050565b5f67ffffffffffffffff821115610de557610de5610b96565b50601f017fffffffffffffffffffffffffffffffffffffffffffffffffffffffffffffffe01660200190565b5f82601f830112610e20575f80fd5b8135610e33610e2e82610dcc565b610bec565b818152846020838601011115610e47575f80fd5b816020850160208301375f918101602001919091529392505050565b5f805f806101608587031215610e77575f80fd5b610e818686610c6f565b9350610e908660a08701610d00565b9250610ea0866101008701610d6b565b915061014085013567ffffffffffffffff811115610ebc575f80fd5b610ec887828801610e11565b91505092959194509250565b5f8060208385031215610ee5575f80fd5b823567ffffffffffffffff811115610efb575f80fd5b8301601f81018513610f0b575f80fd5b803567ffffffffffffffff811115610f21575f80fd5b856020828401011115610f32575f80fd5b6020919091019590945092505050565b5f81518084528060208401602086015e5f6020828601015260207fffffffffffffffffffffffffffffffffffffffffffffffffffffffffffffffe0601f83011685010191505092915050565b602081525f610fa06020830184610f42565b9392505050565b6020815273ffffffffffffffffffffffffffffffffffffffff82511660208201525f602083015180511515604084015260208101511515606084015250604083015161106b608084018273ffffffffffffffffffffffffffffffffffffffff815116825273ffffffffffffffffffffffffffffffffffffffff602082015116602083015262ffffff6040820151166040830152606081015160020b606083015273ffffffffffffffffffffffffffffffffffffffff60808201511660808301525050565b5060608301518051151561012084015260208101516101408401526040015173ffffffffffffffffffffffffffffffffffffffff166101608301526080830151610180808401526110c06101a0840182610f42565b949350505050565b5f602082840312156110d8575f80fd5b815167ffffffffffffffff8111156110ee575f80fd5b8201601f810184136110fe575f80fd5b805161110c610e2e82610dcc565b818152856020838501011115611120575f80fd5b8160208401602083015e5f91810160200191909152949350505050565b5f6020828403121561114d575f80fd5b5051919050565b5f60208284031215611164575f80fd5b813567ffffffffffffffff81111561117a575f80fd5b8201610180818503121561118c575f80fd5b611194610bc3565b813561119f81610c3b565b81526111ae8560208401610d6b565b60208201526111c08560608401610c6f565b60408201526111d3856101008401610d00565b606082015261016082013567ffffffffffffffff8111156111f2575f80fd5b6111fe86828501610e11565b608083015250949350505050565b61128b818573ffffffffffffffffffffffffffffffffffffffff815116825273ffffffffffffffffffffffffffffffffffffffff602082015116602083015262ffffff6040820151166040830152606081015160020b606083015273ffffffffffffffffffffffffffffffffffffffff60808201511660808301525050565b8251151560a0820152602083015160c0820152604083015173ffffffffffffffffffffffffffffffffffffffff1660e08201526101206101008201525f6112d6610120830184610f42565b95945050505050565b5f81600f0b7fffffffffffffffffffffffffffffffff800000000000000000000000000000008103611338577f4e487b71000000000000000000000000000000000000000000000000000000005f52601160045260245ffd5b5f0392915050565b5f60208284031215611350575f80fd5b8151610fa081610cf356fea264697066735822122035435aeb2d732c6a32dfcabcecc65d48f38b53fa107572cfb7a2175498f2645664736f6c634300081a0033","linkReferences":{}},"methodIdentifiers":{"manager()":"481c6a75","swap((address,address,uint24,int24,address),(bool,int256,uint160),(bool,bool),bytes)":"2229d0b4","unlockCallback(bytes)":"91dd7346"},"id":99}