{"abi":[{"type":"constructor","inputs":[{"name":"_manager","type":"address","internalType":"contract IPoolManager"}],"stateMutability":"nonpayable"},{"type":"function","name":"deposit","inputs":[{"name":"currency","type":"address","internalType":"Currency"},{"name":"user","type":"address","internalType":"address"},{"name":"amount","type":"uint256","internalType":"uint256"}],"outputs":[],"stateMutability":"payable"},{"type":"function","name":"manager","inputs":[],"outputs":[{"name":"","type":"address","internalType":"contract IPoolManager"}],"stateMutability":"view"},{"type":"function","name":"unlockCallback","inputs":[{"name":"rawData","type":"bytes","internalType":"bytes"}],"outputs":[{"name":"","type":"bytes","internalType":"bytes"}],"stateMutability":"nonpayable"},{"type":"function","name":"withdraw","inputs":[{"name":"currency","type":"address","internalType":"Currency"},{"name":"user","type":"address","internalType":"address"},{"name":"amount","type":"uint256","internalType":"uint256"}],"outputs":[],"stateMutability":"payable"}],"bytecode":{"object":"0x60a0604052348015600e575f80fd5b50604051610dcd380380610dcd833981016040819052602b91603b565b6001600160a01b03166080526066565b5f60208284031215604a575f80fd5b81516001600160a01b0381168114605f575f80fd5b9392505050565b608051610d1f6100ae5f395f818160530152818161016c0152818161024201528181610289015281816102e501528181610345015281816103a101526104920152610d1f5ff3fe60806040526004361061003e575f3560e01c8063481c6a75146100425780638340f5491461009f57806391dd7346146100b4578063d9caed12146100e0575b5f80fd5b34801561004d575f80fd5b506100757f000000000000000000000000000000000000000000000000000000000000000081565b60405173ffffffffffffffffffffffffffffffffffffffff90911681526020015b60405180910390f35b6100b26100ad3660046109e7565b6100f3565b005b3480156100bf575f80fd5b506100d36100ce366004610a25565b610228565b6040516100969190610a93565b6100b26100ee3660046109e7565b61041a565b6040805160a080820183523380835273ffffffffffffffffffffffffffffffffffffffff868116602080860191825289831686880190815260608088018a815260016080998a019081528a51948501979097529351851698830198909852518316968101969096525193850193909352511515908301527f000000000000000000000000000000000000000000000000000000000000000016906348c894919060c0015b6040516020818303038152906040526040518263ffffffff1660e01b81526004016101c29190610a93565b5f604051808303815f875af11580156101dd573d5f803e3d5ffd5b505050506040513d5f823e601f3d9081017fffffffffffffffffffffffffffffffffffffffffffffffffffffffffffffffe01682016040526102229190810190610b62565b50505050565b60603373ffffffffffffffffffffffffffffffffffffffff7f0000000000000000000000000000000000000000000000000000000000000000161461026b575f80fd5b5f61027883850185610c21565b9050806080015115610340576102e07f0000000000000000000000000000000000000000000000000000000000000000826020015183606001516001856040015173ffffffffffffffffffffffffffffffffffffffff166104c190949392919063ffffffff16565b61033b7f0000000000000000000000000000000000000000000000000000000000000000826020015183606001515f856040015173ffffffffffffffffffffffffffffffffffffffff1661063490949392919063ffffffff16565b6103f7565b61039c7f0000000000000000000000000000000000000000000000000000000000000000826020015183606001516001856040015173ffffffffffffffffffffffffffffffffffffffff1661063490949392919063ffffffff16565b6103f77f0000000000000000000000000000000000000000000000000000000000000000826020015183606001515f856040015173ffffffffffffffffffffffffffffffffffffffff166104c190949392919063ffffffff16565b604080515f60208201520160405160208183030381529060405291505092915050565b6040805160a080820183523380835273ffffffffffffffffffffffffffffffffffffffff868116602080860191825289831686880190815260608088018a81525f6080998a019081528a51948501979097529351851698830198909852518316968101969096525193850193909352511515908301527f000000000000000000000000000000000000000000000000000000000000000016906348c894919060c001610197565b80610557576040517f0b0d9c0900000000000000000000000000000000000000000000000000000000815273ffffffffffffffffffffffffffffffffffffffff8681166004830152848116602483015260448201849052851690630b0d9c09906064015b5f604051808303815f87803b15801561053c575f80fd5b505af115801561054e573d5f803e3d5ffd5b5050505061062d565b8373ffffffffffffffffffffffffffffffffffffffff1663156e29f6846105a78873ffffffffffffffffffffffffffffffffffffffff1673ffffffffffffffffffffffffffffffffffffffff1690565b6040517fffffffff0000000000000000000000000000000000000000000000000000000060e085901b16815273ffffffffffffffffffffffffffffffffffffffff90921660048301526024820152604481018590526064015f604051808303815f87803b158015610616575f80fd5b505af1158015610628573d5f803e3d5ffd5b505050505b5050505050565b80156106e7578373ffffffffffffffffffffffffffffffffffffffff1663f5298aca8461068a8873ffffffffffffffffffffffffffffffffffffffff1673ffffffffffffffffffffffffffffffffffffffff1690565b6040517fffffffff0000000000000000000000000000000000000000000000000000000060e085901b16815273ffffffffffffffffffffffffffffffffffffffff9092166004830152602482015260448101859052606401610525565b73ffffffffffffffffffffffffffffffffffffffff8516610778578373ffffffffffffffffffffffffffffffffffffffff166311da60b4836040518263ffffffff1660e01b815260040160206040518083038185885af115801561074d573d5f803e3d5ffd5b50505050506040513d601f19601f820116820180604052508101906107729190610cb0565b5061062d565b6040517fa584119400000000000000000000000000000000000000000000000000000000815273ffffffffffffffffffffffffffffffffffffffff868116600483015285169063a5841194906024015f604051808303815f87803b1580156107de575f80fd5b505af11580156107f0573d5f803e3d5ffd5b5050505073ffffffffffffffffffffffffffffffffffffffff831630146108b5576040517f23b872dd00000000000000000000000000000000000000000000000000000000815273ffffffffffffffffffffffffffffffffffffffff84811660048301528581166024830152604482018490528616906323b872dd906064016020604051808303815f875af115801561088b573d5f803e3d5ffd5b505050506040513d601f19601f820116820180604052508101906108af9190610cc7565b5061094d565b6040517fa9059cbb00000000000000000000000000000000000000000000000000000000815273ffffffffffffffffffffffffffffffffffffffff85811660048301526024820184905286169063a9059cbb906044016020604051808303815f875af1158015610927573d5f803e3d5ffd5b505050506040513d601f19601f8201168201806040525081019061094b9190610cc7565b505b8373ffffffffffffffffffffffffffffffffffffffff166311da60b46040518163ffffffff1660e01b81526004016020604051808303815f875af1158015610997573d5f803e3d5ffd5b505050506040513d601f19601f820116820180604052508101906109bb9190610cb0565b505050505050565b73ffffffffffffffffffffffffffffffffffffffff811681146109e4575f80fd5b50565b5f805f606084860312156109f9575f80fd5b8335610a04816109c3565b92506020840135610a14816109c3565b929592945050506040919091013590565b5f8060208385031215610a36575f80fd5b823567ffffffffffffffff811115610a4c575f80fd5b8301601f81018513610a5c575f80fd5b803567ffffffffffffffff811115610a72575f80fd5b856020828401011115610a83575f80fd5b6020919091019590945092505050565b602081525f82518060208401528060208501604085015e5f6040828501015260407fffffffffffffffffffffffffffffffffffffffffffffffffffffffffffffffe0601f83011684010191505092915050565b7f4e487b71000000000000000000000000000000000000000000000000000000005f52604160045260245ffd5b604051601f82017fffffffffffffffffffffffffffffffffffffffffffffffffffffffffffffffe016810167ffffffffffffffff81118282101715610b5a57610b5a610ae6565b604052919050565b5f60208284031215610b72575f80fd5b815167ffffffffffffffff811115610b88575f80fd5b8201601f81018413610b98575f80fd5b805167ffffffffffffffff811115610bb257610bb2610ae6565b610be360207fffffffffffffffffffffffffffffffffffffffffffffffffffffffffffffffe0601f84011601610b13565b818152856020838501011115610bf7575f80fd5b8160208401602083015e5f91810160200191909152949350505050565b80151581146109e4575f80fd5b5f60a0828403128015610c32575f80fd5b5060405160a0810167ffffffffffffffff81118282101715610c5657610c56610ae6565b6040528235610c64816109c3565b81526020830135610c74816109c3565b60208201526040830135610c87816109c3565b6040820152606083810135908201526080830135610ca481610c14565b60808201529392505050565b5f60208284031215610cc0575f80fd5b5051919050565b5f60208284031215610cd7575f80fd5b8151610ce281610c14565b939250505056fea2646970667358221220ec2b07ebd5fc473885ce83dbde1cee6c151d1d27ec0c8e63a8a64dfe5eeb2aec64736f6c634300081a0033","linkReferences":{}},"methodIdentifiers":{"deposit(address,address,uint256)":"8340f549","manager()":"481c6a75","unlockCallback(bytes)":"91dd7346","withdraw(address,address,uint256)":"d9caed12"},"id":70}